{
  "address": "0x7a91BC4C9308844446792B51b99F5d111178D42d",
  "abi": [
    {
      "inputs": [
        {
          "internalType": "address",
          "name": "_vusd",
          "type": "address"
        }
      ],
      "stateMutability": "nonpayable",
      "type": "constructor"
    },
    {
      "anonymous": false,
      "inputs": [
        {
          "indexed": false,
          "internalType": "uint256",
          "name": "previousMintingFee",
          "type": "uint256"
        },
        {
          "indexed": false,
          "internalType": "uint256",
          "name": "newMintingFee",
          "type": "uint256"
        }
      ],
      "name": "UpdatedMintingFee",
      "type": "event"
    },
    {
      "anonymous": false,
      "inputs": [
        {
          "indexed": false,
          "internalType": "uint256",
          "name": "previousDeviationLimit",
          "type": "uint256"
        },
        {
          "indexed": false,
          "internalType": "uint256",
          "name": "newDeviationLimit",
          "type": "uint256"
        }
      ],
      "name": "UpdatedPriceDeviationLimit",
      "type": "event"
    },
    {
      "inputs": [],
      "name": "CURVE_METAPOOL",
      "outputs": [
        {
          "internalType": "address",
          "name": "",
          "type": "address"
        }
      ],
      "stateMutability": "view",
      "type": "function"
    },
    {
      "inputs": [],
      "name": "MAX_BPS",
      "outputs": [
        {
          "internalType": "uint256",
          "name": "",
          "type": "uint256"
        }
      ],
      "stateMutability": "view",
      "type": "function"
    },
    {
      "inputs": [],
      "name": "MINT_LIMIT",
      "outputs": [
        {
          "internalType": "uint256",
          "name": "",
          "type": "uint256"
        }
      ],
      "stateMutability": "view",
      "type": "function"
    },
    {
      "inputs": [],
      "name": "NAME",
      "outputs": [
        {
          "internalType": "string",
          "name": "",
          "type": "string"
        }
      ],
      "stateMutability": "view",
      "type": "function"
    },
    {
      "inputs": [],
      "name": "VERSION",
      "outputs": [
        {
          "internalType": "string",
          "name": "",
          "type": "string"
        }
      ],
      "stateMutability": "view",
      "type": "function"
    },
    {
      "inputs": [
        {
          "internalType": "address",
          "name": "_token",
          "type": "address"
        },
        {
          "internalType": "address",
          "name": "_cToken",
          "type": "address"
        },
        {
          "internalType": "address",
          "name": "_oracle",
          "type": "address"
        }
      ],
      "name": "addWhitelistedToken",
      "outputs": [],
      "stateMutability": "nonpayable",
      "type": "function"
    },
    {
      "inputs": [],
      "name": "availableMintage",
      "outputs": [
        {
          "internalType": "uint256",
          "name": "_mintage",
          "type": "uint256"
        }
      ],
      "stateMutability": "view",
      "type": "function"
    },
    {
      "inputs": [
        {
          "internalType": "address",
          "name": "",
          "type": "address"
        }
      ],
      "name": "cTokens",
      "outputs": [
        {
          "internalType": "address",
          "name": "",
          "type": "address"
        }
      ],
      "stateMutability": "view",
      "type": "function"
    },
    {
      "inputs": [
        {
          "internalType": "address",
          "name": "_token",
          "type": "address"
        },
        {
          "internalType": "uint256",
          "name": "_amount",
          "type": "uint256"
        }
      ],
      "name": "calculateMintage",
      "outputs": [
        {
          "internalType": "uint256",
          "name": "_mintReturn",
          "type": "uint256"
        }
      ],
      "stateMutability": "view",
      "type": "function"
    },
    {
      "inputs": [],
      "name": "governor",
      "outputs": [
        {
          "internalType": "address",
          "name": "",
          "type": "address"
        }
      ],
      "stateMutability": "view",
      "type": "function"
    },
    {
      "inputs": [
        {
          "internalType": "address",
          "name": "_token",
          "type": "address"
        }
      ],
      "name": "isMintingAllowed",
      "outputs": [
        {
          "internalType": "bool",
          "name": "",
          "type": "bool"
        }
      ],
      "stateMutability": "view",
      "type": "function"
    },
    {
      "inputs": [
        {
          "internalType": "address",
          "name": "_address",
          "type": "address"
        }
      ],
      "name": "isWhitelistedToken",
      "outputs": [
        {
          "internalType": "bool",
          "name": "",
          "type": "bool"
        }
      ],
      "stateMutability": "view",
      "type": "function"
    },
    {
      "inputs": [
        {
          "internalType": "address",
          "name": "_token",
          "type": "address"
        },
        {
          "internalType": "uint256",
          "name": "_amount",
          "type": "uint256"
        },
        {
          "internalType": "address",
          "name": "_receiver",
          "type": "address"
        }
      ],
      "name": "mint",
      "outputs": [],
      "stateMutability": "nonpayable",
      "type": "function"
    },
    {
      "inputs": [
        {
          "internalType": "address",
          "name": "_token",
          "type": "address"
        },
        {
          "internalType": "uint256",
          "name": "_amount",
          "type": "uint256"
        }
      ],
      "name": "mint",
      "outputs": [],
      "stateMutability": "nonpayable",
      "type": "function"
    },
    {
      "inputs": [
        {
          "internalType": "uint256",
          "name": "_amount",
          "type": "uint256"
        }
      ],
      "name": "mintAndAddLiquidity",
      "outputs": [],
      "stateMutability": "nonpayable",
      "type": "function"
    },
    {
      "inputs": [],
      "name": "mintingFee",
      "outputs": [
        {
          "internalType": "uint256",
          "name": "",
          "type": "uint256"
        }
      ],
      "stateMutability": "view",
      "type": "function"
    },
    {
      "inputs": [
        {
          "internalType": "address",
          "name": "",
          "type": "address"
        }
      ],
      "name": "oracles",
      "outputs": [
        {
          "internalType": "address",
          "name": "",
          "type": "address"
        }
      ],
      "stateMutability": "view",
      "type": "function"
    },
    {
      "inputs": [],
      "name": "priceDeviationLimit",
      "outputs": [
        {
          "internalType": "uint256",
          "name": "",
          "type": "uint256"
        }
      ],
      "stateMutability": "view",
      "type": "function"
    },
    {
      "inputs": [
        {
          "internalType": "address",
          "name": "_token",
          "type": "address"
        }
      ],
      "name": "removeWhitelistedToken",
      "outputs": [],
      "stateMutability": "nonpayable",
      "type": "function"
    },
    {
      "inputs": [],
      "name": "treasury",
      "outputs": [
        {
          "internalType": "address",
          "name": "",
          "type": "address"
        }
      ],
      "stateMutability": "view",
      "type": "function"
    },
    {
      "inputs": [
        {
          "internalType": "uint256",
          "name": "_newMintingFee",
          "type": "uint256"
        }
      ],
      "name": "updateMintingFee",
      "outputs": [],
      "stateMutability": "nonpayable",
      "type": "function"
    },
    {
      "inputs": [
        {
          "internalType": "uint256",
          "name": "_newDeviationLimit",
          "type": "uint256"
        }
      ],
      "name": "updatePriceDeviationLimit",
      "outputs": [],
      "stateMutability": "nonpayable",
      "type": "function"
    },
    {
      "inputs": [],
      "name": "vusd",
      "outputs": [
        {
          "internalType": "contract IVUSD",
          "name": "",
          "type": "address"
        }
      ],
      "stateMutability": "view",
      "type": "function"
    },
    {
      "inputs": [],
      "name": "whitelistedTokens",
      "outputs": [
        {
          "internalType": "address[]",
          "name": "",
          "type": "address[]"
        }
      ],
      "stateMutability": "view",
      "type": "function"
    }
  ],
  "transactionHash": "0x3680652722fbaa55b41aa2f8d427910652ad7dca416c3b2a8f5a27a5544cc503",
  "args": [
    "0x677ddbd918637E5F2c79e164D402454dE7dA8619"
  ],
  "solcInputHash": "40a5527d248d03a112545ff125be1878",
  "bytecode": "0x60a06040526101906002553480156200001757600080fd5b50604051620045493803806200454983398181016040528101906200003d9190620008d7565b6001600081905550600073ffffffffffffffffffffffffffffffffffffffff168173ffffffffffffffffffffffffffffffffffffffff161415620000b8576040517f08c379a0000000000000000000000000000000000000000000000000000000008152600401620000af9062000b76565b60405180910390fd5b8073ffffffffffffffffffffffffffffffffffffffff1660808173ffffffffffffffffffffffffffffffffffffffff1660601b815250506200013e736b175474e89094c44da98b954eedeac495271d0f735d3a536e4d6dbd6114cc1ead35777bab948e364373aed0c38402a5d19df6e4c03f4e2dced6e29c1ee9620001fa60201b60201c565b6200018d73a0b86991c6218b36c1d19d4a2e9eb0ce3606eb487339aa39c021dfbae8fac545936693ac917d5e7563738fffffd4afb6115b954bd326cbe7b4ba576818f6620001fa60201b60201c565b620001f3734df9e1a764fb8df1113ec02fc9dc75963395b5087fffffffffffffffffffffffffffffffffffffffffffffffffffffffffffffffff8373ffffffffffffffffffffffffffffffffffffffff16620003aa60201b6200119f179092919060201c565b5062000ebb565b620002158360076200051c60201b620012fd1790919060201c565b62000257576040517f08c379a00000000000000000000000000000000000000000000000000000000081526004016200024e9062000bba565b60405180910390fd5b80600660008573ffffffffffffffffffffffffffffffffffffffff1673ffffffffffffffffffffffffffffffffffffffff16815260200190815260200160002060006101000a81548173ffffffffffffffffffffffffffffffffffffffff021916908373ffffffffffffffffffffffffffffffffffffffff16021790555081600560008573ffffffffffffffffffffffffffffffffffffffff1673ffffffffffffffffffffffffffffffffffffffff16815260200190815260200160002060006101000a81548173ffffffffffffffffffffffffffffffffffffffff021916908373ffffffffffffffffffffffffffffffffffffffff160217905550620003a5827fffffffffffffffffffffffffffffffffffffffffffffffffffffffffffffffff8573ffffffffffffffffffffffffffffffffffffffff16620003aa60201b6200119f179092919060201c565b505050565b60008114806200044a575060008373ffffffffffffffffffffffffffffffffffffffff1663dd62ed3e30856040518363ffffffff1660e01b8152600401620003f492919062000af8565b60206040518083038186803b1580156200040d57600080fd5b505afa15801562000422573d6000803e3d6000fd5b505050506040513d601f19601f820116820180604052508101906200044891906200092f565b145b6200048c576040517f08c379a0000000000000000000000000000000000000000000000000000000008152600401620004839062000c20565b60405180910390fd5b620005178363095ea7b360e01b8484604051602401620004ae92919062000b25565b604051602081830303815290604052907bffffffffffffffffffffffffffffffffffffffffffffffffffffffff19166020820180517bffffffffffffffffffffffffffffffffffffffffffffffffffffffff83818316178352505050506200055460201b60201c565b505050565b60006200054c836000018373ffffffffffffffffffffffffffffffffffffffff1660001b6200062860201b60201c565b905092915050565b6000620005bd826040518060400160405280602081526020017f5361666545524332303a206c6f772d6c6576656c2063616c6c206661696c65648152508573ffffffffffffffffffffffffffffffffffffffff16620006a260201b6200132d179092919060201c565b9050600081511115620006235780806020019051810190620005e0919062000903565b62000622576040517f08c379a0000000000000000000000000000000000000000000000000000000008152600401620006199062000bfe565b60405180910390fd5b5b505050565b60006200063c8383620006c260201b60201c565b620006975782600001829080600181540180825580915050600190039060005260206000200160009091909190915055826000018054905083600101600084815260200190815260200160002081905550600190506200069c565b600090505b92915050565b6060620006b98484600085620006e560201b60201c565b90509392505050565b600080836001016000848152602001908152602001600020541415905092915050565b6060824710156200072d576040517f08c379a0000000000000000000000000000000000000000000000000000000008152600401620007249062000b98565b60405180910390fd5b6200073e856200081360201b60201c565b62000780576040517f08c379a0000000000000000000000000000000000000000000000000000000008152600401620007779062000bdc565b60405180910390fd5b6000808673ffffffffffffffffffffffffffffffffffffffff168587604051620007ab919062000adf565b60006040518083038185875af1925050503d8060008114620007ea576040519150601f19603f3d011682016040523d82523d6000602084013e620007ef565b606091505b5091509150620008078282866200082660201b60201c565b92505050949350505050565b600080823b905060008111915050919050565b6060831562000838578290506200088b565b6000835111156200084c5782518084602001fd5b816040517f08c379a000000000000000000000000000000000000000000000000000000000815260040162000882919062000b52565b60405180910390fd5b9392505050565b600081519050620008a38162000e6d565b92915050565b600081519050620008ba8162000e87565b92915050565b600081519050620008d18162000ea1565b92915050565b600060208284031215620008ea57600080fd5b6000620008fa8482850162000892565b91505092915050565b6000602082840312156200091657600080fd5b60006200092684828501620008a9565b91505092915050565b6000602082840312156200094257600080fd5b60006200095284828501620008c0565b91505092915050565b620009668162000c74565b82525050565b6000620009798262000c42565b62000985818562000c58565b93506200099781856020860162000cbe565b80840191505092915050565b6000620009b08262000c4d565b620009bc818562000c63565b9350620009ce81856020860162000cbe565b620009d98162000cf4565b840191505092915050565b6000620009f360148362000c63565b915062000a008262000d05565b602082019050919050565b600062000a1a60268362000c63565b915062000a278262000d2e565b604082019050919050565b600062000a4160128362000c63565b915062000a4e8262000d7d565b602082019050919050565b600062000a68601d8362000c63565b915062000a758262000da6565b602082019050919050565b600062000a8f602a8362000c63565b915062000a9c8262000dcf565b604082019050919050565b600062000ab660368362000c63565b915062000ac38262000e1e565b604082019050919050565b62000ad98162000cb4565b82525050565b600062000aed82846200096c565b915081905092915050565b600060408201905062000b0f60008301856200095b565b62000b1e60208301846200095b565b9392505050565b600060408201905062000b3c60008301856200095b565b62000b4b602083018462000ace565b9392505050565b6000602082019050818103600083015262000b6e8184620009a3565b905092915050565b6000602082019050818103600083015262000b9181620009e4565b9050919050565b6000602082019050818103600083015262000bb38162000a0b565b9050919050565b6000602082019050818103600083015262000bd58162000a32565b9050919050565b6000602082019050818103600083015262000bf78162000a59565b9050919050565b6000602082019050818103600083015262000c198162000a80565b9050919050565b6000602082019050818103600083015262000c3b8162000aa7565b9050919050565b600081519050919050565b600081519050919050565b600081905092915050565b600082825260208201905092915050565b600062000c818262000c94565b9050919050565b60008115159050919050565b600073ffffffffffffffffffffffffffffffffffffffff82169050919050565b6000819050919050565b60005b8381101562000cde57808201518184015260208101905062000cc1565b8381111562000cee576000848401525b50505050565b6000601f19601f8301169050919050565b7f767573642d616464726573732d69732d7a65726f000000000000000000000000600082015250565b7f416464726573733a20696e73756666696369656e742062616c616e636520666f60008201527f722063616c6c0000000000000000000000000000000000000000000000000000602082015250565b7f6164642d696e2d6c6973742d6661696c65640000000000000000000000000000600082015250565b7f416464726573733a2063616c6c20746f206e6f6e2d636f6e7472616374000000600082015250565b7f5361666545524332303a204552433230206f7065726174696f6e20646964206e60008201527f6f74207375636365656400000000000000000000000000000000000000000000602082015250565b7f5361666545524332303a20617070726f76652066726f6d206e6f6e2d7a65726f60008201527f20746f206e6f6e2d7a65726f20616c6c6f77616e636500000000000000000000602082015250565b62000e788162000c74565b811462000e8457600080fd5b50565b62000e928162000c88565b811462000e9e57600080fd5b50565b62000eac8162000cb4565b811462000eb857600080fd5b50565b60805160601c61364c62000efd600039600081816105240152818161067801528181610c2a01528181610cfc0152818161113e015261165e015261364c6000f3fe608060405234801561001057600080fd5b50600436106101585760003560e01c806361d027b3116100c3578063addd50991161007c578063addd5099146103a3578063c0275a25146103d3578063e03c65c4146103ef578063edac52031461041f578063fd967f471461043d578063ffa1ad741461045b57610158565b806361d027b3146102cd5780638c0b09d0146102eb5780639ae1e8611461031b578063a3f4df7e14610339578063a9d6028614610357578063ab37f4861461037357610158565b806320ab954e1161011557806320ab954e1461020b57806340c10f1914610227578063482b6014146102435780635166c96a146102735780635a64ad95146102915780635e1762a0146102af57610158565b8063027752401461015d5780630699df581461017b57806308997b10146101995780630c340a24146101b55780630d4d1513146101d35780631c88705d146101ef575b600080fd5b610165610479565b6040516101729190612d08565b60405180910390f35b610183610488565b6040516101909190612d08565b60405180910390f35b6101b360048036038101906101ae91906123f9565b61048e565b005b6101bd610674565b6040516101ca9190612953565b60405180910390f35b6101ed60048036038101906101e89190612381565b610719565b005b610209600480360381019061020491906122a4565b61077f565b005b610225600480360381019061022091906122f6565b6109a0565b005b610241600480360381019061023c9190612345565b610b7c565b005b61025d60048036038101906102589190612345565b610be8565b60405161026a9190612d08565b60405180910390f35b61027b610c26565b6040516102889190612d08565b60405180910390f35b610299610ce1565b6040516102a69190612d08565b60405180910390f35b6102b7610ce7565b6040516102c491906129f7565b60405180910390f35b6102d5610cf8565b6040516102e29190612953565b60405180910390f35b610305600480360381019061030091906122a4565b610d9d565b6040516103129190612953565b60405180910390f35b610323610dd0565b6040516103309190612953565b60405180910390f35b610341610de8565b60405161034e9190612a86565b60405180910390f35b610371600480360381019061036c91906123f9565b610e21565b005b61038d600480360381019061038891906122a4565b610f6c565b60405161039a9190612a50565b60405180910390f35b6103bd60048036038101906103b891906122a4565b610f89565b6040516103ca9190612953565b60405180910390f35b6103ed60048036038101906103e891906123f9565b610fbc565b005b610409600480360381019061040491906122a4565b611107565b6040516104169190612a50565b60405180910390f35b61042761113c565b6040516104349190612a6b565b60405180910390f35b610445611160565b6040516104529190612d08565b60405180910390f35b610463611166565b6040516104709190612a86565b60405180910390f35b6a295be96e6406697200000081565b60025481565b610496610674565b73ffffffffffffffffffffffffffffffffffffffff166104b4611345565b73ffffffffffffffffffffffffffffffffffffffff161461050a576040517f08c379a000000000000000000000000000000000000000000000000000000000815260040161050190612ae8565b60405180910390fd5b6000610514610c26565b905080821115610522578091505b7f000000000000000000000000000000000000000000000000000000000000000073ffffffffffffffffffffffffffffffffffffffff166340c10f1930846040518363ffffffff1660e01b815260040161057d9291906129ce565b600060405180830381600087803b15801561059757600080fd5b505af11580156105ab573d6000803e3d6000fd5b50505050734df9e1a764fb8df1113ec02fc9dc75963395b50873ffffffffffffffffffffffffffffffffffffffff16630c3e4b546040518060400160405280858152602001600081525060016105ff610cf8565b6040518463ffffffff1660e01b815260040161061d93929190612a19565b602060405180830381600087803b15801561063757600080fd5b505af115801561064b573d6000803e3d6000fd5b505050506040513d601f19601f8201168201806040525081019061066f9190612422565b505050565b60007f000000000000000000000000000000000000000000000000000000000000000073ffffffffffffffffffffffffffffffffffffffff16630c340a246040518163ffffffff1660e01b815260040160206040518083038186803b1580156106dc57600080fd5b505afa1580156106f0573d6000803e3d6000fd5b505050506040513d601f19601f8201168201806040525081019061071491906122cd565b905090565b6002600054141561075f576040517f08c379a000000000000000000000000000000000000000000000000000000000815260040161075690612cc8565b60405180910390fd5b600260008190555061077283838361134d565b6001600081905550505050565b610787610674565b73ffffffffffffffffffffffffffffffffffffffff166107a5611345565b73ffffffffffffffffffffffffffffffffffffffff16146107fb576040517f08c379a00000000000000000000000000000000000000000000000000000000081526004016107f290612ae8565b60405180910390fd5b61080f8160076116f190919063ffffffff16565b61084e576040517f08c379a000000000000000000000000000000000000000000000000000000000815260040161084590612b68565b60405180910390fd5b6108d9600560008373ffffffffffffffffffffffffffffffffffffffff1673ffffffffffffffffffffffffffffffffffffffff16815260200190815260200160002060009054906101000a900473ffffffffffffffffffffffffffffffffffffffff1660008373ffffffffffffffffffffffffffffffffffffffff1661119f9092919063ffffffff16565b600560008273ffffffffffffffffffffffffffffffffffffffff1673ffffffffffffffffffffffffffffffffffffffff16815260200190815260200160002060006101000a81549073ffffffffffffffffffffffffffffffffffffffff0219169055600660008273ffffffffffffffffffffffffffffffffffffffff1673ffffffffffffffffffffffffffffffffffffffff16815260200190815260200160002060006101000a81549073ffffffffffffffffffffffffffffffffffffffff021916905550565b6109a8610674565b73ffffffffffffffffffffffffffffffffffffffff166109c6611345565b73ffffffffffffffffffffffffffffffffffffffff1614610a1c576040517f08c379a0000000000000000000000000000000000000000000000000000000008152600401610a1390612ae8565b60405180910390fd5b600073ffffffffffffffffffffffffffffffffffffffff168373ffffffffffffffffffffffffffffffffffffffff161415610a8c576040517f08c379a0000000000000000000000000000000000000000000000000000000008152600401610a8390612b08565b60405180910390fd5b600073ffffffffffffffffffffffffffffffffffffffff168273ffffffffffffffffffffffffffffffffffffffff161415610afc576040517f08c379a0000000000000000000000000000000000000000000000000000000008152600401610af390612aa8565b60405180910390fd5b600073ffffffffffffffffffffffffffffffffffffffff168173ffffffffffffffffffffffffffffffffffffffff161415610b6c576040517f08c379a0000000000000000000000000000000000000000000000000000000008152600401610b6390612bc8565b60405180910390fd5b610b77838383611721565b505050565b60026000541415610bc2576040517f08c379a0000000000000000000000000000000000000000000000000000000008152600401610bb990612cc8565b60405180910390fd5b6002600081905550610bdc8282610bd7611345565b61134d565b60016000819055505050565b6000610bfe8360076118c090919063ffffffff16565b15610c1b576000610c0f84846118f0565b50905080915050610c20565b600090505b92915050565b60007f000000000000000000000000000000000000000000000000000000000000000073ffffffffffffffffffffffffffffffffffffffff166318160ddd6040518163ffffffff1660e01b815260040160206040518083038186803b158015610c8e57600080fd5b505afa158015610ca2573d6000803e3d6000fd5b505050506040513d601f19601f82011682018060405250810190610cc69190612422565b6a295be96e64066972000000610cdc9190613081565b905090565b60015481565b6060610cf36007611a21565b905090565b60007f000000000000000000000000000000000000000000000000000000000000000073ffffffffffffffffffffffffffffffffffffffff166361d027b36040518163ffffffff1660e01b815260040160206040518083038186803b158015610d6057600080fd5b505afa158015610d74573d6000803e3d6000fd5b505050506040513d601f19601f82011682018060405250810190610d9891906122cd565b905090565b60056020528060005260406000206000915054906101000a900473ffffffffffffffffffffffffffffffffffffffff1681565b734df9e1a764fb8df1113ec02fc9dc75963395b50881565b6040518060400160405280600b81526020017f565553442d4d696e74657200000000000000000000000000000000000000000081525081565b610e29610674565b73ffffffffffffffffffffffffffffffffffffffff16610e47611345565b73ffffffffffffffffffffffffffffffffffffffff1614610e9d576040517f08c379a0000000000000000000000000000000000000000000000000000000008152600401610e9490612ae8565b60405180910390fd5b612710811115610ee2576040517f08c379a0000000000000000000000000000000000000000000000000000000008152600401610ed990612ba8565b60405180910390fd5b806002541415610f27576040517f08c379a0000000000000000000000000000000000000000000000000000000008152600401610f1e90612c28565b60405180910390fd5b7f363e55da37b92ca974a63a59deec81e5dd371801000ee2cbdfe0c2320127714f60025482604051610f5a929190612d23565b60405180910390a18060028190555050565b6000610f828260076118c090919063ffffffff16565b9050919050565b60066020528060005260406000206000915054906101000a900473ffffffffffffffffffffffffffffffffffffffff1681565b610fc4610674565b73ffffffffffffffffffffffffffffffffffffffff16610fe2611345565b73ffffffffffffffffffffffffffffffffffffffff1614611038576040517f08c379a000000000000000000000000000000000000000000000000000000000815260040161102f90612ae8565b60405180910390fd5b61271081111561107d576040517f08c379a000000000000000000000000000000000000000000000000000000000815260040161107490612c08565b60405180910390fd5b8060015414156110c2576040517f08c379a00000000000000000000000000000000000000000000000000000000081526004016110b990612ca8565b60405180910390fd5b7f85735a3ef929fdaaf946ddf4b97deec396e7347cbb47fea3d6a8f3934e1b02e3600154826040516110f5929190612d23565b60405180910390a18060018190555050565b600061111d8260076118c090919063ffffffff16565b156111325761112b82611a42565b9050611137565b600090505b919050565b7f000000000000000000000000000000000000000000000000000000000000000081565b61271081565b6040518060400160405280600581526020017f312e332e3000000000000000000000000000000000000000000000000000000081525081565b6000811480611238575060008373ffffffffffffffffffffffffffffffffffffffff1663dd62ed3e30856040518363ffffffff1660e01b81526004016111e692919061296e565b60206040518083038186803b1580156111fe57600080fd5b505afa158015611212573d6000803e3d6000fd5b505050506040513d601f19601f820116820180604052508101906112369190612422565b145b611277576040517f08c379a000000000000000000000000000000000000000000000000000000000815260040161126e90612ce8565b60405180910390fd5b6112f88363095ea7b360e01b84846040516024016112969291906129ce565b604051602081830303815290604052907bffffffffffffffffffffffffffffffffffffffffffffffffffffffff19166020820180517bffffffffffffffffffffffffffffffffffffffffffffffffffffffff8381831617835250505050611c23565b505050565b6000611325836000018373ffffffffffffffffffffffffffffffffffffffff1660001b611cea565b905092915050565b606061133c8484600085611d5a565b90509392505050565b600033905090565b6113618360076118c090919063ffffffff16565b6113a0576040517f08c379a000000000000000000000000000000000000000000000000000000000815260040161139790612b28565b60405180910390fd5b6113a983611a42565b6113e8576040517f08c379a00000000000000000000000000000000000000000000000000000000081526004016113df90612b88565b60405180910390fd5b6000806113f585856118f0565b91509150600082141561143d576040517f08c379a000000000000000000000000000000000000000000000000000000000815260040161143490612be8565b60405180910390fd5b611471611448611345565b30838873ffffffffffffffffffffffffffffffffffffffff16611e6e909392919063ffffffff16565b6000600560008773ffffffffffffffffffffffffffffffffffffffff1673ffffffffffffffffffffffffffffffffffffffff16815260200190815260200160002060009054906101000a900473ffffffffffffffffffffffffffffffffffffffff16905060008173ffffffffffffffffffffffffffffffffffffffff1663a0712d68846040518263ffffffff1660e01b81526004016115109190612d08565b602060405180830381600087803b15801561152a57600080fd5b505af115801561153e573d6000803e3d6000fd5b505050506040513d601f19601f820116820180604052508101906115629190612422565b146115a2576040517f08c379a000000000000000000000000000000000000000000000000000000000815260040161159990612c88565b60405180910390fd5b61165c6115ad610cf8565b8273ffffffffffffffffffffffffffffffffffffffff166370a08231306040518263ffffffff1660e01b81526004016115e69190612953565b60206040518083038186803b1580156115fe57600080fd5b505afa158015611612573d6000803e3d6000fd5b505050506040513d601f19601f820116820180604052508101906116369190612422565b8373ffffffffffffffffffffffffffffffffffffffff16611ef79092919063ffffffff16565b7f000000000000000000000000000000000000000000000000000000000000000073ffffffffffffffffffffffffffffffffffffffff166340c10f1985856040518363ffffffff1660e01b81526004016116b79291906129ce565b600060405180830381600087803b1580156116d157600080fd5b505af11580156116e5573d6000803e3d6000fd5b50505050505050505050565b6000611719836000018373ffffffffffffffffffffffffffffffffffffffff1660001b611f7d565b905092915050565b6117358360076112fd90919063ffffffff16565b611774576040517f08c379a000000000000000000000000000000000000000000000000000000000815260040161176b90612b48565b60405180910390fd5b80600660008573ffffffffffffffffffffffffffffffffffffffff1673ffffffffffffffffffffffffffffffffffffffff16815260200190815260200160002060006101000a81548173ffffffffffffffffffffffffffffffffffffffff021916908373ffffffffffffffffffffffffffffffffffffffff16021790555081600560008573ffffffffffffffffffffffffffffffffffffffff1673ffffffffffffffffffffffffffffffffffffffff16815260200190815260200160002060006101000a81548173ffffffffffffffffffffffffffffffffffffffff021916908373ffffffffffffffffffffffffffffffffffffffff1602179055506118bb827fffffffffffffffffffffffffffffffffffffffffffffffffffffffffffffffff8573ffffffffffffffffffffffffffffffffffffffff1661119f9092919063ffffffff16565b505050565b60006118e8836000018373ffffffffffffffffffffffffffffffffffffffff1660001b612103565b905092915050565b60008060008473ffffffffffffffffffffffffffffffffffffffff1663313ce5676040518163ffffffff1660e01b815260040160206040518083038186803b15801561193b57600080fd5b505afa15801561194f573d6000803e3d6000fd5b505050506040513d601f19601f8201168201806040525081019061197391906124c2565b60ff16905060008160126119879190613081565b600a6119939190612ebe565b61199b610c26565b6119a59190612e3a565b90508085116119b457846119b6565b805b9250600060015414156119c957826119f0565b612710600154846119da9190613027565b6119e49190612e3a565b836119ef9190613081565b5b93508160126119ff9190613081565b600a611a0b9190612ebe565b84611a169190613027565b935050509250929050565b60606000611a3183600001612126565b905060608190508092505050919050565b600080600660008473ffffffffffffffffffffffffffffffffffffffff1673ffffffffffffffffffffffffffffffffffffffff16815260200190815260200160002060009054906101000a900473ffffffffffffffffffffffffffffffffffffffff16905060008173ffffffffffffffffffffffffffffffffffffffff1663313ce5676040518163ffffffff1660e01b815260040160206040518083038186803b158015611aef57600080fd5b505afa158015611b03573d6000803e3d6000fd5b505050506040513d601f19601f82011682018060405250810190611b2791906124c2565b9050600081600a611b389190612f09565b9050600061271060025483611b4d9190613027565b611b579190612e3a565b905060008183611b679190612de4565b905060008284611b779190613081565b905060008673ffffffffffffffffffffffffffffffffffffffff1663feaf968c6040518163ffffffff1660e01b815260040160a06040518083038186803b158015611bc157600080fd5b505afa158015611bd5573d6000803e3d6000fd5b505050506040513d601f19601f82011682018060405250810190611bf9919061244b565b5050509150506000819050838111158015611c145750828110155b98505050505050505050919050565b6000611c85826040518060400160405280602081526020017f5361666545524332303a206c6f772d6c6576656c2063616c6c206661696c65648152508573ffffffffffffffffffffffffffffffffffffffff1661132d9092919063ffffffff16565b9050600081511115611ce55780806020019051810190611ca591906123d0565b611ce4576040517f08c379a0000000000000000000000000000000000000000000000000000000008152600401611cdb90612c68565b60405180910390fd5b5b505050565b6000611cf68383612103565b611d4f578260000182908060018154018082558091505060019003906000526020600020016000909190919091505582600001805490508360010160008481526020019081526020016000208190555060019050611d54565b600090505b92915050565b606082471015611d9f576040517f08c379a0000000000000000000000000000000000000000000000000000000008152600401611d9690612ac8565b60405180910390fd5b611da885612182565b611de7576040517f08c379a0000000000000000000000000000000000000000000000000000000008152600401611dde90612c48565b60405180910390fd5b6000808673ffffffffffffffffffffffffffffffffffffffff168587604051611e10919061293c565b60006040518083038185875af1925050503d8060008114611e4d576040519150601f19603f3d011682016040523d82523d6000602084013e611e52565b606091505b5091509150611e62828286612195565b92505050949350505050565b611ef1846323b872dd60e01b858585604051602401611e8f93929190612997565b604051602081830303815290604052907bffffffffffffffffffffffffffffffffffffffffffffffffffffffff19166020820180517bffffffffffffffffffffffffffffffffffffffffffffffffffffffff8381831617835250505050611c23565b50505050565b611f788363a9059cbb60e01b8484604051602401611f169291906129ce565b604051602081830303815290604052907bffffffffffffffffffffffffffffffffffffffffffffffffffffffff19166020820180517bffffffffffffffffffffffffffffffffffffffffffffffffffffffff8381831617835250505050611c23565b505050565b600080836001016000848152602001908152602001600020549050600081146120f7576000600182611faf9190613081565b9050600060018660000180549050611fc79190613081565b905081811461208257600086600001828154811061200e577f4e487b7100000000000000000000000000000000000000000000000000000000600052603260045260246000fd5b9060005260206000200154905080876000018481548110612058577f4e487b7100000000000000000000000000000000000000000000000000000000600052603260045260246000fd5b90600052602060002001819055508387600101600083815260200190815260200160002081905550505b856000018054806120bc577f4e487b7100000000000000000000000000000000000000000000000000000000600052603160045260246000fd5b6001900381819060005260206000200160009055905585600101600086815260200190815260200160002060009055600193505050506120fd565b60009150505b92915050565b600080836001016000848152602001908152602001600020541415905092915050565b60608160000180548060200260200160405190810160405280929190818152602001828054801561217657602002820191906000526020600020905b815481526020019060010190808311612162575b50505050509050919050565b600080823b905060008111915050919050565b606083156121a5578290506121f5565b6000835111156121b85782518084602001fd5b816040517f08c379a00000000000000000000000000000000000000000000000000000000081526004016121ec9190612a86565b60405180910390fd5b9392505050565b60008135905061220b8161358c565b92915050565b6000815190506122208161358c565b92915050565b600081519050612235816135a3565b92915050565b60008151905061224a816135ba565b92915050565b60008135905061225f816135d1565b92915050565b600081519050612274816135d1565b92915050565b600081519050612289816135ff565b92915050565b60008151905061229e816135e8565b92915050565b6000602082840312156122b657600080fd5b60006122c4848285016121fc565b91505092915050565b6000602082840312156122df57600080fd5b60006122ed84828501612211565b91505092915050565b60008060006060848603121561230b57600080fd5b6000612319868287016121fc565b935050602061232a868287016121fc565b925050604061233b868287016121fc565b9150509250925092565b6000806040838503121561235857600080fd5b6000612366858286016121fc565b925050602061237785828601612250565b9150509250929050565b60008060006060848603121561239657600080fd5b60006123a4868287016121fc565b93505060206123b586828701612250565b92505060406123c6868287016121fc565b9150509250925092565b6000602082840312156123e257600080fd5b60006123f084828501612226565b91505092915050565b60006020828403121561240b57600080fd5b600061241984828501612250565b91505092915050565b60006020828403121561243457600080fd5b600061244284828501612265565b91505092915050565b600080600080600060a0868803121561246357600080fd5b60006124718882890161227a565b95505060206124828882890161223b565b945050604061249388828901612265565b93505060606124a488828901612265565b92505060806124b58882890161227a565b9150509295509295909350565b6000602082840312156124d457600080fd5b60006124e28482850161228f565b91505092915050565b60006124f7838361251b565b60208301905092915050565b600061250f838361291e565b60208301905092915050565b612524816130b5565b82525050565b612533816130b5565b82525050565b600061254482612d66565b61254e8185612dac565b935061255983612d4c565b8060005b8381101561258a57815161257188826124eb565b975061257c83612d92565b92505060018101905061255d565b5085935050505092915050565b6125a081612d71565b6125aa8184612dbd565b92506125b582612d5c565b8060005b838110156125e65781516125cd8782612503565b96506125d883612d9f565b9250506001810190506125b9565b505050505050565b6125f7816130c7565b82525050565b600061260882612d7c565b6126128185612dc8565b9350612622818560208601613160565b80840191505092915050565b6126378161312a565b82525050565b6126468161314e565b82525050565b600061265782612d87565b6126618185612dd3565b9350612671818560208601613160565b61267a816131f1565b840191505092915050565b6000612692601683612dd3565b915061269d8261320f565b602082019050919050565b60006126b5602683612dd3565b91506126c082613238565b604082019050919050565b60006126d8601a83612dd3565b91506126e382613287565b602082019050919050565b60006126fb601583612dd3565b9150612706826132b0565b602082019050919050565b600061271e601683612dd3565b9150612729826132d9565b602082019050919050565b6000612741601283612dd3565b915061274c82613302565b602082019050919050565b6000612764601783612dd3565b915061276f8261332b565b602082019050919050565b6000612787601e83612dd3565b915061279282613354565b602082019050919050565b60006127aa601a83612dd3565b91506127b58261337d565b602082019050919050565b60006127cd601683612dd3565b91506127d8826133a6565b602082019050919050565b60006127f0601283612dd3565b91506127fb826133cf565b602082019050919050565b6000612813601983612dd3565b915061281e826133f8565b602082019050919050565b6000612836601a83612dd3565b915061284182613421565b602082019050919050565b6000612859601d83612dd3565b91506128648261344a565b602082019050919050565b600061287c602a83612dd3565b915061288782613473565b604082019050919050565b600061289f601283612dd3565b91506128aa826134c2565b602082019050919050565b60006128c2601083612dd3565b91506128cd826134eb565b602082019050919050565b60006128e5601f83612dd3565b91506128f082613514565b602082019050919050565b6000612908603683612dd3565b91506129138261353d565b604082019050919050565b612927816130fd565b82525050565b612936816130fd565b82525050565b600061294882846125fd565b915081905092915050565b6000602082019050612968600083018461252a565b92915050565b6000604082019050612983600083018561252a565b612990602083018461252a565b9392505050565b60006060820190506129ac600083018661252a565b6129b9602083018561252a565b6129c6604083018461292d565b949350505050565b60006040820190506129e3600083018561252a565b6129f0602083018461292d565b9392505050565b60006020820190508181036000830152612a118184612539565b905092915050565b6000608082019050612a2e6000830186612597565b612a3b604083018561263d565b612a48606083018461252a565b949350505050565b6000602082019050612a6560008301846125ee565b92915050565b6000602082019050612a80600083018461262e565b92915050565b60006020820190508181036000830152612aa0818461264c565b905092915050565b60006020820190508181036000830152612ac181612685565b9050919050565b60006020820190508181036000830152612ae1816126a8565b9050919050565b60006020820190508181036000830152612b01816126cb565b9050919050565b60006020820190508181036000830152612b21816126ee565b9050919050565b60006020820190508181036000830152612b4181612711565b9050919050565b60006020820190508181036000830152612b6181612734565b9050919050565b60006020820190508181036000830152612b8181612757565b9050919050565b60006020820190508181036000830152612ba18161277a565b9050919050565b60006020820190508181036000830152612bc18161279d565b9050919050565b60006020820190508181036000830152612be1816127c0565b9050919050565b60006020820190508181036000830152612c01816127e3565b9050919050565b60006020820190508181036000830152612c2181612806565b9050919050565b60006020820190508181036000830152612c4181612829565b9050919050565b60006020820190508181036000830152612c618161284c565b9050919050565b60006020820190508181036000830152612c818161286f565b9050919050565b60006020820190508181036000830152612ca181612892565b9050919050565b60006020820190508181036000830152612cc1816128b5565b9050919050565b60006020820190508181036000830152612ce1816128d8565b9050919050565b60006020820190508181036000830152612d01816128fb565b9050919050565b6000602082019050612d1d600083018461292d565b92915050565b6000604082019050612d38600083018561292d565b612d45602083018461292d565b9392505050565b6000819050602082019050919050565b6000819050919050565b600081519050919050565b600060029050919050565b600081519050919050565b600081519050919050565b6000602082019050919050565b6000602082019050919050565b600082825260208201905092915050565b600081905092915050565b600081905092915050565b600082825260208201905092915050565b6000612def826130fd565b9150612dfa836130fd565b9250827fffffffffffffffffffffffffffffffffffffffffffffffffffffffffffffffff03821115612e2f57612e2e613193565b5b828201905092915050565b6000612e45826130fd565b9150612e50836130fd565b925082612e6057612e5f6131c2565b5b828204905092915050565b6000808291508390505b6001851115612eb557808604811115612e9157612e90613193565b5b6001851615612ea05780820291505b8081029050612eae85613202565b9450612e75565b94509492505050565b6000612ec9826130fd565b9150612ed4836130fd565b9250612f017fffffffffffffffffffffffffffffffffffffffffffffffffffffffffffffffff8484612f54565b905092915050565b6000612f14826130fd565b9150612f1f83613107565b9250612f4c7fffffffffffffffffffffffffffffffffffffffffffffffffffffffffffffffff8484612f54565b905092915050565b600082612f645760019050613020565b81612f725760009050613020565b8160018114612f885760028114612f9257612fc1565b6001915050613020565b60ff841115612fa457612fa3613193565b5b8360020a915084821115612fbb57612fba613193565b5b50613020565b5060208310610133831016604e8410600b8410161715612ff65782820a905083811115612ff157612ff0613193565b5b613020565b6130038484846001612e6b565b9250905081840481111561301a57613019613193565b5b81810290505b9392505050565b6000613032826130fd565b915061303d836130fd565b9250817fffffffffffffffffffffffffffffffffffffffffffffffffffffffffffffffff048311821515161561307657613075613193565b5b828202905092915050565b600061308c826130fd565b9150613097836130fd565b9250828210156130aa576130a9613193565b5b828203905092915050565b60006130c0826130dd565b9050919050565b60008115159050919050565b6000819050919050565b600073ffffffffffffffffffffffffffffffffffffffff82169050919050565b6000819050919050565b600060ff82169050919050565b600069ffffffffffffffffffff82169050919050565b60006131358261313c565b9050919050565b6000613147826130dd565b9050919050565b6000613159826130fd565b9050919050565b60005b8381101561317e578082015181840152602081019050613163565b8381111561318d576000848401525b50505050565b7f4e487b7100000000000000000000000000000000000000000000000000000000600052601160045260246000fd5b7f4e487b7100000000000000000000000000000000000000000000000000000000600052601260045260246000fd5b6000601f19601f8301169050919050565b60008160011c9050919050565b7f63546f6b656e2d616464726573732d69732d7a65726f00000000000000000000600082015250565b7f416464726573733a20696e73756666696369656e742062616c616e636520666f60008201527f722063616c6c0000000000000000000000000000000000000000000000000000602082015250565b7f63616c6c65722d69732d6e6f742d7468652d676f7665726e6f72000000000000600082015250565b7f746f6b656e2d616464726573732d69732d7a65726f0000000000000000000000600082015250565b7f746f6b656e2d69732d6e6f742d737570706f7274656400000000000000000000600082015250565b7f6164642d696e2d6c6973742d6661696c65640000000000000000000000000000600082015250565b7f72656d6f76652d66726f6d2d6c6973742d6661696c6564000000000000000000600082015250565b7f746f6f2d6d7563682d746f6b656e2d70726963652d646576696174696f6e0000600082015250565b7f70726963652d646576696174696f6e2d69732d696e76616c6964000000000000600082015250565b7f6f7261636c652d616464726573732d69732d7a65726f00000000000000000000600082015250565b7f6d696e742d6c696d69742d726561636865640000000000000000000000000000600082015250565b7f6d696e74696e672d6665652d6c696d69742d7265616368656400000000000000600082015250565b7f73616d652d70726963652d646576696174696f6e2d6c696d6974000000000000600082015250565b7f416464726573733a2063616c6c20746f206e6f6e2d636f6e7472616374000000600082015250565b7f5361666545524332303a204552433230206f7065726174696f6e20646964206e60008201527f6f74207375636365656400000000000000000000000000000000000000000000602082015250565b7f63546f6b656e2d6d696e742d6661696c65640000000000000000000000000000600082015250565b7f73616d652d6d696e74696e672d66656500000000000000000000000000000000600082015250565b7f5265656e7472616e637947756172643a207265656e7472616e742063616c6c00600082015250565b7f5361666545524332303a20617070726f76652066726f6d206e6f6e2d7a65726f60008201527f20746f206e6f6e2d7a65726f20616c6c6f77616e636500000000000000000000602082015250565b613595816130b5565b81146135a057600080fd5b50565b6135ac816130c7565b81146135b757600080fd5b50565b6135c3816130d3565b81146135ce57600080fd5b50565b6135da816130fd565b81146135e557600080fd5b50565b6135f181613107565b81146135fc57600080fd5b50565b61360881613114565b811461361357600080fd5b5056fea26469706673582212200b6b24838063ee557d48e9288ac66090096b3464204c84ad76ed2c68e70e1ea864736f6c63430008030033",
  "devdoc": {
    "kind": "dev",
    "methods": {
      "addWhitelistedToken(address,address,address)": {
        "details": "Add token address in whitelistedTokens list and add cToken in mapping",
        "params": {
          "_cToken": "CToken address correspond to _token",
          "_oracle": "Chainlink oracle address for token/USD feed",
          "_token": "address which we want to add in token list."
        }
      },
      "calculateMintage(address,uint256)": {
        "params": {
          "_amount": "Amount of _token",
          "_token": "Address of token which will be deposited for this mintage"
        }
      },
      "governor()": {
        "details": "Governor is defined in VUSD token contract only"
      },
      "isMintingAllowed(address)": {
        "details": "We are using chainlink oracle to check latest price and if price is within allowed range then only minting is allowed.",
        "params": {
          "_token": "Address of any of whitelisted token"
        }
      },
      "mint(address,uint256)": {
        "params": {
          "_amount": "Amount of _token",
          "_token": "Address of token being deposited"
        }
      },
      "mint(address,uint256,address)": {
        "params": {
          "_amount": "Amount of _token",
          "_receiver": "Address of VUSD receiver",
          "_token": "Address of token being deposited"
        }
      },
      "mintAndAddLiquidity(uint256)": {
        "details": "Treasury will receive LP tokens of metapool liquidity",
        "params": {
          "_amount": "Amount of VUSD to mint"
        }
      },
      "removeWhitelistedToken(address)": {
        "params": {
          "_token": "address which we want to remove from token list."
        }
      },
      "treasury()": {
        "details": "Treasury is defined in VUSD token contract only"
      }
    },
    "title": "Minter contract which will mint VUSD 1:1, less minting fee, with DAI, USDC or USDT.",
    "version": 1
  },
  "userdoc": {
    "kind": "user",
    "methods": {
      "addWhitelistedToken(address,address,address)": {
        "notice": "Add token as whitelisted token for VUSD system"
      },
      "availableMintage()": {
        "notice": "Check available mintage based on mint limit"
      },
      "calculateMintage(address,uint256)": {
        "notice": "Calculate mintage for supported tokens."
      },
      "isMintingAllowed(address)": {
        "notice": "Check whether minting is allowed or not."
      },
      "isWhitelistedToken(address)": {
        "notice": "Returns whether given address is whitelisted or not"
      },
      "mint(address,uint256)": {
        "notice": "Mint VUSD"
      },
      "mint(address,uint256,address)": {
        "notice": "Mint VUSD"
      },
      "mintAndAddLiquidity(uint256)": {
        "notice": "Mint request amount of VUSD and use minted VUSD to add liquidity in metapool"
      },
      "removeWhitelistedToken(address)": {
        "notice": "Remove token from whitelisted tokens"
      },
      "updateMintingFee(uint256)": {
        "notice": "Update minting fee"
      },
      "updatePriceDeviationLimit(uint256)": {
        "notice": "Update price deviation limit"
      },
      "whitelistedTokens()": {
        "notice": "Return list of whitelisted tokens"
      }
    },
    "version": 1
  },
  "storageLayout": {
    "storage": [
      {
        "astId": 10,
        "contract": "contracts/Minter.sol:Minter",
        "label": "_status",
        "offset": 0,
        "slot": "0",
        "type": "t_uint256"
      },
      {
        "astId": 3057,
        "contract": "contracts/Minter.sol:Minter",
        "label": "mintingFee",
        "offset": 0,
        "slot": "1",
        "type": "t_uint256"
      },
      {
        "astId": 3080,
        "contract": "contracts/Minter.sol:Minter",
        "label": "priceDeviationLimit",
        "offset": 0,
        "slot": "2",
        "type": "t_uint256"
      },
      {
        "astId": 3082,
        "contract": "contracts/Minter.sol:Minter",
        "label": "priceUpperBound",
        "offset": 0,
        "slot": "3",
        "type": "t_uint256"
      },
      {
        "astId": 3084,
        "contract": "contracts/Minter.sol:Minter",
        "label": "priceLowerBound",
        "offset": 0,
        "slot": "4",
        "type": "t_uint256"
      },
      {
        "astId": 3088,
        "contract": "contracts/Minter.sol:Minter",
        "label": "cTokens",
        "offset": 0,
        "slot": "5",
        "type": "t_mapping(t_address,t_address)"
      },
      {
        "astId": 3092,
        "contract": "contracts/Minter.sol:Minter",
        "label": "oracles",
        "offset": 0,
        "slot": "6",
        "type": "t_mapping(t_address,t_address)"
      },
      {
        "astId": 3098,
        "contract": "contracts/Minter.sol:Minter",
        "label": "_whitelistedTokens",
        "offset": 0,
        "slot": "7",
        "type": "t_struct(AddressSet)2631_storage"
      }
    ],
    "types": {
      "t_address": {
        "encoding": "inplace",
        "label": "address",
        "numberOfBytes": "20"
      },
      "t_array(t_bytes32)dyn_storage": {
        "base": "t_bytes32",
        "encoding": "dynamic_array",
        "label": "bytes32[]",
        "numberOfBytes": "32"
      },
      "t_bytes32": {
        "encoding": "inplace",
        "label": "bytes32",
        "numberOfBytes": "32"
      },
      "t_mapping(t_address,t_address)": {
        "encoding": "mapping",
        "key": "t_address",
        "label": "mapping(address => address)",
        "numberOfBytes": "32",
        "value": "t_address"
      },
      "t_mapping(t_bytes32,t_uint256)": {
        "encoding": "mapping",
        "key": "t_bytes32",
        "label": "mapping(bytes32 => uint256)",
        "numberOfBytes": "32",
        "value": "t_uint256"
      },
      "t_struct(AddressSet)2631_storage": {
        "encoding": "inplace",
        "label": "struct EnumerableSet.AddressSet",
        "members": [
          {
            "astId": 2630,
            "contract": "contracts/Minter.sol:Minter",
            "label": "_inner",
            "offset": 0,
            "slot": "0",
            "type": "t_struct(Set)2330_storage"
          }
        ],
        "numberOfBytes": "64"
      },
      "t_struct(Set)2330_storage": {
        "encoding": "inplace",
        "label": "struct EnumerableSet.Set",
        "members": [
          {
            "astId": 2325,
            "contract": "contracts/Minter.sol:Minter",
            "label": "_values",
            "offset": 0,
            "slot": "0",
            "type": "t_array(t_bytes32)dyn_storage"
          },
          {
            "astId": 2329,
            "contract": "contracts/Minter.sol:Minter",
            "label": "_indexes",
            "offset": 0,
            "slot": "1",
            "type": "t_mapping(t_bytes32,t_uint256)"
          }
        ],
        "numberOfBytes": "64"
      },
      "t_uint256": {
        "encoding": "inplace",
        "label": "uint256",
        "numberOfBytes": "32"
      }
    }
  }
}