{
  "address": "0x8676757c305CCFE19684033B0496cD83485F2447",
  "abi": [
    {
      "inputs": [
        {
          "internalType": "address",
          "name": "_vusd",
          "type": "address"
        }
      ],
      "stateMutability": "nonpayable",
      "type": "constructor"
    },
    {
      "anonymous": false,
      "inputs": [
        {
          "indexed": false,
          "internalType": "uint256",
          "name": "previousRedeemFee",
          "type": "uint256"
        },
        {
          "indexed": false,
          "internalType": "uint256",
          "name": "newRedeemFee",
          "type": "uint256"
        }
      ],
      "name": "UpdatedRedeemFee",
      "type": "event"
    },
    {
      "inputs": [],
      "name": "MAX_REDEEM_FEE",
      "outputs": [
        {
          "internalType": "uint256",
          "name": "",
          "type": "uint256"
        }
      ],
      "stateMutability": "view",
      "type": "function"
    },
    {
      "inputs": [],
      "name": "NAME",
      "outputs": [
        {
          "internalType": "string",
          "name": "",
          "type": "string"
        }
      ],
      "stateMutability": "view",
      "type": "function"
    },
    {
      "inputs": [],
      "name": "VERSION",
      "outputs": [
        {
          "internalType": "string",
          "name": "",
          "type": "string"
        }
      ],
      "stateMutability": "view",
      "type": "function"
    },
    {
      "inputs": [],
      "name": "governor",
      "outputs": [
        {
          "internalType": "address",
          "name": "",
          "type": "address"
        }
      ],
      "stateMutability": "view",
      "type": "function"
    },
    {
      "inputs": [
        {
          "internalType": "address",
          "name": "_token",
          "type": "address"
        },
        {
          "internalType": "uint256",
          "name": "_vusdAmount",
          "type": "uint256"
        }
      ],
      "name": "redeem",
      "outputs": [],
      "stateMutability": "nonpayable",
      "type": "function"
    },
    {
      "inputs": [
        {
          "internalType": "address",
          "name": "_token",
          "type": "address"
        },
        {
          "internalType": "uint256",
          "name": "_vusdAmount",
          "type": "uint256"
        },
        {
          "internalType": "address",
          "name": "_tokenReceiver",
          "type": "address"
        }
      ],
      "name": "redeem",
      "outputs": [],
      "stateMutability": "nonpayable",
      "type": "function"
    },
    {
      "inputs": [],
      "name": "redeemFee",
      "outputs": [
        {
          "internalType": "uint256",
          "name": "",
          "type": "uint256"
        }
      ],
      "stateMutability": "view",
      "type": "function"
    },
    {
      "inputs": [
        {
          "internalType": "address",
          "name": "_token",
          "type": "address"
        }
      ],
      "name": "redeemable",
      "outputs": [
        {
          "internalType": "uint256",
          "name": "",
          "type": "uint256"
        }
      ],
      "stateMutability": "view",
      "type": "function"
    },
    {
      "inputs": [
        {
          "internalType": "address",
          "name": "_token",
          "type": "address"
        },
        {
          "internalType": "uint256",
          "name": "_vusdAmount",
          "type": "uint256"
        }
      ],
      "name": "redeemable",
      "outputs": [
        {
          "internalType": "uint256",
          "name": "",
          "type": "uint256"
        }
      ],
      "stateMutability": "view",
      "type": "function"
    },
    {
      "inputs": [],
      "name": "treasury",
      "outputs": [
        {
          "internalType": "address",
          "name": "",
          "type": "address"
        }
      ],
      "stateMutability": "view",
      "type": "function"
    },
    {
      "inputs": [
        {
          "internalType": "uint256",
          "name": "_newRedeemFee",
          "type": "uint256"
        }
      ],
      "name": "updateRedeemFee",
      "outputs": [],
      "stateMutability": "nonpayable",
      "type": "function"
    },
    {
      "inputs": [],
      "name": "vusd",
      "outputs": [
        {
          "internalType": "contract IVUSD",
          "name": "",
          "type": "address"
        }
      ],
      "stateMutability": "view",
      "type": "function"
    }
  ],
  "transactionHash": "0x187d6b21ce78620051a6282f2ac8f39f28413d96c2d9f156cc63f844f552f919",
  "args": [
    "0x677ddbd918637E5F2c79e164D402454dE7dA8619"
  ],
  "solcInputHash": "40a5527d248d03a112545ff125be1878",
  "bytecode": "0x60a0604052601e6001553480156200001657600080fd5b50604051620017f2380380620017f283398181016040528101906200003c91906200010c565b6001600081905550600073ffffffffffffffffffffffffffffffffffffffff168173ffffffffffffffffffffffffffffffffffffffff161415620000b7576040517f08c379a0000000000000000000000000000000000000000000000000000000008152600401620000ae906200015f565b60405180910390fd5b8073ffffffffffffffffffffffffffffffffffffffff1660808173ffffffffffffffffffffffffffffffffffffffff1660601b815250505062000209565b6000815190506200010681620001ef565b92915050565b6000602082840312156200011f57600080fd5b60006200012f84828501620000f5565b91505092915050565b60006200014760148362000181565b91506200015482620001c6565b602082019050919050565b600060208201905081810360008301526200017a8162000138565b9050919050565b600082825260208201905092915050565b60006200019f82620001a6565b9050919050565b600073ffffffffffffffffffffffffffffffffffffffff82169050919050565b7f767573642d616464726573732d69732d7a65726f000000000000000000000000600082015250565b620001fa8162000192565b81146200020657600080fd5b50565b60805160601c6115b56200023d60003960008181610243015281816104590152818161061101526107cf01526115b56000f3fe608060405234801561001057600080fd5b50600436106100b45760003560e01c806367627b621161007157806367627b621461017b578063965fa21e146101ab578063a3f4df7e146101c9578063edac5203146101e7578063fb00d51414610205578063ffa1ad7414610221576100b4565b80630c340a24146100b95780631e9a6950146100d757806326ac1d56146100f3578063484267a4146101115780635c833bfd1461014157806361d027b31461015d575b600080fd5b6100c161023f565b6040516100ce9190610f0d565b60405180910390f35b6100f160048036038101906100ec9190610c75565b6102e4565b005b6100fb610350565b6040516101089190611045565b60405180910390f35b61012b60048036038101906101269190610c23565b610356565b6040516101389190611045565b60405180910390f35b61015b60048036038101906101569190610cb1565b6103ef565b005b610165610455565b6040516101729190610f0d565b60405180910390f35b61019560048036038101906101909190610c75565b6104fa565b6040516101a29190611045565b60405180910390f35b6101b36105d0565b6040516101c09190611045565b60405180910390f35b6101d16105d6565b6040516101de9190610fa3565b60405180910390f35b6101ef61060f565b6040516101fc9190610f88565b60405180910390f35b61021f600480360381019061021a9190610d29565b610633565b005b61022961077e565b6040516102369190610fa3565b60405180910390f35b60007f000000000000000000000000000000000000000000000000000000000000000073ffffffffffffffffffffffffffffffffffffffff16630c340a246040518163ffffffff1660e01b815260040160206040518083038186803b1580156102a757600080fd5b505afa1580156102bb573d6000803e3d6000fd5b505050506040513d601f19601f820116820180604052508101906102df9190610c4c565b905090565b6002600054141561032a576040517f08c379a000000000000000000000000000000000000000000000000000000000815260040161032190611005565b60405180910390fd5b6002600081905550610344828261033f6107b7565b6107bf565b60016000819055505050565b61271081565b6000610360610455565b73ffffffffffffffffffffffffffffffffffffffff1663ce513b6f836040518263ffffffff1660e01b81526004016103989190610f0d565b60206040518083038186803b1580156103b057600080fd5b505afa1580156103c4573d6000803e3d6000fd5b505050506040513d601f19601f820116820180604052508101906103e89190610d52565b9050919050565b60026000541415610435576040517f08c379a000000000000000000000000000000000000000000000000000000000815260040161042c90611005565b60405180910390fd5b60026000819055506104488383836107bf565b6001600081905550505050565b60007f000000000000000000000000000000000000000000000000000000000000000073ffffffffffffffffffffffffffffffffffffffff166361d027b36040518163ffffffff1660e01b815260040160206040518083038186803b1580156104bd57600080fd5b505afa1580156104d1573d6000803e3d6000fd5b505050506040513d601f19601f820116820180604052508101906104f59190610c4c565b905090565b600080610505610455565b90508073ffffffffffffffffffffffffffffffffffffffff1663ab37f486856040518263ffffffff1660e01b81526004016105409190610f0d565b60206040518083038186803b15801561055857600080fd5b505afa15801561056c573d6000803e3d6000fd5b505050506040513d601f19601f820116820180604052508101906105909190610d00565b156105c45760006105a185856108dd565b90506105ac85610356565b81116105b857806105bb565b60005b925050506105ca565b60009150505b92915050565b60015481565b6040518060400160405280600d81526020017f565553442d52656465656d65720000000000000000000000000000000000000081525081565b7f000000000000000000000000000000000000000000000000000000000000000081565b61063b61023f565b73ffffffffffffffffffffffffffffffffffffffff166106596107b7565b73ffffffffffffffffffffffffffffffffffffffff16146106af576040517f08c379a00000000000000000000000000000000000000000000000000000000081526004016106a690610fc5565b60405180910390fd5b6127108111156106f4576040517f08c379a00000000000000000000000000000000000000000000000000000000081526004016106eb90611025565b60405180910390fd5b806001541415610739576040517f08c379a000000000000000000000000000000000000000000000000000000000815260040161073090610fe5565b60405180910390fd5b7f78f68725a1b1a56a998dd7a8d279eb9bfbd45bc0fcee78f408200737275873e56001548260405161076c929190611060565b60405180910390a18060018190555050565b6040518060400160405280600581526020017f312e332e3000000000000000000000000000000000000000000000000000000081525081565b600033905090565b60006107cb84846108dd565b90507f000000000000000000000000000000000000000000000000000000000000000073ffffffffffffffffffffffffffffffffffffffff166379cc67906108116107b7565b856040518363ffffffff1660e01b815260040161082f929190610f28565b600060405180830381600087803b15801561084957600080fd5b505af115801561085d573d6000803e3d6000fd5b50505050610869610455565b73ffffffffffffffffffffffffffffffffffffffff166369328dec8583856040518463ffffffff1660e01b81526004016108a593929190610f51565b600060405180830381600087803b1580156108bf57600080fd5b505af11580156108d3573d6000803e3d6000fd5b5050505050505050565b6000806108e8610455565b73ffffffffffffffffffffffffffffffffffffffff1663addd5099856040518263ffffffff1660e01b81526004016109209190610f0d565b60206040518083038186803b15801561093857600080fd5b505afa15801561094c573d6000803e3d6000fd5b505050506040513d601f19601f820116820180604052508101906109709190610c4c565b905060008173ffffffffffffffffffffffffffffffffffffffff1663feaf968c6040518163ffffffff1660e01b815260040160a06040518083038186803b1580156109ba57600080fd5b505afa1580156109ce573d6000803e3d6000fd5b505050506040513d601f19601f820116820180604052508101906109f29190610d7b565b50505091505060008273ffffffffffffffffffffffffffffffffffffffff1663313ce5676040518163ffffffff1660e01b815260040160206040518083038186803b158015610a4057600080fd5b505afa158015610a54573d6000803e3d6000fd5b505050506040513d601f19601f82011682018060405250810190610a789190610df2565b600a610a849190611129565b8286610a909190611247565b610a9a91906110a5565b9050600060015414610acf5761271060015482610ab79190611247565b610ac191906110a5565b81610acc91906112a1565b90505b8573ffffffffffffffffffffffffffffffffffffffff1663313ce5676040518163ffffffff1660e01b815260040160206040518083038186803b158015610b1557600080fd5b505afa158015610b29573d6000803e3d6000fd5b505050506040513d601f19601f82011682018060405250810190610b4d9190610df2565b6012610b5991906112d5565b600a610b659190611129565b81610b7091906110a5565b935050505092915050565b600081359050610b8a816114f5565b92915050565b600081519050610b9f816114f5565b92915050565b600081519050610bb48161150c565b92915050565b600081519050610bc981611523565b92915050565b600081359050610bde8161153a565b92915050565b600081519050610bf38161153a565b92915050565b600081519050610c0881611568565b92915050565b600081519050610c1d81611551565b92915050565b600060208284031215610c3557600080fd5b6000610c4384828501610b7b565b91505092915050565b600060208284031215610c5e57600080fd5b6000610c6c84828501610b90565b91505092915050565b60008060408385031215610c8857600080fd5b6000610c9685828601610b7b565b9250506020610ca785828601610bcf565b9150509250929050565b600080600060608486031215610cc657600080fd5b6000610cd486828701610b7b565b9350506020610ce586828701610bcf565b9250506040610cf686828701610b7b565b9150509250925092565b600060208284031215610d1257600080fd5b6000610d2084828501610ba5565b91505092915050565b600060208284031215610d3b57600080fd5b6000610d4984828501610bcf565b91505092915050565b600060208284031215610d6457600080fd5b6000610d7284828501610be4565b91505092915050565b600080600080600060a08688031215610d9357600080fd5b6000610da188828901610bf9565b9550506020610db288828901610bba565b9450506040610dc388828901610be4565b9350506060610dd488828901610be4565b9250506080610de588828901610bf9565b9150509295509295909350565b600060208284031215610e0457600080fd5b6000610e1284828501610c0e565b91505092915050565b610e2481611309565b82525050565b610e338161137e565b82525050565b6000610e4482611089565b610e4e8185611094565b9350610e5e8185602086016113a2565b610e6781611433565b840191505092915050565b6000610e7f601a83611094565b9150610e8a82611451565b602082019050919050565b6000610ea2600f83611094565b9150610ead8261147a565b602082019050919050565b6000610ec5601f83611094565b9150610ed0826114a3565b602082019050919050565b6000610ee8601883611094565b9150610ef3826114cc565b602082019050919050565b610f0781611351565b82525050565b6000602082019050610f226000830184610e1b565b92915050565b6000604082019050610f3d6000830185610e1b565b610f4a6020830184610efe565b9392505050565b6000606082019050610f666000830186610e1b565b610f736020830185610efe565b610f806040830184610e1b565b949350505050565b6000602082019050610f9d6000830184610e2a565b92915050565b60006020820190508181036000830152610fbd8184610e39565b905092915050565b60006020820190508181036000830152610fde81610e72565b9050919050565b60006020820190508181036000830152610ffe81610e95565b9050919050565b6000602082019050818103600083015261101e81610eb8565b9050919050565b6000602082019050818103600083015261103e81610edb565b9050919050565b600060208201905061105a6000830184610efe565b92915050565b60006040820190506110756000830185610efe565b6110826020830184610efe565b9392505050565b600081519050919050565b600082825260208201905092915050565b60006110b082611351565b91506110bb83611351565b9250826110cb576110ca611404565b5b828204905092915050565b6000808291508390505b6001851115611120578086048111156110fc576110fb6113d5565b5b600185161561110b5780820291505b808102905061111985611444565b94506110e0565b94509492505050565b600061113482611351565b915061113f8361135b565b925061116c7fffffffffffffffffffffffffffffffffffffffffffffffffffffffffffffffff8484611174565b905092915050565b6000826111845760019050611240565b816111925760009050611240565b81600181146111a857600281146111b2576111e1565b6001915050611240565b60ff8411156111c4576111c36113d5565b5b8360020a9150848211156111db576111da6113d5565b5b50611240565b5060208310610133831016604e8410600b84101617156112165782820a905083811115611211576112106113d5565b5b611240565b61122384848460016110d6565b9250905081840481111561123a576112396113d5565b5b81810290505b9392505050565b600061125282611351565b915061125d83611351565b9250817fffffffffffffffffffffffffffffffffffffffffffffffffffffffffffffffff0483118215151615611296576112956113d5565b5b828202905092915050565b60006112ac82611351565b91506112b783611351565b9250828210156112ca576112c96113d5565b5b828203905092915050565b60006112e08261135b565b91506112eb8361135b565b9250828210156112fe576112fd6113d5565b5b828203905092915050565b600061131482611331565b9050919050565b60008115159050919050565b6000819050919050565b600073ffffffffffffffffffffffffffffffffffffffff82169050919050565b6000819050919050565b600060ff82169050919050565b600069ffffffffffffffffffff82169050919050565b600061138982611390565b9050919050565b600061139b82611331565b9050919050565b60005b838110156113c05780820151818401526020810190506113a5565b838111156113cf576000848401525b50505050565b7f4e487b7100000000000000000000000000000000000000000000000000000000600052601160045260246000fd5b7f4e487b7100000000000000000000000000000000000000000000000000000000600052601260045260246000fd5b6000601f19601f8301169050919050565b60008160011c9050919050565b7f63616c6c65722d69732d6e6f742d7468652d676f7665726e6f72000000000000600082015250565b7f73616d652d72656465656d2d6665650000000000000000000000000000000000600082015250565b7f5265656e7472616e637947756172643a207265656e7472616e742063616c6c00600082015250565b7f72656465656d2d6665652d6c696d69742d726561636865640000000000000000600082015250565b6114fe81611309565b811461150957600080fd5b50565b6115158161131b565b811461152057600080fd5b50565b61152c81611327565b811461153757600080fd5b50565b61154381611351565b811461154e57600080fd5b50565b61155a8161135b565b811461156557600080fd5b50565b61157181611368565b811461157c57600080fd5b5056fea2646970667358221220e4c91ad08ccc472b5ecf88b5c8f2af60334b030a94ab22a7c48b3db02b53cfa464736f6c63430008030033",
  "devdoc": {
    "kind": "dev",
    "methods": {
      "governor()": {
        "details": "Governor is defined in VUSD token contract only"
      },
      "redeem(address,uint256)": {
        "params": {
          "_token": "Token to redeem, it should be 1 of the supported tokens from treasury.",
          "_vusdAmount": "VUSD amount to burn"
        }
      },
      "redeem(address,uint256,address)": {
        "params": {
          "_token": "Token to redeem, it should be 1 of the supported tokens from treasury.",
          "_tokenReceiver": "Address of token receiver",
          "_vusdAmount": "VUSD amount to burn. VUSD will be burnt from caller"
        }
      },
      "redeemable(address)": {
        "details": "Current redeemable amount for given token"
      },
      "redeemable(address,uint256)": {
        "params": {
          "_token": "Token to redeem",
          "_vusdAmount": "VUSD amount to burn"
        }
      },
      "treasury()": {
        "details": "Treasury is defined in VUSD token contract only"
      }
    },
    "title": "VUSD Redeemer, User can redeem their VUSD with any supported tokens",
    "version": 1
  },
  "userdoc": {
    "kind": "user",
    "methods": {
      "redeem(address,uint256)": {
        "notice": "Redeem token and burn VUSD amount less redeem fee, if any."
      },
      "redeem(address,uint256,address)": {
        "notice": "Redeem token and burn VUSD amount less redeem fee, if any."
      },
      "redeemable(address,uint256)": {
        "notice": "Current redeemable amount for given token and vusdAmount. If token is not supported by treasury it will return 0. If vusdAmount is higher than current total redeemable of token it will return 0."
      },
      "updateRedeemFee(uint256)": {
        "notice": "Update redeem fee"
      }
    },
    "version": 1
  },
  "storageLayout": {
    "storage": [
      {
        "astId": 10,
        "contract": "contracts/Redeemer.sol:Redeemer",
        "label": "_status",
        "offset": 0,
        "slot": "0",
        "type": "t_uint256"
      },
      {
        "astId": 3835,
        "contract": "contracts/Redeemer.sol:Redeemer",
        "label": "redeemFee",
        "offset": 0,
        "slot": "1",
        "type": "t_uint256"
      }
    ],
    "types": {
      "t_uint256": {
        "encoding": "inplace",
        "label": "uint256",
        "numberOfBytes": "32"
      }
    }
  }
}