{
  "address": "0x9dfC7054B78E6f48f2D8e064B95B4251fc2E9692",
  "abi": [
    {
      "inputs": [
        {
          "internalType": "address",
          "name": "_vusd",
          "type": "address"
        }
      ],
      "stateMutability": "nonpayable",
      "type": "constructor"
    },
    {
      "anonymous": false,
      "inputs": [
        {
          "indexed": true,
          "internalType": "address",
          "name": "previousRedeemer",
          "type": "address"
        },
        {
          "indexed": true,
          "internalType": "address",
          "name": "newRedeemer",
          "type": "address"
        }
      ],
      "name": "UpdatedRedeemer",
      "type": "event"
    },
    {
      "anonymous": false,
      "inputs": [
        {
          "indexed": true,
          "internalType": "address",
          "name": "previousSwapManager",
          "type": "address"
        },
        {
          "indexed": true,
          "internalType": "address",
          "name": "newSwapManager",
          "type": "address"
        }
      ],
      "name": "UpdatedSwapManager",
      "type": "event"
    },
    {
      "inputs": [],
      "name": "NAME",
      "outputs": [
        {
          "internalType": "string",
          "name": "",
          "type": "string"
        }
      ],
      "stateMutability": "view",
      "type": "function"
    },
    {
      "inputs": [],
      "name": "VERSION",
      "outputs": [
        {
          "internalType": "string",
          "name": "",
          "type": "string"
        }
      ],
      "stateMutability": "view",
      "type": "function"
    },
    {
      "inputs": [
        {
          "internalType": "address",
          "name": "_keeperAddress",
          "type": "address"
        }
      ],
      "name": "addKeeper",
      "outputs": [],
      "stateMutability": "nonpayable",
      "type": "function"
    },
    {
      "inputs": [
        {
          "internalType": "address",
          "name": "_token",
          "type": "address"
        },
        {
          "internalType": "address",
          "name": "_cToken",
          "type": "address"
        }
      ],
      "name": "addWhitelistedToken",
      "outputs": [],
      "stateMutability": "nonpayable",
      "type": "function"
    },
    {
      "inputs": [],
      "name": "cTokenList",
      "outputs": [
        {
          "internalType": "contract IAddressList",
          "name": "",
          "type": "address"
        }
      ],
      "stateMutability": "view",
      "type": "function"
    },
    {
      "inputs": [
        {
          "internalType": "address",
          "name": "",
          "type": "address"
        }
      ],
      "name": "cTokens",
      "outputs": [
        {
          "internalType": "address",
          "name": "",
          "type": "address"
        }
      ],
      "stateMutability": "view",
      "type": "function"
    },
    {
      "inputs": [
        {
          "internalType": "address",
          "name": "_toToken",
          "type": "address"
        },
        {
          "internalType": "uint256",
          "name": "_minOut",
          "type": "uint256"
        }
      ],
      "name": "claimCompAndConvertTo",
      "outputs": [],
      "stateMutability": "nonpayable",
      "type": "function"
    },
    {
      "inputs": [],
      "name": "governor",
      "outputs": [
        {
          "internalType": "address",
          "name": "",
          "type": "address"
        }
      ],
      "stateMutability": "view",
      "type": "function"
    },
    {
      "inputs": [],
      "name": "keepers",
      "outputs": [
        {
          "internalType": "contract IAddressList",
          "name": "",
          "type": "address"
        }
      ],
      "stateMutability": "view",
      "type": "function"
    },
    {
      "inputs": [
        {
          "internalType": "address",
          "name": "_newTreasury",
          "type": "address"
        }
      ],
      "name": "migrate",
      "outputs": [],
      "stateMutability": "nonpayable",
      "type": "function"
    },
    {
      "inputs": [],
      "name": "redeemer",
      "outputs": [
        {
          "internalType": "address",
          "name": "",
          "type": "address"
        }
      ],
      "stateMutability": "view",
      "type": "function"
    },
    {
      "inputs": [
        {
          "internalType": "address",
          "name": "_keeperAddress",
          "type": "address"
        }
      ],
      "name": "removeKeeper",
      "outputs": [],
      "stateMutability": "nonpayable",
      "type": "function"
    },
    {
      "inputs": [
        {
          "internalType": "address",
          "name": "_token",
          "type": "address"
        }
      ],
      "name": "removeWhitelistedToken",
      "outputs": [],
      "stateMutability": "nonpayable",
      "type": "function"
    },
    {
      "inputs": [],
      "name": "swapManager",
      "outputs": [
        {
          "internalType": "contract ISwapManager",
          "name": "",
          "type": "address"
        }
      ],
      "stateMutability": "view",
      "type": "function"
    },
    {
      "inputs": [
        {
          "internalType": "address",
          "name": "_fromToken",
          "type": "address"
        }
      ],
      "name": "sweep",
      "outputs": [],
      "stateMutability": "nonpayable",
      "type": "function"
    },
    {
      "inputs": [
        {
          "internalType": "address",
          "name": "_newRedeemer",
          "type": "address"
        }
      ],
      "name": "updateRedeemer",
      "outputs": [],
      "stateMutability": "nonpayable",
      "type": "function"
    },
    {
      "inputs": [
        {
          "internalType": "address",
          "name": "_newSwapManager",
          "type": "address"
        }
      ],
      "name": "updateSwapManager",
      "outputs": [],
      "stateMutability": "nonpayable",
      "type": "function"
    },
    {
      "inputs": [],
      "name": "vusd",
      "outputs": [
        {
          "internalType": "contract IVUSD",
          "name": "",
          "type": "address"
        }
      ],
      "stateMutability": "view",
      "type": "function"
    },
    {
      "inputs": [],
      "name": "whitelistedTokens",
      "outputs": [
        {
          "internalType": "contract IAddressList",
          "name": "",
          "type": "address"
        }
      ],
      "stateMutability": "view",
      "type": "function"
    },
    {
      "inputs": [
        {
          "internalType": "address",
          "name": "_token",
          "type": "address"
        },
        {
          "internalType": "uint256",
          "name": "_amount",
          "type": "uint256"
        },
        {
          "internalType": "address",
          "name": "_tokenReceiver",
          "type": "address"
        }
      ],
      "name": "withdraw",
      "outputs": [],
      "stateMutability": "nonpayable",
      "type": "function"
    },
    {
      "inputs": [
        {
          "internalType": "address",
          "name": "_token",
          "type": "address"
        },
        {
          "internalType": "uint256",
          "name": "_amount",
          "type": "uint256"
        }
      ],
      "name": "withdraw",
      "outputs": [],
      "stateMutability": "nonpayable",
      "type": "function"
    },
    {
      "inputs": [
        {
          "internalType": "address[]",
          "name": "_tokens",
          "type": "address[]"
        }
      ],
      "name": "withdrawAll",
      "outputs": [],
      "stateMutability": "nonpayable",
      "type": "function"
    },
    {
      "inputs": [
        {
          "internalType": "address[]",
          "name": "_tokens",
          "type": "address[]"
        },
        {
          "internalType": "uint256[]",
          "name": "_amounts",
          "type": "uint256[]"
        }
      ],
      "name": "withdrawMulti",
      "outputs": [],
      "stateMutability": "nonpayable",
      "type": "function"
    },
    {
      "inputs": [
        {
          "internalType": "address",
          "name": "_token",
          "type": "address"
        }
      ],
      "name": "withdrawable",
      "outputs": [
        {
          "internalType": "uint256",
          "name": "",
          "type": "uint256"
        }
      ],
      "stateMutability": "view",
      "type": "function"
    }
  ],
  "transactionHash": "0xf1e02118f31a0f8f9128034ae95f29e13835bf971912e807edd8d08f0d2c992d",
  "args": [
    "0x677ddbd918637E5F2c79e164D402454dE7dA8619"
  ],
  "solcInputHash": "39c191a09ff8c148e0d92695bc150374",
  "bytecode": "0x61010060405273c48ea9a2daa4d816e4c9333d6689c70070010174600260006101000a81548173ffffffffffffffffffffffffffffffffffffffff021916908373ffffffffffffffffffffffffffffffffffffffff1602179055503480156200006757600080fd5b50604051620067543803806200675483398181016040528101906200008d919062000dda565b6001600081905550600073ffffffffffffffffffffffffffffffffffffffff168173ffffffffffffffffffffffffffffffffffffffff16141562000108576040517f08c379a0000000000000000000000000000000000000000000000000000000008152600401620000ff90620010c2565b60405180910390fd5b8073ffffffffffffffffffffffffffffffffffffffff1660e08173ffffffffffffffffffffffffffffffffffffffff1660601b81525050600073ded8217de022706a191ee7ee0dc9df1185fb5da3905060008173ffffffffffffffffffffffffffffffffffffffff16630fab4d256040518163ffffffff1660e01b8152600401602060405180830381600087803b158015620001a357600080fd5b505af1158015620001b8573d6000803e3d6000fd5b505050506040513d601f19601f82011682018060405250810190620001de919062000dda565b905060008273ffffffffffffffffffffffffffffffffffffffff16630fab4d256040518163ffffffff1660e01b8152600401602060405180830381600087803b1580156200022b57600080fd5b505af115801562000240573d6000803e3d6000fd5b505050506040513d601f19601f8201168201806040525081019062000266919062000dda565b905060008373ffffffffffffffffffffffffffffffffffffffff16630fab4d256040518163ffffffff1660e01b8152600401602060405180830381600087803b158015620002b357600080fd5b505af1158015620002c8573d6000803e3d6000fd5b505050506040513d601f19601f82011682018060405250810190620002ee919062000dda565b90508073ffffffffffffffffffffffffffffffffffffffff16630a3b0a4f6200031c6200054960201b60201c565b6040518263ffffffff1660e01b81526004016200033a919062001027565b602060405180830381600087803b1580156200035557600080fd5b505af11580156200036a573d6000803e3d6000fd5b505050506040513d601f19601f8201168201806040525081019062000390919062000e06565b50620003cd83736b175474e89094c44da98b954eedeac495271d0f84735d3a536e4d6dbd6114cc1ead35777bab948e36436200055160201b60201c565b620004098373a0b86991c6218b36c1d19d4a2e9eb0ce3606eb48847339aa39c021dfbae8fac545936693ac917d5e75636200055160201b60201c565b620004458373dac17f958d2ee523a2206206994597c13d831ec78473f650c3d88d12db855b8bf7d11be6c55a4e07dcc96200055160201b60201c565b8273ffffffffffffffffffffffffffffffffffffffff1660808173ffffffffffffffffffffffffffffffffffffffff1660601b815250508173ffffffffffffffffffffffffffffffffffffffff1660a08173ffffffffffffffffffffffffffffffffffffffff1660601b815250508073ffffffffffffffffffffffffffffffffffffffff1660c08173ffffffffffffffffffffffffffffffffffffffff1660601b815250506200053e600260009054906101000a900473ffffffffffffffffffffffffffffffffffffffff167fffffffffffffffffffffffffffffffffffffffffffffffffffffffffffffffff620007cd60201b60201c565b5050505050620014cf565b600033905090565b8373ffffffffffffffffffffffffffffffffffffffff16630a3b0a4f846040518263ffffffff1660e01b81526004016200058c919062001027565b602060405180830381600087803b158015620005a757600080fd5b505af1158015620005bc573d6000803e3d6000fd5b505050506040513d601f19601f82011682018060405250810190620005e2919062000e06565b62000624576040517f08c379a00000000000000000000000000000000000000000000000000000000081526004016200061b9062001106565b60405180910390fd5b8173ffffffffffffffffffffffffffffffffffffffff16630a3b0a4f826040518263ffffffff1660e01b81526004016200065f919062001027565b602060405180830381600087803b1580156200067a57600080fd5b505af11580156200068f573d6000803e3d6000fd5b505050506040513d601f19601f82011682018060405250810190620006b5919062000e06565b620006f7576040517f08c379a0000000000000000000000000000000000000000000000000000000008152600401620006ee9062001106565b60405180910390fd5b80600360008573ffffffffffffffffffffffffffffffffffffffff1673ffffffffffffffffffffffffffffffffffffffff16815260200190815260200160002060006101000a81548173ffffffffffffffffffffffffffffffffffffffff021916908373ffffffffffffffffffffffffffffffffffffffff160217905550620007c7817fffffffffffffffffffffffffffffffffffffffffffffffffffffffffffffffff8573ffffffffffffffffffffffffffffffffffffffff166200096b60201b62002eb0179092919060201c565b50505050565b60005b8273ffffffffffffffffffffffffffffffffffffffff1663c2fba6676040518163ffffffff1660e01b815260040160206040518083038186803b1580156200081757600080fd5b505afa1580156200082c573d6000803e3d6000fd5b505050506040513d601f19601f8201168201806040525081019062000852919062000e5e565b811015620009665762000950600260009054906101000a900473ffffffffffffffffffffffffffffffffffffffff1673ffffffffffffffffffffffffffffffffffffffff16636e74a6f7836040518263ffffffff1660e01b8152600401620008bb91906200118e565b60206040518083038186803b158015620008d457600080fd5b505afa158015620008e9573d6000803e3d6000fd5b505050506040513d601f19601f820116820180604052508101906200090f919062000e32565b8373c00e94cb662c3520282e6f5717214004a7f2688873ffffffffffffffffffffffffffffffffffffffff166200096b60201b62002eb0179092919060201c565b80806200095d9062001271565b915050620007d0565b505050565b600081148062000a0b575060008373ffffffffffffffffffffffffffffffffffffffff1663dd62ed3e30856040518363ffffffff1660e01b8152600401620009b592919062001044565b60206040518083038186803b158015620009ce57600080fd5b505afa158015620009e3573d6000803e3d6000fd5b505050506040513d601f19601f8201168201806040525081019062000a09919062000e5e565b145b62000a4d576040517f08c379a000000000000000000000000000000000000000000000000000000000815260040162000a44906200116c565b60405180910390fd5b62000ad88363095ea7b360e01b848460405160240162000a6f92919062001071565b604051602081830303815290604052907bffffffffffffffffffffffffffffffffffffffffffffffffffffffff19166020820180517bffffffffffffffffffffffffffffffffffffffffffffffffffffffff838183161783525050505062000add60201b60201c565b505050565b600062000b46826040518060400160405280602081526020017f5361666545524332303a206c6f772d6c6576656c2063616c6c206661696c65648152508573ffffffffffffffffffffffffffffffffffffffff1662000bb160201b6200300e179092919060201c565b905060008151111562000bac578080602001905181019062000b69919062000e06565b62000bab576040517f08c379a000000000000000000000000000000000000000000000000000000000815260040162000ba2906200114a565b60405180910390fd5b5b505050565b606062000bc8848460008562000bd160201b60201c565b90509392505050565b60608247101562000c19576040517f08c379a000000000000000000000000000000000000000000000000000000000815260040162000c1090620010e4565b60405180910390fd5b62000c2a8562000cff60201b60201c565b62000c6c576040517f08c379a000000000000000000000000000000000000000000000000000000000815260040162000c639062001128565b60405180910390fd5b6000808673ffffffffffffffffffffffffffffffffffffffff16858760405162000c9791906200100e565b60006040518083038185875af1925050503d806000811462000cd6576040519150601f19603f3d011682016040523d82523d6000602084013e62000cdb565b606091505b509150915062000cf382828662000d1260201b60201c565b92505050949350505050565b600080823b905060008111915050919050565b6060831562000d245782905062000d77565b60008351111562000d385782518084602001fd5b816040517f08c379a000000000000000000000000000000000000000000000000000000000815260040162000d6e91906200109e565b60405180910390fd5b9392505050565b60008151905062000d8f8162001467565b92915050565b60008151905062000da68162001481565b92915050565b60008151905062000dbd816200149b565b92915050565b60008151905062000dd481620014b5565b92915050565b60006020828403121562000ded57600080fd5b600062000dfd8482850162000d7e565b91505092915050565b60006020828403121562000e1957600080fd5b600062000e298482850162000d95565b91505092915050565b60006020828403121562000e4557600080fd5b600062000e558482850162000dac565b91505092915050565b60006020828403121562000e7157600080fd5b600062000e818482850162000dc3565b91505092915050565b62000e9581620011dd565b82525050565b600062000ea882620011ab565b62000eb48185620011c1565b935062000ec68185602086016200123b565b80840191505092915050565b600062000edf82620011b6565b62000eeb8185620011cc565b935062000efd8185602086016200123b565b62000f0881620012ee565b840191505092915050565b600062000f22601483620011cc565b915062000f2f82620012ff565b602082019050919050565b600062000f49602683620011cc565b915062000f568262001328565b604082019050919050565b600062000f70601283620011cc565b915062000f7d8262001377565b602082019050919050565b600062000f97601d83620011cc565b915062000fa482620013a0565b602082019050919050565b600062000fbe602a83620011cc565b915062000fcb82620013c9565b604082019050919050565b600062000fe5603683620011cc565b915062000ff28262001418565b604082019050919050565b620010088162001231565b82525050565b60006200101c828462000e9b565b915081905092915050565b60006020820190506200103e600083018462000e8a565b92915050565b60006040820190506200105b600083018562000e8a565b6200106a602083018462000e8a565b9392505050565b600060408201905062001088600083018562000e8a565b62001097602083018462000ffd565b9392505050565b60006020820190508181036000830152620010ba818462000ed2565b905092915050565b60006020820190508181036000830152620010dd8162000f13565b9050919050565b60006020820190508181036000830152620010ff8162000f3a565b9050919050565b60006020820190508181036000830152620011218162000f61565b9050919050565b60006020820190508181036000830152620011438162000f88565b9050919050565b60006020820190508181036000830152620011658162000faf565b9050919050565b60006020820190508181036000830152620011878162000fd6565b9050919050565b6000602082019050620011a5600083018462000ffd565b92915050565b600081519050919050565b600081519050919050565b600081905092915050565b600082825260208201905092915050565b6000620011ea8262001211565b9050919050565b60008115159050919050565b60006200120a82620011dd565b9050919050565b600073ffffffffffffffffffffffffffffffffffffffff82169050919050565b6000819050919050565b60005b838110156200125b5780820151818401526020810190506200123e565b838111156200126b576000848401525b50505050565b60006200127e8262001231565b91507fffffffffffffffffffffffffffffffffffffffffffffffffffffffffffffffff821415620012b457620012b3620012bf565b5b600182019050919050565b7f4e487b7100000000000000000000000000000000000000000000000000000000600052601160045260246000fd5b6000601f19601f8301169050919050565b7f767573642d616464726573732d69732d7a65726f000000000000000000000000600082015250565b7f416464726573733a20696e73756666696369656e742062616c616e636520666f60008201527f722063616c6c0000000000000000000000000000000000000000000000000000602082015250565b7f6164642d696e2d6c6973742d6661696c65640000000000000000000000000000600082015250565b7f416464726573733a2063616c6c20746f206e6f6e2d636f6e7472616374000000600082015250565b7f5361666545524332303a204552433230206f7065726174696f6e20646964206e60008201527f6f74207375636365656400000000000000000000000000000000000000000000602082015250565b7f5361666545524332303a20617070726f76652066726f6d206e6f6e2d7a65726f60008201527f20746f206e6f6e2d7a65726f20616c6c6f77616e636500000000000000000000602082015250565b6200147281620011dd565b81146200147e57600080fd5b50565b6200148c81620011f1565b81146200149857600080fd5b50565b620014a681620011fd565b8114620014b257600080fd5b50565b620014c08162001231565b8114620014cc57600080fd5b50565b60805160601c60a05160601c60c05160601c60e05160601c6151c86200158c6000396000818161080f01528181612a710152612d0e01526000818161092e01528181610ecc015281816113cb01526126660152600081816104b5015281816107e201528181610b81015281816115a5015281816116c6015281816123ac01528181612aea0152612b970152600081816107c001528181610a97015281816114bb01528181611cf601528181611df0015261331901526151c86000f3fe608060405234801561001057600080fd5b50600436106101585760003560e01c806369328dec116100c3578063a3f4df7e1161007c578063a3f4df7e14610375578063ce513b6f14610393578063ce5494bb146103c3578063edac5203146103df578063f3fef3a3146103fd578063ffa1ad741461041957610158565b806369328dec146102b35780636a95385f146102cf578063709d039d146102ed5780637d138e131461030b5780638c0b09d014610327578063951dc22c1461035757610158565b80634032b72b116101155780634032b72b1461020957806342841531146102255780634c36fad71461024157806356f0693e1461025d5780635e1762a0146102795780636568a2791461029757610158565b806301681a621461015d57806301ac8559146101795780630c340a241461019557806314ae9f2e146101b35780631c88705d146101cf5780632ba29d38146101eb575b600080fd5b61017760048036038101906101729190613c0f565b610437565b005b610193600480360381019061018e9190613c61565b61065f565b005b61019d61080b565b6040516101aa91906143ff565b60405180910390f35b6101cd60048036038101906101c89190613c0f565b6108b0565b005b6101e960048036038101906101e49190613c0f565b610a19565b005b6101f3610db8565b60405161020091906143ff565b60405180910390f35b610223600480360381019061021e9190613c0f565b610dde565b005b61023f600480360381019061023a9190613da5565b610fb7565b005b61025b60048036038101906102569190613c0f565b611183565b005b61027760048036038101906102729190613c9d565b611386565b005b610281611cf4565b60405161028e91906144d3565b60405180910390f35b6102b160048036038101906102ac9190613d64565b611d18565b005b6102cd60048036038101906102c89190613d15565b612269565b005b6102d76123aa565b6040516102e491906144d3565b60405180910390f35b6102f56123ce565b60405161030291906144ee565b60405180910390f35b61032560048036038101906103209190613c0f565b6123f4565b005b610341600480360381019061033c9190613c0f565b612631565b60405161034e91906143ff565b60405180910390f35b61035f612664565b60405161036c91906144d3565b60405180910390f35b61037d612688565b60405161038a9190614524565b60405180910390f35b6103ad60048036038101906103a89190613c0f565b6126c1565b6040516103ba9190614866565b60405180910390f35b6103dd60048036038101906103d89190613c0f565b6128ef565b005b6103e7612d0c565b6040516103f49190614509565b60405180910390f35b61041760048036038101906104129190613c9d565b612d30565b005b610421612e77565b60405161042e9190614524565b60405180910390f35b61043f61080b565b73ffffffffffffffffffffffffffffffffffffffff1661045d613026565b73ffffffffffffffffffffffffffffffffffffffff16146104b3576040517f08c379a00000000000000000000000000000000000000000000000000000000081526004016104aa90614646565b60405180910390fd5b7f000000000000000000000000000000000000000000000000000000000000000073ffffffffffffffffffffffffffffffffffffffff16635dbe47e8826040518263ffffffff1660e01b815260040161050c91906143ff565b60206040518083038186803b15801561052457600080fd5b505afa158015610538573d6000803e3d6000fd5b505050506040513d601f19601f8201168201806040525081019061055c9190613eb9565b1561059c576040517f08c379a000000000000000000000000000000000000000000000000000000000815260040161059390614546565b60405180910390fd5b60008173ffffffffffffffffffffffffffffffffffffffff166370a08231306040518263ffffffff1660e01b81526004016105d791906143ff565b60206040518083038186803b1580156105ef57600080fd5b505afa158015610603573d6000803e3d6000fd5b505050506040513d601f19601f820116820180604052508101906106279190613f0b565b905061065b610634613026565b828473ffffffffffffffffffffffffffffffffffffffff1661302e9092919063ffffffff16565b5050565b61066761080b565b73ffffffffffffffffffffffffffffffffffffffff16610685613026565b73ffffffffffffffffffffffffffffffffffffffff16146106db576040517f08c379a00000000000000000000000000000000000000000000000000000000081526004016106d290614646565b60405180910390fd5b600073ffffffffffffffffffffffffffffffffffffffff168273ffffffffffffffffffffffffffffffffffffffff16141561074b576040517f08c379a000000000000000000000000000000000000000000000000000000000815260040161074290614666565b60405180910390fd5b600073ffffffffffffffffffffffffffffffffffffffff168173ffffffffffffffffffffffffffffffffffffffff1614156107bb576040517f08c379a00000000000000000000000000000000000000000000000000000000081526004016107b290614566565b60405180910390fd5b6108077f0000000000000000000000000000000000000000000000000000000000000000837f0000000000000000000000000000000000000000000000000000000000000000846130b4565b5050565b60007f000000000000000000000000000000000000000000000000000000000000000073ffffffffffffffffffffffffffffffffffffffff16630c340a246040518163ffffffff1660e01b815260040160206040518083038186803b15801561087357600080fd5b505afa158015610887573d6000803e3d6000fd5b505050506040513d601f19601f820116820180604052508101906108ab9190613c38565b905090565b6108b861080b565b73ffffffffffffffffffffffffffffffffffffffff166108d6613026565b73ffffffffffffffffffffffffffffffffffffffff161461092c576040517f08c379a000000000000000000000000000000000000000000000000000000000815260040161092390614646565b60405180910390fd5b7f000000000000000000000000000000000000000000000000000000000000000073ffffffffffffffffffffffffffffffffffffffff166329092d0e826040518263ffffffff1660e01b815260040161098591906143ff565b602060405180830381600087803b15801561099f57600080fd5b505af11580156109b3573d6000803e3d6000fd5b505050506040513d601f19601f820116820180604052508101906109d79190613eb9565b610a16576040517f08c379a0000000000000000000000000000000000000000000000000000000008152600401610a0d906145e6565b60405180910390fd5b50565b610a2161080b565b73ffffffffffffffffffffffffffffffffffffffff16610a3f613026565b73ffffffffffffffffffffffffffffffffffffffff1614610a95576040517f08c379a0000000000000000000000000000000000000000000000000000000008152600401610a8c90614646565b60405180910390fd5b7f000000000000000000000000000000000000000000000000000000000000000073ffffffffffffffffffffffffffffffffffffffff166329092d0e826040518263ffffffff1660e01b8152600401610aee91906143ff565b602060405180830381600087803b158015610b0857600080fd5b505af1158015610b1c573d6000803e3d6000fd5b505050506040513d601f19601f82011682018060405250810190610b409190613eb9565b610b7f576040517f08c379a0000000000000000000000000000000000000000000000000000000008152600401610b76906146e6565b60405180910390fd5b7f000000000000000000000000000000000000000000000000000000000000000073ffffffffffffffffffffffffffffffffffffffff166329092d0e600360008473ffffffffffffffffffffffffffffffffffffffff1673ffffffffffffffffffffffffffffffffffffffff16815260200190815260200160002060009054906101000a900473ffffffffffffffffffffffffffffffffffffffff166040518263ffffffff1660e01b8152600401610c3791906143ff565b602060405180830381600087803b158015610c5157600080fd5b505af1158015610c65573d6000803e3d6000fd5b505050506040513d601f19601f82011682018060405250810190610c899190613eb9565b610cc8576040517f08c379a0000000000000000000000000000000000000000000000000000000008152600401610cbf906146e6565b60405180910390fd5b610d53600360008373ffffffffffffffffffffffffffffffffffffffff1673ffffffffffffffffffffffffffffffffffffffff16815260200190815260200160002060009054906101000a900473ffffffffffffffffffffffffffffffffffffffff1660008373ffffffffffffffffffffffffffffffffffffffff16612eb09092919063ffffffff16565b600360008273ffffffffffffffffffffffffffffffffffffffff1673ffffffffffffffffffffffffffffffffffffffff16815260200190815260200160002060006101000a81549073ffffffffffffffffffffffffffffffffffffffff021916905550565b600160009054906101000a900473ffffffffffffffffffffffffffffffffffffffff1681565b610de661080b565b73ffffffffffffffffffffffffffffffffffffffff16610e04613026565b73ffffffffffffffffffffffffffffffffffffffff1614610e5a576040517f08c379a0000000000000000000000000000000000000000000000000000000008152600401610e5190614646565b60405180910390fd5b600073ffffffffffffffffffffffffffffffffffffffff168173ffffffffffffffffffffffffffffffffffffffff161415610eca576040517f08c379a0000000000000000000000000000000000000000000000000000000008152600401610ec190614846565b60405180910390fd5b7f000000000000000000000000000000000000000000000000000000000000000073ffffffffffffffffffffffffffffffffffffffff16630a3b0a4f826040518263ffffffff1660e01b8152600401610f2391906143ff565b602060405180830381600087803b158015610f3d57600080fd5b505af1158015610f51573d6000803e3d6000fd5b505050506040513d601f19601f82011682018060405250810190610f759190613eb9565b610fb4576040517f08c379a0000000000000000000000000000000000000000000000000000000008152600401610fab90614586565b60405180910390fd5b50565b60026000541415610ffd576040517f08c379a0000000000000000000000000000000000000000000000000000000008152600401610ff4906147e6565b60405180910390fd5b600260008190555061100d61080b565b73ffffffffffffffffffffffffffffffffffffffff1661102b613026565b73ffffffffffffffffffffffffffffffffffffffff1614611081576040517f08c379a000000000000000000000000000000000000000000000000000000000815260040161107890614646565b60405180910390fd5b80518251146110c5576040517f08c379a00000000000000000000000000000000000000000000000000000000081526004016110bc906145a6565b60405180910390fd5b60005b82518110156111765761116383828151811061110d577f4e487b7100000000000000000000000000000000000000000000000000000000600052603260045260246000fd5b602002602001015183838151811061114e577f4e487b7100000000000000000000000000000000000000000000000000000000600052603260045260246000fd5b602002602001015161115e613026565b613317565b808061116e90614bb2565b9150506110c8565b5060016000819055505050565b61118b61080b565b73ffffffffffffffffffffffffffffffffffffffff166111a9613026565b73ffffffffffffffffffffffffffffffffffffffff16146111ff576040517f08c379a00000000000000000000000000000000000000000000000000000000081526004016111f690614646565b60405180910390fd5b600073ffffffffffffffffffffffffffffffffffffffff168173ffffffffffffffffffffffffffffffffffffffff16141561126f576040517f08c379a000000000000000000000000000000000000000000000000000000000815260040161126690614786565b60405180910390fd5b8073ffffffffffffffffffffffffffffffffffffffff16600260009054906101000a900473ffffffffffffffffffffffffffffffffffffffff1673ffffffffffffffffffffffffffffffffffffffff167f2d19927e7cac08ceb98b38898a4fdff6da6a27295b9a2d62fe250408ebe044e160405160405180910390a3611318600260009054906101000a900473ffffffffffffffffffffffffffffffffffffffff16600061355b565b611342817fffffffffffffffffffffffffffffffffffffffffffffffffffffffffffffffff61355b565b80600260006101000a81548173ffffffffffffffffffffffffffffffffffffffff021916908373ffffffffffffffffffffffffffffffffffffffff16021790555050565b61138e61080b565b73ffffffffffffffffffffffffffffffffffffffff166113ac613026565b73ffffffffffffffffffffffffffffffffffffffff16148061147a57507f000000000000000000000000000000000000000000000000000000000000000073ffffffffffffffffffffffffffffffffffffffff16635dbe47e861140d613026565b6040518263ffffffff1660e01b815260040161142991906143ff565b60206040518083038186803b15801561144157600080fd5b505afa158015611455573d6000803e3d6000fd5b505050506040513d601f19601f820116820180604052508101906114799190613eb9565b5b6114b9576040517f08c379a00000000000000000000000000000000000000000000000000000000081526004016114b090614826565b60405180910390fd5b7f000000000000000000000000000000000000000000000000000000000000000073ffffffffffffffffffffffffffffffffffffffff16635dbe47e8836040518263ffffffff1660e01b815260040161151291906143ff565b60206040518083038186803b15801561152a57600080fd5b505afa15801561153e573d6000803e3d6000fd5b505050506040513d601f19601f820116820180604052508101906115629190613eb9565b6115a1576040517f08c379a000000000000000000000000000000000000000000000000000000000815260040161159890614686565b60405180910390fd5b60007f000000000000000000000000000000000000000000000000000000000000000073ffffffffffffffffffffffffffffffffffffffff16631f7b6d326040518163ffffffff1660e01b815260040160206040518083038186803b15801561160957600080fd5b505afa15801561161d573d6000803e3d6000fd5b505050506040513d601f19601f820116820180604052508101906116419190613f0b565b905060008167ffffffffffffffff811115611685577f4e487b7100000000000000000000000000000000000000000000000000000000600052604160045260246000fd5b6040519080825280602002602001820160405280156116b35781602001602082028036833780820191505090505b50905060005b828160ff1610156117f4577f000000000000000000000000000000000000000000000000000000000000000073ffffffffffffffffffffffffffffffffffffffff1663e0886f90826040518263ffffffff1660e01b815260040161171d91906148db565b604080518083038186803b15801561173457600080fd5b505afa158015611748573d6000803e3d6000fd5b505050506040513d601f19601f8201168201806040525081019061176c9190613cd9565b50828260ff16815181106117a9577f4e487b7100000000000000000000000000000000000000000000000000000000600052603260045260246000fd5b602002602001018173ffffffffffffffffffffffffffffffffffffffff1673ffffffffffffffffffffffffffffffffffffffff168152505080806117ec90614bfb565b9150506116b9565b50733d9819210a31b4961b30ef54be2aed79b9c9cd3b73ffffffffffffffffffffffffffffffffffffffff16631c3db2e030836040518363ffffffff1660e01b815260040161184492919061447a565b600060405180830381600087803b15801561185e57600080fd5b505af1158015611872573d6000803e3d6000fd5b50505050600073c00e94cb662c3520282e6f5717214004a7f2688873ffffffffffffffffffffffffffffffffffffffff166370a08231306040518263ffffffff1660e01b81526004016118c591906143ff565b60206040518083038186803b1580156118dd57600080fd5b505afa1580156118f1573d6000803e3d6000fd5b505050506040513d601f19601f820116820180604052508101906119159190613f0b565b90506000806000600260009054906101000a900473ffffffffffffffffffffffffffffffffffffffff1673ffffffffffffffffffffffffffffffffffffffff1663e8f983c873c00e94cb662c3520282e6f5717214004a7f268888a876040518463ffffffff1660e01b815260040161198f93929190614443565b60006040518083038186803b1580156119a757600080fd5b505afa1580156119bb573d6000803e3d6000fd5b505050506040513d6000823e3d601f19601f820116820180604052508101906119e49190613e11565b92509250925060008214611b3657600260009054906101000a900473ffffffffffffffffffffffffffffffffffffffff1673ffffffffffffffffffffffffffffffffffffffff16636e74a6f7826040518263ffffffff1660e01b8152600401611a4d9190614866565b60206040518083038186803b158015611a6557600080fd5b505afa158015611a79573d6000803e3d6000fd5b505050506040513d601f19601f82011682018060405250810190611a9d9190613ee2565b73ffffffffffffffffffffffffffffffffffffffff166338ed173985898630426040518663ffffffff1660e01b8152600401611add959493929190614881565b600060405180830381600087803b158015611af757600080fd5b505af1158015611b0b573d6000803e3d6000fd5b505050506040513d6000823e3d601f19601f82011682018060405250810190611b349190613e78565b505b6000600360008a73ffffffffffffffffffffffffffffffffffffffff1673ffffffffffffffffffffffffffffffffffffffff16815260200190815260200160002060009054906101000a900473ffffffffffffffffffffffffffffffffffffffff1673ffffffffffffffffffffffffffffffffffffffff1663a0712d688a73ffffffffffffffffffffffffffffffffffffffff166370a08231306040518263ffffffff1660e01b8152600401611bec91906143ff565b60206040518083038186803b158015611c0457600080fd5b505afa158015611c18573d6000803e3d6000fd5b505050506040513d601f19601f82011682018060405250810190611c3c9190613f0b565b6040518263ffffffff1660e01b8152600401611c589190614866565b602060405180830381600087803b158015611c7257600080fd5b505af1158015611c86573d6000803e3d6000fd5b505050506040513d601f19601f82011682018060405250810190611caa9190613f0b565b14611cea576040517f08c379a0000000000000000000000000000000000000000000000000000000008152600401611ce1906147c6565b60405180910390fd5b5050505050505050565b7f000000000000000000000000000000000000000000000000000000000000000081565b60026000541415611d5e576040517f08c379a0000000000000000000000000000000000000000000000000000000008152600401611d55906147e6565b60405180910390fd5b6002600081905550611d6e61080b565b73ffffffffffffffffffffffffffffffffffffffff16611d8c613026565b73ffffffffffffffffffffffffffffffffffffffff1614611de2576040517f08c379a0000000000000000000000000000000000000000000000000000000008152600401611dd990614646565b60405180910390fd5b60005b815181101561225d577f000000000000000000000000000000000000000000000000000000000000000073ffffffffffffffffffffffffffffffffffffffff16635dbe47e8838381518110611e63577f4e487b7100000000000000000000000000000000000000000000000000000000600052603260045260246000fd5b60200260200101516040518263ffffffff1660e01b8152600401611e8791906143ff565b60206040518083038186803b158015611e9f57600080fd5b505afa158015611eb3573d6000803e3d6000fd5b505050506040513d601f19601f82011682018060405250810190611ed79190613eb9565b611f16576040517f08c379a0000000000000000000000000000000000000000000000000000000008152600401611f0d90614686565b60405180910390fd5b600060036000848481518110611f55577f4e487b7100000000000000000000000000000000000000000000000000000000600052603260045260246000fd5b602002602001015173ffffffffffffffffffffffffffffffffffffffff1673ffffffffffffffffffffffffffffffffffffffff16815260200190815260200160002060009054906101000a900473ffffffffffffffffffffffffffffffffffffffff16905060008173ffffffffffffffffffffffffffffffffffffffff1663db006a758373ffffffffffffffffffffffffffffffffffffffff166370a08231306040518263ffffffff1660e01b815260040161201191906143ff565b60206040518083038186803b15801561202957600080fd5b505afa15801561203d573d6000803e3d6000fd5b505050506040513d601f19601f820116820180604052508101906120619190613f0b565b6040518263ffffffff1660e01b815260040161207d9190614866565b602060405180830381600087803b15801561209757600080fd5b505af11580156120ab573d6000803e3d6000fd5b505050506040513d601f19601f820116820180604052508101906120cf9190613f0b565b1461210f576040517f08c379a000000000000000000000000000000000000000000000000000000000815260040161210690614746565b60405180910390fd5b61224961211a613026565b848481518110612153577f4e487b7100000000000000000000000000000000000000000000000000000000600052603260045260246000fd5b602002602001015173ffffffffffffffffffffffffffffffffffffffff166370a08231306040518263ffffffff1660e01b815260040161219391906143ff565b60206040518083038186803b1580156121ab57600080fd5b505afa1580156121bf573d6000803e3d6000fd5b505050506040513d601f19601f820116820180604052508101906121e39190613f0b565b85858151811061221c577f4e487b7100000000000000000000000000000000000000000000000000000000600052603260045260246000fd5b602002602001015173ffffffffffffffffffffffffffffffffffffffff1661302e9092919063ffffffff16565b50808061225590614bb2565b915050611de5565b50600160008190555050565b600260005414156122af576040517f08c379a00000000000000000000000000000000000000000000000000000000081526004016122a6906147e6565b60405180910390fd5b60026000819055506122bf61080b565b73ffffffffffffffffffffffffffffffffffffffff166122dd613026565b73ffffffffffffffffffffffffffffffffffffffff1614806123535750600160009054906101000a900473ffffffffffffffffffffffffffffffffffffffff1673ffffffffffffffffffffffffffffffffffffffff1661233b613026565b73ffffffffffffffffffffffffffffffffffffffff16145b612392576040517f08c379a000000000000000000000000000000000000000000000000000000000815260040161238990614826565b60405180910390fd5b61239d838383613317565b6001600081905550505050565b7f000000000000000000000000000000000000000000000000000000000000000081565b600260009054906101000a900473ffffffffffffffffffffffffffffffffffffffff1681565b6123fc61080b565b73ffffffffffffffffffffffffffffffffffffffff1661241a613026565b73ffffffffffffffffffffffffffffffffffffffff1614612470576040517f08c379a000000000000000000000000000000000000000000000000000000000815260040161246790614646565b60405180910390fd5b600073ffffffffffffffffffffffffffffffffffffffff168173ffffffffffffffffffffffffffffffffffffffff1614156124e0576040517f08c379a00000000000000000000000000000000000000000000000000000000081526004016124d790614626565b60405180910390fd5b8073ffffffffffffffffffffffffffffffffffffffff16600160009054906101000a900473ffffffffffffffffffffffffffffffffffffffff1673ffffffffffffffffffffffffffffffffffffffff161415612571576040517f08c379a0000000000000000000000000000000000000000000000000000000008152600401612568906146c6565b60405180910390fd5b8073ffffffffffffffffffffffffffffffffffffffff16600160009054906101000a900473ffffffffffffffffffffffffffffffffffffffff1673ffffffffffffffffffffffffffffffffffffffff167fbb0958cd5add04c553a378aa342c839507b619a0459617e004c5d13602cfa72360405160405180910390a380600160006101000a81548173ffffffffffffffffffffffffffffffffffffffff021916908373ffffffffffffffffffffffffffffffffffffffff16021790555050565b60036020528060005260406000206000915054906101000a900473ffffffffffffffffffffffffffffffffffffffff1681565b7f000000000000000000000000000000000000000000000000000000000000000081565b6040518060400160405280600d81526020017f565553442d54726561737572790000000000000000000000000000000000000081525081565b60008073ffffffffffffffffffffffffffffffffffffffff16600360008473ffffffffffffffffffffffffffffffffffffffff1673ffffffffffffffffffffffffffffffffffffffff16815260200190815260200160002060009054906101000a900473ffffffffffffffffffffffffffffffffffffffff1673ffffffffffffffffffffffffffffffffffffffff16146128e5576000600360008473ffffffffffffffffffffffffffffffffffffffff1673ffffffffffffffffffffffffffffffffffffffff16815260200190815260200160002060009054906101000a900473ffffffffffffffffffffffffffffffffffffffff169050670de0b6b3a76400008173ffffffffffffffffffffffffffffffffffffffff1663182df0f56040518163ffffffff1660e01b815260040160206040518083038186803b15801561280857600080fd5b505afa15801561281c573d6000803e3d6000fd5b505050506040513d601f19601f820116820180604052508101906128409190613f0b565b8273ffffffffffffffffffffffffffffffffffffffff166370a08231306040518263ffffffff1660e01b815260040161287991906143ff565b60206040518083038186803b15801561289157600080fd5b505afa1580156128a5573d6000803e3d6000fd5b505050506040513d601f19601f820116820180604052508101906128c99190613f0b565b6128d39190614a0f565b6128dd91906149de565b9150506128ea565b600090505b919050565b6128f761080b565b73ffffffffffffffffffffffffffffffffffffffff16612915613026565b73ffffffffffffffffffffffffffffffffffffffff161461296b576040517f08c379a000000000000000000000000000000000000000000000000000000000815260040161296290614646565b60405180910390fd5b600073ffffffffffffffffffffffffffffffffffffffff168173ffffffffffffffffffffffffffffffffffffffff1614156129db576040517f08c379a00000000000000000000000000000000000000000000000000000000081526004016129d2906145c6565b60405180910390fd5b8073ffffffffffffffffffffffffffffffffffffffff1663edac52036040518163ffffffff1660e01b815260040160206040518083038186803b158015612a2157600080fd5b505afa158015612a35573d6000803e3d6000fd5b505050506040513d601f19601f82011682018060405250810190612a599190613c38565b73ffffffffffffffffffffffffffffffffffffffff167f000000000000000000000000000000000000000000000000000000000000000073ffffffffffffffffffffffffffffffffffffffff1614612ae6576040517f08c379a0000000000000000000000000000000000000000000000000000000008152600401612add90614726565b60405180910390fd5b60007f000000000000000000000000000000000000000000000000000000000000000073ffffffffffffffffffffffffffffffffffffffff16631f7b6d326040518163ffffffff1660e01b815260040160206040518083038186803b158015612b4e57600080fd5b505afa158015612b62573d6000803e3d6000fd5b505050506040513d601f19601f82011682018060405250810190612b869190613f0b565b905060005b81811015612d075760007f000000000000000000000000000000000000000000000000000000000000000073ffffffffffffffffffffffffffffffffffffffff1663e0886f90836040518263ffffffff1660e01b8152600401612bee9190614866565b604080518083038186803b158015612c0557600080fd5b505afa158015612c19573d6000803e3d6000fd5b505050506040513d601f19601f82011682018060405250810190612c3d9190613cd9565b509050612cf3848273ffffffffffffffffffffffffffffffffffffffff166370a08231306040518263ffffffff1660e01b8152600401612c7d91906143ff565b60206040518083038186803b158015612c9557600080fd5b505afa158015612ca9573d6000803e3d6000fd5b505050506040513d601f19601f82011682018060405250810190612ccd9190613f0b565b8373ffffffffffffffffffffffffffffffffffffffff1661302e9092919063ffffffff16565b508080612cff90614bb2565b915050612b8b565b505050565b7f000000000000000000000000000000000000000000000000000000000000000081565b60026000541415612d76576040517f08c379a0000000000000000000000000000000000000000000000000000000008152600401612d6d906147e6565b60405180910390fd5b6002600081905550612d8661080b565b73ffffffffffffffffffffffffffffffffffffffff16612da4613026565b73ffffffffffffffffffffffffffffffffffffffff161480612e1a5750600160009054906101000a900473ffffffffffffffffffffffffffffffffffffffff1673ffffffffffffffffffffffffffffffffffffffff16612e02613026565b73ffffffffffffffffffffffffffffffffffffffff16145b612e59576040517f08c379a0000000000000000000000000000000000000000000000000000000008152600401612e5090614826565b60405180910390fd5b612e6b8282612e66613026565b613317565b60016000819055505050565b6040518060400160405280600581526020017f312e322e3100000000000000000000000000000000000000000000000000000081525081565b6000811480612f49575060008373ffffffffffffffffffffffffffffffffffffffff1663dd62ed3e30856040518363ffffffff1660e01b8152600401612ef792919061441a565b60206040518083038186803b158015612f0f57600080fd5b505afa158015612f23573d6000803e3d6000fd5b505050506040513d601f19601f82011682018060405250810190612f479190613f0b565b145b612f88576040517f08c379a0000000000000000000000000000000000000000000000000000000008152600401612f7f90614806565b60405180910390fd5b6130098363095ea7b360e01b8484604051602401612fa79291906144aa565b604051602081830303815290604052907bffffffffffffffffffffffffffffffffffffffffffffffffffffffff19166020820180517bffffffffffffffffffffffffffffffffffffffffffffffffffffffff83818316178352505050506136e4565b505050565b606061301d84846000856137ab565b90509392505050565b600033905090565b6130af8363a9059cbb60e01b848460405160240161304d9291906144aa565b604051602081830303815290604052907bffffffffffffffffffffffffffffffffffffffffffffffffffffffff19166020820180517bffffffffffffffffffffffffffffffffffffffffffffffffffffffff83818316178352505050506136e4565b505050565b8373ffffffffffffffffffffffffffffffffffffffff16630a3b0a4f846040518263ffffffff1660e01b81526004016130ed91906143ff565b602060405180830381600087803b15801561310757600080fd5b505af115801561311b573d6000803e3d6000fd5b505050506040513d601f19601f8201168201806040525081019061313f9190613eb9565b61317e576040517f08c379a0000000000000000000000000000000000000000000000000000000008152600401613175906146a6565b60405180910390fd5b8173ffffffffffffffffffffffffffffffffffffffff16630a3b0a4f826040518263ffffffff1660e01b81526004016131b791906143ff565b602060405180830381600087803b1580156131d157600080fd5b505af11580156131e5573d6000803e3d6000fd5b505050506040513d601f19601f820116820180604052508101906132099190613eb9565b613248576040517f08c379a000000000000000000000000000000000000000000000000000000000815260040161323f906146a6565b60405180910390fd5b80600360008573ffffffffffffffffffffffffffffffffffffffff1673ffffffffffffffffffffffffffffffffffffffff16815260200190815260200160002060006101000a81548173ffffffffffffffffffffffffffffffffffffffff021916908373ffffffffffffffffffffffffffffffffffffffff160217905550613311817fffffffffffffffffffffffffffffffffffffffffffffffffffffffffffffffff8573ffffffffffffffffffffffffffffffffffffffff16612eb09092919063ffffffff16565b50505050565b7f000000000000000000000000000000000000000000000000000000000000000073ffffffffffffffffffffffffffffffffffffffff16635dbe47e8846040518263ffffffff1660e01b815260040161337091906143ff565b60206040518083038186803b15801561338857600080fd5b505afa15801561339c573d6000803e3d6000fd5b505050506040513d601f19601f820116820180604052508101906133c09190613eb9565b6133ff576040517f08c379a00000000000000000000000000000000000000000000000000000000081526004016133f690614686565b60405180910390fd5b6000600360008573ffffffffffffffffffffffffffffffffffffffff1673ffffffffffffffffffffffffffffffffffffffff16815260200190815260200160002060009054906101000a900473ffffffffffffffffffffffffffffffffffffffff1673ffffffffffffffffffffffffffffffffffffffff1663852a12e3846040518263ffffffff1660e01b81526004016134999190614866565b602060405180830381600087803b1580156134b357600080fd5b505af11580156134c7573d6000803e3d6000fd5b505050506040513d601f19601f820116820180604052508101906134eb9190613f0b565b1461352b576040517f08c379a000000000000000000000000000000000000000000000000000000000815260040161352290614706565b60405180910390fd5b61355681838573ffffffffffffffffffffffffffffffffffffffff1661302e9092919063ffffffff16565b505050565b60005b8273ffffffffffffffffffffffffffffffffffffffff1663c2fba6676040518163ffffffff1660e01b815260040160206040518083038186803b1580156135a457600080fd5b505afa1580156135b8573d6000803e3d6000fd5b505050506040513d601f19601f820116820180604052508101906135dc9190613f0b565b8110156136df576136cc600260009054906101000a900473ffffffffffffffffffffffffffffffffffffffff1673ffffffffffffffffffffffffffffffffffffffff16636e74a6f7836040518263ffffffff1660e01b81526004016136419190614866565b60206040518083038186803b15801561365957600080fd5b505afa15801561366d573d6000803e3d6000fd5b505050506040513d601f19601f820116820180604052508101906136919190613ee2565b8373c00e94cb662c3520282e6f5717214004a7f2688873ffffffffffffffffffffffffffffffffffffffff16612eb09092919063ffffffff16565b80806136d790614bb2565b91505061355e565b505050565b6000613746826040518060400160405280602081526020017f5361666545524332303a206c6f772d6c6576656c2063616c6c206661696c65648152508573ffffffffffffffffffffffffffffffffffffffff1661300e9092919063ffffffff16565b90506000815111156137a657808060200190518101906137669190613eb9565b6137a5576040517f08c379a000000000000000000000000000000000000000000000000000000000815260040161379c906147a6565b60405180910390fd5b5b505050565b6060824710156137f0576040517f08c379a00000000000000000000000000000000000000000000000000000000081526004016137e790614606565b60405180910390fd5b6137f9856138bf565b613838576040517f08c379a000000000000000000000000000000000000000000000000000000000815260040161382f90614766565b60405180910390fd5b6000808673ffffffffffffffffffffffffffffffffffffffff16858760405161386191906143e8565b60006040518083038185875af1925050503d806000811461389e576040519150601f19603f3d011682016040523d82523d6000602084013e6138a3565b606091505b50915091506138b38282866138d2565b92505050949350505050565b600080823b905060008111915050919050565b606083156138e257829050613932565b6000835111156138f55782518084602001fd5b816040517f08c379a00000000000000000000000000000000000000000000000000000000081526004016139299190614524565b60405180910390fd5b9392505050565b600061394c6139478461491b565b6148f6565b9050808382526020820190508285602086028201111561396b57600080fd5b60005b8581101561399b57816139818882613ae9565b84526020840193506020830192505060018101905061396e565b5050509392505050565b60006139b86139b38461491b565b6148f6565b905080838252602082019050828560208602820111156139d757600080fd5b60005b85811015613a0757816139ed8882613afe565b8452602084019350602083019250506001810190506139da565b5050509392505050565b6000613a24613a1f84614947565b6148f6565b90508083825260208201905082856020860282011115613a4357600080fd5b60005b85811015613a735781613a598882613be5565b845260208401935060208301925050600181019050613a46565b5050509392505050565b6000613a90613a8b84614947565b6148f6565b90508083825260208201905082856020860282011115613aaf57600080fd5b60005b85811015613adf5781613ac58882613bfa565b845260208401935060208301925050600181019050613ab2565b5050509392505050565b600081359050613af881615136565b92915050565b600081519050613b0d81615136565b92915050565b600082601f830112613b2457600080fd5b8135613b34848260208601613939565b91505092915050565b600082601f830112613b4e57600080fd5b8151613b5e8482602086016139a5565b91505092915050565b600082601f830112613b7857600080fd5b8135613b88848260208601613a11565b91505092915050565b600082601f830112613ba257600080fd5b8151613bb2848260208601613a7d565b91505092915050565b600081519050613bca8161514d565b92915050565b600081519050613bdf81615164565b92915050565b600081359050613bf48161517b565b92915050565b600081519050613c098161517b565b92915050565b600060208284031215613c2157600080fd5b6000613c2f84828501613ae9565b91505092915050565b600060208284031215613c4a57600080fd5b6000613c5884828501613afe565b91505092915050565b60008060408385031215613c7457600080fd5b6000613c8285828601613ae9565b9250506020613c9385828601613ae9565b9150509250929050565b60008060408385031215613cb057600080fd5b6000613cbe85828601613ae9565b9250506020613ccf85828601613be5565b9150509250929050565b60008060408385031215613cec57600080fd5b6000613cfa85828601613afe565b9250506020613d0b85828601613bfa565b9150509250929050565b600080600060608486031215613d2a57600080fd5b6000613d3886828701613ae9565b9350506020613d4986828701613be5565b9250506040613d5a86828701613ae9565b9150509250925092565b600060208284031215613d7657600080fd5b600082013567ffffffffffffffff811115613d9057600080fd5b613d9c84828501613b13565b91505092915050565b60008060408385031215613db857600080fd5b600083013567ffffffffffffffff811115613dd257600080fd5b613dde85828601613b13565b925050602083013567ffffffffffffffff811115613dfb57600080fd5b613e0785828601613b67565b9150509250929050565b600080600060608486031215613e2657600080fd5b600084015167ffffffffffffffff811115613e4057600080fd5b613e4c86828701613b3d565b9350506020613e5d86828701613bfa565b9250506040613e6e86828701613bfa565b9150509250925092565b600060208284031215613e8a57600080fd5b600082015167ffffffffffffffff811115613ea457600080fd5b613eb084828501613b91565b91505092915050565b600060208284031215613ecb57600080fd5b6000613ed984828501613bbb565b91505092915050565b600060208284031215613ef457600080fd5b6000613f0284828501613bd0565b91505092915050565b600060208284031215613f1d57600080fd5b6000613f2b84828501613bfa565b91505092915050565b6000613f408383613f4c565b60208301905092915050565b613f5581614a69565b82525050565b613f6481614a69565b82525050565b6000613f7582614983565b613f7f81856149b1565b9350613f8a83614973565b8060005b83811015613fbb578151613fa28882613f34565b9750613fad836149a4565b925050600181019050613f8e565b5085935050505092915050565b6000613fd38261498e565b613fdd81856149c2565b9350613fed818560208601614b4e565b80840191505092915050565b61400281614ad0565b82525050565b61401181614af4565b82525050565b61402081614b18565b82525050565b600061403182614999565b61403b81856149cd565b935061404b818560208601614b4e565b61405481614cb2565b840191505092915050565b600061406c601e836149cd565b915061407782614cc3565b602082019050919050565b600061408f6016836149cd565b915061409a82614cec565b602082019050919050565b60006140b26011836149cd565b91506140bd82614d15565b602082019050919050565b60006140d56015836149cd565b91506140e082614d3e565b602082019050919050565b60006140f8601c836149cd565b915061410382614d67565b602082019050919050565b600061411b6014836149cd565b915061412682614d90565b602082019050919050565b600061413e6026836149cd565b915061414982614db9565b604082019050919050565b60006141616018836149cd565b915061416c82614e08565b602082019050919050565b6000614184601a836149cd565b915061418f82614e31565b602082019050919050565b60006141a76015836149cd565b91506141b282614e5a565b602082019050919050565b60006141ca6016836149cd565b91506141d582614e83565b602082019050919050565b60006141ed6012836149cd565b91506141f882614eac565b602082019050919050565b6000614210600d836149cd565b915061421b82614ed5565b602082019050919050565b60006142336017836149cd565b915061423e82614efe565b602082019050919050565b60006142566018836149cd565b915061426182614f27565b602082019050919050565b6000614279600d836149cd565b915061428482614f50565b602082019050919050565b600061429c600d836149cd565b91506142a782614f79565b602082019050919050565b60006142bf601d836149cd565b91506142ca82614fa2565b602082019050919050565b60006142e2601c836149cd565b91506142ed82614fcb565b602082019050919050565b6000614305602a836149cd565b915061431082614ff4565b604082019050919050565b60006143286012836149cd565b915061433382615043565b602082019050919050565b600061434b601f836149cd565b91506143568261506c565b602082019050919050565b600061436e6036836149cd565b915061437982615095565b604082019050919050565b60006143916018836149cd565b915061439c826150e4565b602082019050919050565b60006143b46016836149cd565b91506143bf8261510d565b602082019050919050565b6143d381614ab9565b82525050565b6143e281614b3c565b82525050565b60006143f48284613fc8565b915081905092915050565b60006020820190506144146000830184613f5b565b92915050565b600060408201905061442f6000830185613f5b565b61443c6020830184613f5b565b9392505050565b60006060820190506144586000830186613f5b565b6144656020830185613f5b565b61447260408301846143ca565b949350505050565b600060408201905061448f6000830185613f5b565b81810360208301526144a18184613f6a565b90509392505050565b60006040820190506144bf6000830185613f5b565b6144cc60208301846143ca565b9392505050565b60006020820190506144e86000830184613ff9565b92915050565b60006020820190506145036000830184614008565b92915050565b600060208201905061451e6000830184614017565b92915050565b6000602082019050818103600083015261453e8184614026565b905092915050565b6000602082019050818103600083015261455f8161405f565b9050919050565b6000602082019050818103600083015261457f81614082565b9050919050565b6000602082019050818103600083015261459f816140a5565b9050919050565b600060208201905081810360008301526145bf816140c8565b9050919050565b600060208201905081810360008301526145df816140eb565b9050919050565b600060208201905081810360008301526145ff8161410e565b9050919050565b6000602082019050818103600083015261461f81614131565b9050919050565b6000602082019050818103600083015261463f81614154565b9050919050565b6000602082019050818103600083015261465f81614177565b9050919050565b6000602082019050818103600083015261467f8161419a565b9050919050565b6000602082019050818103600083015261469f816141bd565b9050919050565b600060208201905081810360008301526146bf816141e0565b9050919050565b600060208201905081810360008301526146df81614203565b9050919050565b600060208201905081810360008301526146ff81614226565b9050919050565b6000602082019050818103600083015261471f81614249565b9050919050565b6000602082019050818103600083015261473f8161426c565b9050919050565b6000602082019050818103600083015261475f8161428f565b9050919050565b6000602082019050818103600083015261477f816142b2565b9050919050565b6000602082019050818103600083015261479f816142d5565b9050919050565b600060208201905081810360008301526147bf816142f8565b9050919050565b600060208201905081810360008301526147df8161431b565b9050919050565b600060208201905081810360008301526147ff8161433e565b9050919050565b6000602082019050818103600083015261481f81614361565b9050919050565b6000602082019050818103600083015261483f81614384565b9050919050565b6000602082019050818103600083015261485f816143a7565b9050919050565b600060208201905061487b60008301846143ca565b92915050565b600060a08201905061489660008301886143ca565b6148a360208301876143ca565b81810360408301526148b58186613f6a565b90506148c46060830185613f5b565b6148d160808301846143ca565b9695505050505050565b60006020820190506148f060008301846143d9565b92915050565b6000614900614911565b905061490c8282614b81565b919050565b6000604051905090565b600067ffffffffffffffff82111561493657614935614c83565b5b602082029050602081019050919050565b600067ffffffffffffffff82111561496257614961614c83565b5b602082029050602081019050919050565b6000819050602082019050919050565b600081519050919050565b600081519050919050565b600081519050919050565b6000602082019050919050565b600082825260208201905092915050565b600081905092915050565b600082825260208201905092915050565b60006149e982614ab9565b91506149f483614ab9565b925082614a0457614a03614c54565b5b828204905092915050565b6000614a1a82614ab9565b9150614a2583614ab9565b9250817fffffffffffffffffffffffffffffffffffffffffffffffffffffffffffffffff0483118215151615614a5e57614a5d614c25565b5b828202905092915050565b6000614a7482614a99565b9050919050565b60008115159050919050565b6000614a9282614a69565b9050919050565b600073ffffffffffffffffffffffffffffffffffffffff82169050919050565b6000819050919050565b600060ff82169050919050565b6000614adb82614ae2565b9050919050565b6000614aed82614a99565b9050919050565b6000614aff82614b06565b9050919050565b6000614b1182614a99565b9050919050565b6000614b2382614b2a565b9050919050565b6000614b3582614a99565b9050919050565b6000614b4782614ac3565b9050919050565b60005b83811015614b6c578082015181840152602081019050614b51565b83811115614b7b576000848401525b50505050565b614b8a82614cb2565b810181811067ffffffffffffffff82111715614ba957614ba8614c83565b5b80604052505050565b6000614bbd82614ab9565b91507fffffffffffffffffffffffffffffffffffffffffffffffffffffffffffffffff821415614bf057614bef614c25565b5b600182019050919050565b6000614c0682614ac3565b915060ff821415614c1a57614c19614c25565b5b600182019050919050565b7f4e487b7100000000000000000000000000000000000000000000000000000000600052601160045260246000fd5b7f4e487b7100000000000000000000000000000000000000000000000000000000600052601260045260246000fd5b7f4e487b7100000000000000000000000000000000000000000000000000000000600052604160045260246000fd5b6000601f19601f8301169050919050565b7f63546f6b656e2d69732d6e6f742d616c6c6f7765642d746f2d73776565700000600082015250565b7f63546f6b656e2d616464726573732d69732d7a65726f00000000000000000000600082015250565b7f6164642d6b65657065722d6661696c6564000000000000000000000000000000600082015250565b7f696e7075742d6c656e6774682d6d69736d617463680000000000000000000000600082015250565b7f6e65772d74726561737572792d616464726573732d69732d7a65726f00000000600082015250565b7f72656d6f76652d6b65657065722d6661696c6564000000000000000000000000600082015250565b7f416464726573733a20696e73756666696369656e742062616c616e636520666f60008201527f722063616c6c0000000000000000000000000000000000000000000000000000602082015250565b7f72656465656d65722d616464726573732d69732d7a65726f0000000000000000600082015250565b7f63616c6c65722d69732d6e6f742d7468652d676f7665726e6f72000000000000600082015250565b7f746f6b656e2d616464726573732d69732d7a65726f0000000000000000000000600082015250565b7f746f6b656e2d69732d6e6f742d737570706f7274656400000000000000000000600082015250565b7f6164642d696e2d6c6973742d6661696c65640000000000000000000000000000600082015250565b7f73616d652d72656465656d657200000000000000000000000000000000000000600082015250565b7f72656d6f76652d66726f6d2d6c6973742d6661696c6564000000000000000000600082015250565b7f72656465656d2d756e6465726c79696e672d6661696c65640000000000000000600082015250565b7f767573642d6d69736d6174636800000000000000000000000000000000000000600082015250565b7f72656465656d2d6661696c656400000000000000000000000000000000000000600082015250565b7f416464726573733a2063616c6c20746f206e6f6e2d636f6e7472616374000000600082015250565b7f737761702d6d616e616765722d616464726573732d69732d7a65726f00000000600082015250565b7f5361666545524332303a204552433230206f7065726174696f6e20646964206e60008201527f6f74207375636365656400000000000000000000000000000000000000000000602082015250565b7f63546f6b656e2d6d696e742d6661696c65640000000000000000000000000000600082015250565b7f5265656e7472616e637947756172643a207265656e7472616e742063616c6c00600082015250565b7f5361666545524332303a20617070726f76652066726f6d206e6f6e2d7a65726f60008201527f20746f206e6f6e2d7a65726f20616c6c6f77616e636500000000000000000000602082015250565b7f63616c6c65722d69732d6e6f742d617574686f72697a65640000000000000000600082015250565b7f6b65657065722d616464726573732d69732d7a65726f00000000000000000000600082015250565b61513f81614a69565b811461514a57600080fd5b50565b61515681614a7b565b811461516157600080fd5b50565b61516d81614a87565b811461517857600080fd5b50565b61518481614ab9565b811461518f57600080fd5b5056fea2646970667358221220ea09ab964083fa438a60c2cd8da19b5df613b0836fd445f1bd8d474d0fb746ba64736f6c63430008030033",
  "devdoc": {
    "kind": "dev",
    "methods": {
      "addKeeper(address)": {
        "params": {
          "_keeperAddress": "keeper address to add."
        }
      },
      "addWhitelistedToken(address,address)": {
        "details": "Add token address in whitelistedTokens list and add cToken in mapping",
        "params": {
          "_cToken": "CToken address correspond to _token",
          "_token": "address which we want to add in token list."
        }
      },
      "claimCompAndConvertTo(address,uint256)": {
        "params": {
          "_minOut": "Minimum _toToken expected after conversion",
          "_toToken": "COMP will be swapped to _toToken"
        }
      },
      "governor()": {
        "details": "Governor is defined in VUSD token contract only"
      },
      "migrate(address)": {
        "params": {
          "_newTreasury": "Address of new treasury of VUSD system"
        }
      },
      "removeKeeper(address)": {
        "params": {
          "_keeperAddress": "keeper address to remove."
        }
      },
      "removeWhitelistedToken(address)": {
        "details": "Removing token even if treasury has some balance of that token is intended behavior.",
        "params": {
          "_token": "address which we want to remove from token list."
        }
      },
      "sweep(address)": {
        "details": "OnlyGovernor can call this and CTokens are not allowed to sweep",
        "params": {
          "_fromToken": "Token address to sweep"
        }
      },
      "updateRedeemer(address)": {
        "params": {
          "_newRedeemer": "new redeemer address"
        }
      },
      "updateSwapManager(address)": {
        "params": {
          "_newSwapManager": "new swap manager address"
        }
      },
      "withdraw(address,uint256)": {
        "details": "Only Redeemer and Governor are allowed to call",
        "params": {
          "_amount": "token amount to withdraw",
          "_token": "Token to withdraw, it should be 1 of the supported tokens."
        }
      },
      "withdraw(address,uint256,address)": {
        "details": "Only Redeemer and Governor are allowed to call",
        "params": {
          "_amount": "token amount to withdraw",
          "_token": "Token to withdraw, it should be 1 of the supported tokens.",
          "_tokenReceiver": "Address of token receiver"
        }
      },
      "withdrawAll(address[])": {
        "details": "Only Governor is allowed to call.",
        "params": {
          "_tokens": "Array of token addresses, tokens should be supported tokens."
        }
      },
      "withdrawMulti(address[],uint256[])": {
        "details": "Only Governor is allowed to call._tokens and _amounts array are 1:1 and should have same length",
        "params": {
          "_amounts": "Array of token amount to withdraw",
          "_tokens": "Array of token addresses, tokens should be supported tokens."
        }
      },
      "withdrawable(address)": {
        "params": {
          "_token": "Token to withdraw"
        }
      }
    },
    "title": "VUSD Treasury, It stores cTokens and redeem those from Compound as needed.",
    "version": 1
  },
  "userdoc": {
    "kind": "user",
    "methods": {
      "addKeeper(address)": {
        "notice": "Add given address in keepers list."
      },
      "addWhitelistedToken(address,address)": {
        "notice": "Add token into treasury management system"
      },
      "claimCompAndConvertTo(address,uint256)": {
        "notice": "Claim comp from all markets and convert to given token. Also deposit those tokens to Compound"
      },
      "migrate(address)": {
        "notice": "Migrate assets to new treasury"
      },
      "removeKeeper(address)": {
        "notice": "Remove given address from keepers list."
      },
      "removeWhitelistedToken(address)": {
        "notice": "Remove token from treasury management system"
      },
      "sweep(address)": {
        "notice": "Sweep any ERC20 token to governor address"
      },
      "updateRedeemer(address)": {
        "notice": "Update redeemer address"
      },
      "updateSwapManager(address)": {
        "notice": "Update swap manager address"
      },
      "withdraw(address,uint256)": {
        "notice": "Withdraw given amount of token."
      },
      "withdraw(address,uint256,address)": {
        "notice": "Withdraw given amount of token."
      },
      "withdrawAll(address[])": {
        "notice": "Withdraw all of multiple tokens."
      },
      "withdrawMulti(address[],uint256[])": {
        "notice": "Withdraw multiple tokens."
      },
      "withdrawable(address)": {
        "notice": "Current withdrawable amount for given token. If token is not supported by treasury, no cTokens in mapping, it will return 0."
      }
    },
    "version": 1
  },
  "storageLayout": {
    "storage": [
      {
        "astId": 10,
        "contract": "contracts/Treasury.sol:Treasury",
        "label": "_status",
        "offset": 0,
        "slot": "0",
        "type": "t_uint256"
      },
      {
        "astId": 2862,
        "contract": "contracts/Treasury.sol:Treasury",
        "label": "redeemer",
        "offset": 0,
        "slot": "1",
        "type": "t_address"
      },
      {
        "astId": 2868,
        "contract": "contracts/Treasury.sol:Treasury",
        "label": "swapManager",
        "offset": 0,
        "slot": "2",
        "type": "t_contract(ISwapManager)4551"
      },
      {
        "astId": 2872,
        "contract": "contracts/Treasury.sol:Treasury",
        "label": "cTokens",
        "offset": 0,
        "slot": "3",
        "type": "t_mapping(t_address,t_address)"
      }
    ],
    "types": {
      "t_address": {
        "encoding": "inplace",
        "label": "address",
        "numberOfBytes": "20"
      },
      "t_contract(ISwapManager)4551": {
        "encoding": "inplace",
        "label": "contract ISwapManager",
        "numberOfBytes": "20"
      },
      "t_mapping(t_address,t_address)": {
        "encoding": "mapping",
        "key": "t_address",
        "label": "mapping(address => address)",
        "numberOfBytes": "32",
        "value": "t_address"
      },
      "t_uint256": {
        "encoding": "inplace",
        "label": "uint256",
        "numberOfBytes": "32"
      }
    }
  }
}