{
  "address": "0x239A4bF81759774bdC3D0a0244E56A667fdB81bf",
  "abi": [
    {
      "inputs": [
        {
          "internalType": "address",
          "name": "_vusd",
          "type": "address"
        }
      ],
      "stateMutability": "nonpayable",
      "type": "constructor"
    },
    {
      "anonymous": false,
      "inputs": [
        {
          "indexed": true,
          "internalType": "address",
          "name": "previousRedeemer",
          "type": "address"
        },
        {
          "indexed": true,
          "internalType": "address",
          "name": "newRedeemer",
          "type": "address"
        }
      ],
      "name": "UpdatedRedeemer",
      "type": "event"
    },
    {
      "anonymous": false,
      "inputs": [
        {
          "indexed": true,
          "internalType": "address",
          "name": "previousSwapManager",
          "type": "address"
        },
        {
          "indexed": true,
          "internalType": "address",
          "name": "newSwapManager",
          "type": "address"
        }
      ],
      "name": "UpdatedSwapManager",
      "type": "event"
    },
    {
      "inputs": [],
      "name": "NAME",
      "outputs": [
        {
          "internalType": "string",
          "name": "",
          "type": "string"
        }
      ],
      "stateMutability": "view",
      "type": "function"
    },
    {
      "inputs": [],
      "name": "VERSION",
      "outputs": [
        {
          "internalType": "string",
          "name": "",
          "type": "string"
        }
      ],
      "stateMutability": "view",
      "type": "function"
    },
    {
      "inputs": [
        {
          "internalType": "address",
          "name": "_keeperAddress",
          "type": "address"
        }
      ],
      "name": "addKeeper",
      "outputs": [],
      "stateMutability": "nonpayable",
      "type": "function"
    },
    {
      "inputs": [
        {
          "internalType": "address",
          "name": "_token",
          "type": "address"
        },
        {
          "internalType": "address",
          "name": "_cToken",
          "type": "address"
        },
        {
          "internalType": "address",
          "name": "_oracle",
          "type": "address"
        }
      ],
      "name": "addWhitelistedToken",
      "outputs": [],
      "stateMutability": "nonpayable",
      "type": "function"
    },
    {
      "inputs": [],
      "name": "cTokenList",
      "outputs": [
        {
          "internalType": "address[]",
          "name": "",
          "type": "address[]"
        }
      ],
      "stateMutability": "view",
      "type": "function"
    },
    {
      "inputs": [
        {
          "internalType": "address",
          "name": "",
          "type": "address"
        }
      ],
      "name": "cTokens",
      "outputs": [
        {
          "internalType": "address",
          "name": "",
          "type": "address"
        }
      ],
      "stateMutability": "view",
      "type": "function"
    },
    {
      "inputs": [
        {
          "internalType": "address",
          "name": "_toToken",
          "type": "address"
        },
        {
          "internalType": "uint256",
          "name": "_minOut",
          "type": "uint256"
        }
      ],
      "name": "claimCompAndConvertTo",
      "outputs": [],
      "stateMutability": "nonpayable",
      "type": "function"
    },
    {
      "inputs": [],
      "name": "governor",
      "outputs": [
        {
          "internalType": "address",
          "name": "",
          "type": "address"
        }
      ],
      "stateMutability": "view",
      "type": "function"
    },
    {
      "inputs": [
        {
          "internalType": "address",
          "name": "_address",
          "type": "address"
        }
      ],
      "name": "isWhitelistedToken",
      "outputs": [
        {
          "internalType": "bool",
          "name": "",
          "type": "bool"
        }
      ],
      "stateMutability": "view",
      "type": "function"
    },
    {
      "inputs": [],
      "name": "keepers",
      "outputs": [
        {
          "internalType": "address[]",
          "name": "",
          "type": "address[]"
        }
      ],
      "stateMutability": "view",
      "type": "function"
    },
    {
      "inputs": [
        {
          "internalType": "address",
          "name": "_newTreasury",
          "type": "address"
        }
      ],
      "name": "migrate",
      "outputs": [],
      "stateMutability": "nonpayable",
      "type": "function"
    },
    {
      "inputs": [
        {
          "internalType": "address",
          "name": "",
          "type": "address"
        }
      ],
      "name": "oracles",
      "outputs": [
        {
          "internalType": "address",
          "name": "",
          "type": "address"
        }
      ],
      "stateMutability": "view",
      "type": "function"
    },
    {
      "inputs": [],
      "name": "redeemer",
      "outputs": [
        {
          "internalType": "address",
          "name": "",
          "type": "address"
        }
      ],
      "stateMutability": "view",
      "type": "function"
    },
    {
      "inputs": [
        {
          "internalType": "address",
          "name": "_keeperAddress",
          "type": "address"
        }
      ],
      "name": "removeKeeper",
      "outputs": [],
      "stateMutability": "nonpayable",
      "type": "function"
    },
    {
      "inputs": [
        {
          "internalType": "address",
          "name": "_token",
          "type": "address"
        }
      ],
      "name": "removeWhitelistedToken",
      "outputs": [],
      "stateMutability": "nonpayable",
      "type": "function"
    },
    {
      "inputs": [],
      "name": "swapManager",
      "outputs": [
        {
          "internalType": "contract ISwapManager",
          "name": "",
          "type": "address"
        }
      ],
      "stateMutability": "view",
      "type": "function"
    },
    {
      "inputs": [
        {
          "internalType": "address",
          "name": "_fromToken",
          "type": "address"
        }
      ],
      "name": "sweep",
      "outputs": [],
      "stateMutability": "nonpayable",
      "type": "function"
    },
    {
      "inputs": [
        {
          "internalType": "address",
          "name": "_newRedeemer",
          "type": "address"
        }
      ],
      "name": "updateRedeemer",
      "outputs": [],
      "stateMutability": "nonpayable",
      "type": "function"
    },
    {
      "inputs": [
        {
          "internalType": "address",
          "name": "_newSwapManager",
          "type": "address"
        }
      ],
      "name": "updateSwapManager",
      "outputs": [],
      "stateMutability": "nonpayable",
      "type": "function"
    },
    {
      "inputs": [],
      "name": "vusd",
      "outputs": [
        {
          "internalType": "contract IVUSD",
          "name": "",
          "type": "address"
        }
      ],
      "stateMutability": "view",
      "type": "function"
    },
    {
      "inputs": [],
      "name": "whitelistedTokens",
      "outputs": [
        {
          "internalType": "address[]",
          "name": "",
          "type": "address[]"
        }
      ],
      "stateMutability": "view",
      "type": "function"
    },
    {
      "inputs": [
        {
          "internalType": "address",
          "name": "_token",
          "type": "address"
        },
        {
          "internalType": "uint256",
          "name": "_amount",
          "type": "uint256"
        },
        {
          "internalType": "address",
          "name": "_tokenReceiver",
          "type": "address"
        }
      ],
      "name": "withdraw",
      "outputs": [],
      "stateMutability": "nonpayable",
      "type": "function"
    },
    {
      "inputs": [
        {
          "internalType": "address",
          "name": "_token",
          "type": "address"
        },
        {
          "internalType": "uint256",
          "name": "_amount",
          "type": "uint256"
        }
      ],
      "name": "withdraw",
      "outputs": [],
      "stateMutability": "nonpayable",
      "type": "function"
    },
    {
      "inputs": [
        {
          "internalType": "address[]",
          "name": "_tokens",
          "type": "address[]"
        }
      ],
      "name": "withdrawAll",
      "outputs": [],
      "stateMutability": "nonpayable",
      "type": "function"
    },
    {
      "inputs": [
        {
          "internalType": "address[]",
          "name": "_tokens",
          "type": "address[]"
        },
        {
          "internalType": "uint256[]",
          "name": "_amounts",
          "type": "uint256[]"
        }
      ],
      "name": "withdrawMulti",
      "outputs": [],
      "stateMutability": "nonpayable",
      "type": "function"
    },
    {
      "inputs": [
        {
          "internalType": "address",
          "name": "_token",
          "type": "address"
        }
      ],
      "name": "withdrawable",
      "outputs": [
        {
          "internalType": "uint256",
          "name": "",
          "type": "uint256"
        }
      ],
      "stateMutability": "view",
      "type": "function"
    }
  ],
  "transactionHash": "0x2083704565aeaa1bd694d670e3b6360db350a18eaf8c2b7aad744405e919e073",
  "args": [
    "0x677ddbd918637E5F2c79e164D402454dE7dA8619"
  ],
  "solcInputHash": "40a5527d248d03a112545ff125be1878",
  "bytecode": "0x60a060405273c48ea9a2daa4d816e4c9333d6689c70070010174600260006101000a81548173ffffffffffffffffffffffffffffffffffffffff021916908373ffffffffffffffffffffffffffffffffffffffff1602179055503480156200006657600080fd5b50604051620060413803806200604183398181016040528101906200008c919062000ba8565b6001600081905550600073ffffffffffffffffffffffffffffffffffffffff168173ffffffffffffffffffffffffffffffffffffffff16141562000107576040517f08c379a0000000000000000000000000000000000000000000000000000000008152600401620000fe9062000e73565b60405180910390fd5b8073ffffffffffffffffffffffffffffffffffffffff1660808173ffffffffffffffffffffffffffffffffffffffff1660601b815250506200016862000152620002b160201b60201c565b6009620002b960201b620027c91790919060201c565b50620001b8736b175474e89094c44da98b954eedeac495271d0f735d3a536e4d6dbd6114cc1ead35777bab948e364373aed0c38402a5d19df6e4c03f4e2dced6e29c1ee9620002f160201b60201c565b6200020773a0b86991c6218b36c1d19d4a2e9eb0ce3606eb487339aa39c021dfbae8fac545936693ac917d5e7563738fffffd4afb6115b954bd326cbe7b4ba576818f6620002f160201b60201c565b6200025673dac17f958d2ee523a2206206994597c13d831ec773f650c3d88d12db855b8bf7d11be6c55a4e07dcc9733e7d1eab13ad0104d2750b8863b489d65364e32d620002f160201b60201c565b620002aa600260009054906101000a900473ffffffffffffffffffffffffffffffffffffffff167fffffffffffffffffffffffffffffffffffffffffffffffffffffffffffffffff620004fe60201b60201c565b5062001280565b600033905090565b6000620002e9836000018373ffffffffffffffffffffffffffffffffffffffff1660001b6200069c60201b60201c565b905092915050565b6200030c836005620002b960201b620027c91790919060201c565b6200034e576040517f08c379a0000000000000000000000000000000000000000000000000000000008152600401620003459062000eb7565b60405180910390fd5b62000369826007620002b960201b620027c91790919060201c565b620003ab576040517f08c379a0000000000000000000000000000000000000000000000000000000008152600401620003a29062000eb7565b60405180910390fd5b80600460008573ffffffffffffffffffffffffffffffffffffffff1673ffffffffffffffffffffffffffffffffffffffff16815260200190815260200160002060006101000a81548173ffffffffffffffffffffffffffffffffffffffff021916908373ffffffffffffffffffffffffffffffffffffffff16021790555081600360008573ffffffffffffffffffffffffffffffffffffffff1673ffffffffffffffffffffffffffffffffffffffff16815260200190815260200160002060006101000a81548173ffffffffffffffffffffffffffffffffffffffff021916908373ffffffffffffffffffffffffffffffffffffffff160217905550620004f9827fffffffffffffffffffffffffffffffffffffffffffffffffffffffffffffffff8573ffffffffffffffffffffffffffffffffffffffff166200071660201b620027f9179092919060201c565b505050565b60005b8273ffffffffffffffffffffffffffffffffffffffff1663c2fba6676040518163ffffffff1660e01b815260040160206040518083038186803b1580156200054857600080fd5b505afa1580156200055d573d6000803e3d6000fd5b505050506040513d601f19601f8201168201806040525081019062000583919062000c2c565b811015620006975762000681600260009054906101000a900473ffffffffffffffffffffffffffffffffffffffff1673ffffffffffffffffffffffffffffffffffffffff16636e74a6f7836040518263ffffffff1660e01b8152600401620005ec919062000f3f565b60206040518083038186803b1580156200060557600080fd5b505afa1580156200061a573d6000803e3d6000fd5b505050506040513d601f19601f8201168201806040525081019062000640919062000c00565b8373c00e94cb662c3520282e6f5717214004a7f2688873ffffffffffffffffffffffffffffffffffffffff166200071660201b620027f9179092919060201c565b80806200068e9062001022565b91505062000501565b505050565b6000620006b083836200088860201b60201c565b6200070b57826000018290806001815401808255809150506001900390600052602060002001600090919091909150558260000180549050836001016000848152602001908152602001600020819055506001905062000710565b600090505b92915050565b6000811480620007b6575060008373ffffffffffffffffffffffffffffffffffffffff1663dd62ed3e30856040518363ffffffff1660e01b81526004016200076092919062000df5565b60206040518083038186803b1580156200077957600080fd5b505afa1580156200078e573d6000803e3d6000fd5b505050506040513d601f19601f82011682018060405250810190620007b4919062000c2c565b145b620007f8576040517f08c379a0000000000000000000000000000000000000000000000000000000008152600401620007ef9062000f1d565b60405180910390fd5b620008838363095ea7b360e01b84846040516024016200081a92919062000e22565b604051602081830303815290604052907bffffffffffffffffffffffffffffffffffffffffffffffffffffffff19166020820180517bffffffffffffffffffffffffffffffffffffffffffffffffffffffff8381831617835250505050620008ab60201b60201c565b505050565b600080836001016000848152602001908152602001600020541415905092915050565b600062000914826040518060400160405280602081526020017f5361666545524332303a206c6f772d6c6576656c2063616c6c206661696c65648152508573ffffffffffffffffffffffffffffffffffffffff166200097f60201b62002957179092919060201c565b90506000815111156200097a578080602001905181019062000937919062000bd4565b62000979576040517f08c379a0000000000000000000000000000000000000000000000000000000008152600401620009709062000efb565b60405180910390fd5b5b505050565b60606200099684846000856200099f60201b60201c565b90509392505050565b606082471015620009e7576040517f08c379a0000000000000000000000000000000000000000000000000000000008152600401620009de9062000e95565b60405180910390fd5b620009f88562000acd60201b60201c565b62000a3a576040517f08c379a000000000000000000000000000000000000000000000000000000000815260040162000a319062000ed9565b60405180910390fd5b6000808673ffffffffffffffffffffffffffffffffffffffff16858760405162000a65919062000ddc565b60006040518083038185875af1925050503d806000811462000aa4576040519150601f19603f3d011682016040523d82523d6000602084013e62000aa9565b606091505b509150915062000ac182828662000ae060201b60201c565b92505050949350505050565b600080823b905060008111915050919050565b6060831562000af25782905062000b45565b60008351111562000b065782518084602001fd5b816040517f08c379a000000000000000000000000000000000000000000000000000000000815260040162000b3c919062000e4f565b60405180910390fd5b9392505050565b60008151905062000b5d8162001218565b92915050565b60008151905062000b748162001232565b92915050565b60008151905062000b8b816200124c565b92915050565b60008151905062000ba28162001266565b92915050565b60006020828403121562000bbb57600080fd5b600062000bcb8482850162000b4c565b91505092915050565b60006020828403121562000be757600080fd5b600062000bf78482850162000b63565b91505092915050565b60006020828403121562000c1357600080fd5b600062000c238482850162000b7a565b91505092915050565b60006020828403121562000c3f57600080fd5b600062000c4f8482850162000b91565b91505092915050565b62000c638162000f8e565b82525050565b600062000c768262000f5c565b62000c82818562000f72565b935062000c9481856020860162000fec565b80840191505092915050565b600062000cad8262000f67565b62000cb9818562000f7d565b935062000ccb81856020860162000fec565b62000cd6816200109f565b840191505092915050565b600062000cf060148362000f7d565b915062000cfd82620010b0565b602082019050919050565b600062000d1760268362000f7d565b915062000d2482620010d9565b604082019050919050565b600062000d3e60128362000f7d565b915062000d4b8262001128565b602082019050919050565b600062000d65601d8362000f7d565b915062000d728262001151565b602082019050919050565b600062000d8c602a8362000f7d565b915062000d99826200117a565b604082019050919050565b600062000db360368362000f7d565b915062000dc082620011c9565b604082019050919050565b62000dd68162000fe2565b82525050565b600062000dea828462000c69565b915081905092915050565b600060408201905062000e0c600083018562000c58565b62000e1b602083018462000c58565b9392505050565b600060408201905062000e39600083018562000c58565b62000e48602083018462000dcb565b9392505050565b6000602082019050818103600083015262000e6b818462000ca0565b905092915050565b6000602082019050818103600083015262000e8e8162000ce1565b9050919050565b6000602082019050818103600083015262000eb08162000d08565b9050919050565b6000602082019050818103600083015262000ed28162000d2f565b9050919050565b6000602082019050818103600083015262000ef48162000d56565b9050919050565b6000602082019050818103600083015262000f168162000d7d565b9050919050565b6000602082019050818103600083015262000f388162000da4565b9050919050565b600060208201905062000f56600083018462000dcb565b92915050565b600081519050919050565b600081519050919050565b600081905092915050565b600082825260208201905092915050565b600062000f9b8262000fc2565b9050919050565b60008115159050919050565b600062000fbb8262000f8e565b9050919050565b600073ffffffffffffffffffffffffffffffffffffffff82169050919050565b6000819050919050565b60005b838110156200100c57808201518184015260208101905062000fef565b838111156200101c576000848401525b50505050565b60006200102f8262000fe2565b91507fffffffffffffffffffffffffffffffffffffffffffffffffffffffffffffffff82141562001065576200106462001070565b5b600182019050919050565b7f4e487b7100000000000000000000000000000000000000000000000000000000600052601160045260246000fd5b6000601f19601f8301169050919050565b7f767573642d616464726573732d69732d7a65726f000000000000000000000000600082015250565b7f416464726573733a20696e73756666696369656e742062616c616e636520666f60008201527f722063616c6c0000000000000000000000000000000000000000000000000000602082015250565b7f6164642d696e2d6c6973742d6661696c65640000000000000000000000000000600082015250565b7f416464726573733a2063616c6c20746f206e6f6e2d636f6e7472616374000000600082015250565b7f5361666545524332303a204552433230206f7065726174696f6e20646964206e60008201527f6f74207375636365656400000000000000000000000000000000000000000000602082015250565b7f5361666545524332303a20617070726f76652066726f6d206e6f6e2d7a65726f60008201527f20746f206e6f6e2d7a65726f20616c6c6f77616e636500000000000000000000602082015250565b620012238162000f8e565b81146200122f57600080fd5b50565b6200123d8162000fa2565b81146200124957600080fd5b50565b620012578162000fae565b81146200126357600080fd5b50565b620012718162000fe2565b81146200127d57600080fd5b50565b60805160601c614d94620012ad60003960008181610664015281816124b301526126270152614d946000f3fe608060405234801561001057600080fd5b506004361061018e5760003560e01c80636a95385f116100de578063ab37f48611610097578063ce5494bb11610071578063ce5494bb14610459578063edac520314610475578063f3fef3a314610493578063ffa1ad74146104af5761018e565b8063ab37f486146103c9578063addd5099146103f9578063ce513b6f146104295761018e565b80636a95385f14610305578063709d039d146103235780637d138e13146103415780638c0b09d01461035d578063951dc22c1461038d578063a3f4df7e146103ab5761018e565b80634032b72b1161014b57806356f0693e1161012557806356f0693e146102935780635e1762a0146102af5780636568a279146102cd57806369328dec146102e95761018e565b80634032b72b1461023f578063428415311461025b5780634c36fad7146102775761018e565b806301681a62146101935780630c340a24146101af57806314ae9f2e146101cd5780631c88705d146101e957806320ab954e146102055780632ba29d3814610221575b600080fd5b6101ad60048036038101906101a891906137d9565b6104cd565b005b6101b7610660565b6040516101c49190613fb4565b60405180910390f35b6101e760048036038101906101e291906137d9565b610705565b005b61020360048036038101906101fe91906137d9565b6107d7565b005b61021f600480360381019061021a919061382b565b610aaa565b005b610229610c86565b6040516102369190613fb4565b60405180910390f35b610259600480360381019061025491906137d9565b610cac565b005b61027560048036038101906102709190613946565b610dee565b005b610291600480360381019061028c91906137d9565b610fba565b005b6102ad60048036038101906102a8919061387a565b6111bd565b005b6102b76117b4565b6040516102c49190614088565b60405180910390f35b6102e760048036038101906102e29190613905565b6117c5565b005b61030360048036038101906102fe91906138b6565b611c81565b005b61030d611dc2565b60405161031a9190614088565b60405180910390f35b61032b611dd3565b60405161033891906140c5565b60405180910390f35b61035b600480360381019061035691906137d9565b611df9565b005b610377600480360381019061037291906137d9565b612036565b6040516103849190613fb4565b60405180910390f35b610395612069565b6040516103a29190614088565b60405180910390f35b6103b361207a565b6040516103c091906140fb565b60405180910390f35b6103e360048036038101906103de91906137d9565b6120b3565b6040516103f091906140aa565b60405180910390f35b610413600480360381019061040e91906137d9565b6120d0565b6040516104209190613fb4565b60405180910390f35b610443600480360381019061043e91906137d9565b612103565b604051610450919061445d565b60405180910390f35b610473600480360381019061046e91906137d9565b612331565b005b61047d612625565b60405161048a91906140e0565b60405180910390f35b6104ad60048036038101906104a8919061387a565b612649565b005b6104b7612790565b6040516104c491906140fb565b60405180910390f35b6104d5610660565b73ffffffffffffffffffffffffffffffffffffffff166104f361296f565b73ffffffffffffffffffffffffffffffffffffffff1614610549576040517f08c379a00000000000000000000000000000000000000000000000000000000081526004016105409061421d565b60405180910390fd5b61055d81600761297790919063ffffffff16565b1561059d576040517f08c379a00000000000000000000000000000000000000000000000000000000081526004016105949061411d565b60405180910390fd5b60008173ffffffffffffffffffffffffffffffffffffffff166370a08231306040518263ffffffff1660e01b81526004016105d89190613fb4565b60206040518083038186803b1580156105f057600080fd5b505afa158015610604573d6000803e3d6000fd5b505050506040513d601f19601f820116820180604052508101906106289190613aac565b905061065c61063561296f565b828473ffffffffffffffffffffffffffffffffffffffff166129a79092919063ffffffff16565b5050565b60007f000000000000000000000000000000000000000000000000000000000000000073ffffffffffffffffffffffffffffffffffffffff16630c340a246040518163ffffffff1660e01b815260040160206040518083038186803b1580156106c857600080fd5b505afa1580156106dc573d6000803e3d6000fd5b505050506040513d601f19601f820116820180604052508101906107009190613802565b905090565b61070d610660565b73ffffffffffffffffffffffffffffffffffffffff1661072b61296f565b73ffffffffffffffffffffffffffffffffffffffff1614610781576040517f08c379a00000000000000000000000000000000000000000000000000000000081526004016107789061421d565b60405180910390fd5b610795816009612a2d90919063ffffffff16565b6107d4576040517f08c379a00000000000000000000000000000000000000000000000000000000081526004016107cb906141bd565b60405180910390fd5b50565b6107df610660565b73ffffffffffffffffffffffffffffffffffffffff166107fd61296f565b73ffffffffffffffffffffffffffffffffffffffff1614610853576040517f08c379a000000000000000000000000000000000000000000000000000000000815260040161084a9061421d565b60405180910390fd5b610867816005612a2d90919063ffffffff16565b6108a6576040517f08c379a000000000000000000000000000000000000000000000000000000000815260040161089d906142bd565b60405180910390fd5b610919600360008373ffffffffffffffffffffffffffffffffffffffff1673ffffffffffffffffffffffffffffffffffffffff16815260200190815260200160002060009054906101000a900473ffffffffffffffffffffffffffffffffffffffff166007612a2d90919063ffffffff16565b610958576040517f08c379a000000000000000000000000000000000000000000000000000000000815260040161094f906142bd565b60405180910390fd5b6109e3600360008373ffffffffffffffffffffffffffffffffffffffff1673ffffffffffffffffffffffffffffffffffffffff16815260200190815260200160002060009054906101000a900473ffffffffffffffffffffffffffffffffffffffff1660008373ffffffffffffffffffffffffffffffffffffffff166127f99092919063ffffffff16565b600360008273ffffffffffffffffffffffffffffffffffffffff1673ffffffffffffffffffffffffffffffffffffffff16815260200190815260200160002060006101000a81549073ffffffffffffffffffffffffffffffffffffffff0219169055600360008273ffffffffffffffffffffffffffffffffffffffff1673ffffffffffffffffffffffffffffffffffffffff16815260200190815260200160002060006101000a81549073ffffffffffffffffffffffffffffffffffffffff021916905550565b610ab2610660565b73ffffffffffffffffffffffffffffffffffffffff16610ad061296f565b73ffffffffffffffffffffffffffffffffffffffff1614610b26576040517f08c379a0000000000000000000000000000000000000000000000000000000008152600401610b1d9061421d565b60405180910390fd5b600073ffffffffffffffffffffffffffffffffffffffff168373ffffffffffffffffffffffffffffffffffffffff161415610b96576040517f08c379a0000000000000000000000000000000000000000000000000000000008152600401610b8d9061423d565b60405180910390fd5b600073ffffffffffffffffffffffffffffffffffffffff168273ffffffffffffffffffffffffffffffffffffffff161415610c06576040517f08c379a0000000000000000000000000000000000000000000000000000000008152600401610bfd9061413d565b60405180910390fd5b600073ffffffffffffffffffffffffffffffffffffffff168173ffffffffffffffffffffffffffffffffffffffff161415610c76576040517f08c379a0000000000000000000000000000000000000000000000000000000008152600401610c6d906142fd565b60405180910390fd5b610c81838383612a5d565b505050565b600160009054906101000a900473ffffffffffffffffffffffffffffffffffffffff1681565b610cb4610660565b73ffffffffffffffffffffffffffffffffffffffff16610cd261296f565b73ffffffffffffffffffffffffffffffffffffffff1614610d28576040517f08c379a0000000000000000000000000000000000000000000000000000000008152600401610d1f9061421d565b60405180910390fd5b600073ffffffffffffffffffffffffffffffffffffffff168173ffffffffffffffffffffffffffffffffffffffff161415610d98576040517f08c379a0000000000000000000000000000000000000000000000000000000008152600401610d8f9061443d565b60405180910390fd5b610dac8160096127c990919063ffffffff16565b610deb576040517f08c379a0000000000000000000000000000000000000000000000000000000008152600401610de29061415d565b60405180910390fd5b50565b60026000541415610e34576040517f08c379a0000000000000000000000000000000000000000000000000000000008152600401610e2b906143dd565b60405180910390fd5b6002600081905550610e44610660565b73ffffffffffffffffffffffffffffffffffffffff16610e6261296f565b73ffffffffffffffffffffffffffffffffffffffff1614610eb8576040517f08c379a0000000000000000000000000000000000000000000000000000000008152600401610eaf9061421d565b60405180910390fd5b8051825114610efc576040517f08c379a0000000000000000000000000000000000000000000000000000000008152600401610ef39061417d565b60405180910390fd5b60005b8251811015610fad57610f9a838281518110610f44577f4e487b7100000000000000000000000000000000000000000000000000000000600052603260045260246000fd5b6020026020010151838381518110610f85577f4e487b7100000000000000000000000000000000000000000000000000000000600052603260045260246000fd5b6020026020010151610f9561296f565b612c4f565b8080610fa59061477f565b915050610eff565b5060016000819055505050565b610fc2610660565b73ffffffffffffffffffffffffffffffffffffffff16610fe061296f565b73ffffffffffffffffffffffffffffffffffffffff1614611036576040517f08c379a000000000000000000000000000000000000000000000000000000000815260040161102d9061421d565b60405180910390fd5b600073ffffffffffffffffffffffffffffffffffffffff168173ffffffffffffffffffffffffffffffffffffffff1614156110a6576040517f08c379a000000000000000000000000000000000000000000000000000000000815260040161109d9061437d565b60405180910390fd5b8073ffffffffffffffffffffffffffffffffffffffff16600260009054906101000a900473ffffffffffffffffffffffffffffffffffffffff1673ffffffffffffffffffffffffffffffffffffffff167f2d19927e7cac08ceb98b38898a4fdff6da6a27295b9a2d62fe250408ebe044e160405160405180910390a361114f600260009054906101000a900473ffffffffffffffffffffffffffffffffffffffff166000612dfe565b611179817fffffffffffffffffffffffffffffffffffffffffffffffffffffffffffffffff612dfe565b80600260006101000a81548173ffffffffffffffffffffffffffffffffffffffff021916908373ffffffffffffffffffffffffffffffffffffffff16021790555050565b6111c5610660565b73ffffffffffffffffffffffffffffffffffffffff166111e361296f565b73ffffffffffffffffffffffffffffffffffffffff16148061121c575061121b61120b61296f565b600961297790919063ffffffff16565b5b61125b576040517f08c379a00000000000000000000000000000000000000000000000000000000081526004016112529061441d565b60405180910390fd5b61126f82600561297790919063ffffffff16565b6112ae576040517f08c379a00000000000000000000000000000000000000000000000000000000081526004016112a59061425d565b60405180910390fd5b733d9819210a31b4961b30ef54be2aed79b9c9cd3b73ffffffffffffffffffffffffffffffffffffffff16631c3db2e0306112e96007612f87565b6040518363ffffffff1660e01b815260040161130692919061402f565b600060405180830381600087803b15801561132057600080fd5b505af1158015611334573d6000803e3d6000fd5b50505050600073c00e94cb662c3520282e6f5717214004a7f2688873ffffffffffffffffffffffffffffffffffffffff166370a08231306040518263ffffffff1660e01b81526004016113879190613fb4565b60206040518083038186803b15801561139f57600080fd5b505afa1580156113b3573d6000803e3d6000fd5b505050506040513d601f19601f820116820180604052508101906113d79190613aac565b90506000806000600260009054906101000a900473ffffffffffffffffffffffffffffffffffffffff1673ffffffffffffffffffffffffffffffffffffffff1663e8f983c873c00e94cb662c3520282e6f5717214004a7f2688888876040518463ffffffff1660e01b815260040161145193929190613ff8565b60006040518083038186803b15801561146957600080fd5b505afa15801561147d573d6000803e3d6000fd5b505050506040513d6000823e3d601f19601f820116820180604052508101906114a691906139b2565b925092509250600082146115f857600260009054906101000a900473ffffffffffffffffffffffffffffffffffffffff1673ffffffffffffffffffffffffffffffffffffffff16636e74a6f7826040518263ffffffff1660e01b815260040161150f919061445d565b60206040518083038186803b15801561152757600080fd5b505afa15801561153b573d6000803e3d6000fd5b505050506040513d601f19601f8201168201806040525081019061155f9190613a83565b73ffffffffffffffffffffffffffffffffffffffff166338ed173985878630426040518663ffffffff1660e01b815260040161159f959493929190614478565b600060405180830381600087803b1580156115b957600080fd5b505af11580156115cd573d6000803e3d6000fd5b505050506040513d6000823e3d601f19601f820116820180604052508101906115f69190613a19565b505b6000600360008873ffffffffffffffffffffffffffffffffffffffff1673ffffffffffffffffffffffffffffffffffffffff16815260200190815260200160002060009054906101000a900473ffffffffffffffffffffffffffffffffffffffff1673ffffffffffffffffffffffffffffffffffffffff1663a0712d688873ffffffffffffffffffffffffffffffffffffffff166370a08231306040518263ffffffff1660e01b81526004016116ae9190613fb4565b60206040518083038186803b1580156116c657600080fd5b505afa1580156116da573d6000803e3d6000fd5b505050506040513d601f19601f820116820180604052508101906116fe9190613aac565b6040518263ffffffff1660e01b815260040161171a919061445d565b602060405180830381600087803b15801561173457600080fd5b505af1158015611748573d6000803e3d6000fd5b505050506040513d601f19601f8201168201806040525081019061176c9190613aac565b146117ac576040517f08c379a00000000000000000000000000000000000000000000000000000000081526004016117a3906143bd565b60405180910390fd5b505050505050565b60606117c06005612f87565b905090565b6002600054141561180b576040517f08c379a0000000000000000000000000000000000000000000000000000000008152600401611802906143dd565b60405180910390fd5b600260008190555061181b610660565b73ffffffffffffffffffffffffffffffffffffffff1661183961296f565b73ffffffffffffffffffffffffffffffffffffffff161461188f576040517f08c379a00000000000000000000000000000000000000000000000000000000081526004016118869061421d565b60405180910390fd5b60005b8151811015611c75576118ef8282815181106118d7577f4e487b7100000000000000000000000000000000000000000000000000000000600052603260045260246000fd5b6020026020010151600561297790919063ffffffff16565b61192e576040517f08c379a00000000000000000000000000000000000000000000000000000000081526004016119259061425d565b60405180910390fd5b60006003600084848151811061196d577f4e487b7100000000000000000000000000000000000000000000000000000000600052603260045260246000fd5b602002602001015173ffffffffffffffffffffffffffffffffffffffff1673ffffffffffffffffffffffffffffffffffffffff16815260200190815260200160002060009054906101000a900473ffffffffffffffffffffffffffffffffffffffff16905060008173ffffffffffffffffffffffffffffffffffffffff1663db006a758373ffffffffffffffffffffffffffffffffffffffff166370a08231306040518263ffffffff1660e01b8152600401611a299190613fb4565b60206040518083038186803b158015611a4157600080fd5b505afa158015611a55573d6000803e3d6000fd5b505050506040513d601f19601f82011682018060405250810190611a799190613aac565b6040518263ffffffff1660e01b8152600401611a95919061445d565b602060405180830381600087803b158015611aaf57600080fd5b505af1158015611ac3573d6000803e3d6000fd5b505050506040513d601f19601f82011682018060405250810190611ae79190613aac565b14611b27576040517f08c379a0000000000000000000000000000000000000000000000000000000008152600401611b1e9061433d565b60405180910390fd5b611c61611b3261296f565b848481518110611b6b577f4e487b7100000000000000000000000000000000000000000000000000000000600052603260045260246000fd5b602002602001015173ffffffffffffffffffffffffffffffffffffffff166370a08231306040518263ffffffff1660e01b8152600401611bab9190613fb4565b60206040518083038186803b158015611bc357600080fd5b505afa158015611bd7573d6000803e3d6000fd5b505050506040513d601f19601f82011682018060405250810190611bfb9190613aac565b858581518110611c34577f4e487b7100000000000000000000000000000000000000000000000000000000600052603260045260246000fd5b602002602001015173ffffffffffffffffffffffffffffffffffffffff166129a79092919063ffffffff16565b508080611c6d9061477f565b915050611892565b50600160008190555050565b60026000541415611cc7576040517f08c379a0000000000000000000000000000000000000000000000000000000008152600401611cbe906143dd565b60405180910390fd5b6002600081905550611cd7610660565b73ffffffffffffffffffffffffffffffffffffffff16611cf561296f565b73ffffffffffffffffffffffffffffffffffffffff161480611d6b5750600160009054906101000a900473ffffffffffffffffffffffffffffffffffffffff1673ffffffffffffffffffffffffffffffffffffffff16611d5361296f565b73ffffffffffffffffffffffffffffffffffffffff16145b611daa576040517f08c379a0000000000000000000000000000000000000000000000000000000008152600401611da19061441d565b60405180910390fd5b611db5838383612c4f565b6001600081905550505050565b6060611dce6007612f87565b905090565b600260009054906101000a900473ffffffffffffffffffffffffffffffffffffffff1681565b611e01610660565b73ffffffffffffffffffffffffffffffffffffffff16611e1f61296f565b73ffffffffffffffffffffffffffffffffffffffff1614611e75576040517f08c379a0000000000000000000000000000000000000000000000000000000008152600401611e6c9061421d565b60405180910390fd5b600073ffffffffffffffffffffffffffffffffffffffff168173ffffffffffffffffffffffffffffffffffffffff161415611ee5576040517f08c379a0000000000000000000000000000000000000000000000000000000008152600401611edc906141fd565b60405180910390fd5b8073ffffffffffffffffffffffffffffffffffffffff16600160009054906101000a900473ffffffffffffffffffffffffffffffffffffffff1673ffffffffffffffffffffffffffffffffffffffff161415611f76576040517f08c379a0000000000000000000000000000000000000000000000000000000008152600401611f6d9061429d565b60405180910390fd5b8073ffffffffffffffffffffffffffffffffffffffff16600160009054906101000a900473ffffffffffffffffffffffffffffffffffffffff1673ffffffffffffffffffffffffffffffffffffffff167fbb0958cd5add04c553a378aa342c839507b619a0459617e004c5d13602cfa72360405160405180910390a380600160006101000a81548173ffffffffffffffffffffffffffffffffffffffff021916908373ffffffffffffffffffffffffffffffffffffffff16021790555050565b60036020528060005260406000206000915054906101000a900473ffffffffffffffffffffffffffffffffffffffff1681565b60606120756009612f87565b905090565b6040518060400160405280600d81526020017f565553442d54726561737572790000000000000000000000000000000000000081525081565b60006120c982600561297790919063ffffffff16565b9050919050565b60046020528060005260406000206000915054906101000a900473ffffffffffffffffffffffffffffffffffffffff1681565b60008073ffffffffffffffffffffffffffffffffffffffff16600360008473ffffffffffffffffffffffffffffffffffffffff1673ffffffffffffffffffffffffffffffffffffffff16815260200190815260200160002060009054906101000a900473ffffffffffffffffffffffffffffffffffffffff1673ffffffffffffffffffffffffffffffffffffffff1614612327576000600360008473ffffffffffffffffffffffffffffffffffffffff1673ffffffffffffffffffffffffffffffffffffffff16815260200190815260200160002060009054906101000a900473ffffffffffffffffffffffffffffffffffffffff169050670de0b6b3a76400008173ffffffffffffffffffffffffffffffffffffffff1663182df0f56040518163ffffffff1660e01b815260040160206040518083038186803b15801561224a57600080fd5b505afa15801561225e573d6000803e3d6000fd5b505050506040513d601f19601f820116820180604052508101906122829190613aac565b8273ffffffffffffffffffffffffffffffffffffffff166370a08231306040518263ffffffff1660e01b81526004016122bb9190613fb4565b60206040518083038186803b1580156122d357600080fd5b505afa1580156122e7573d6000803e3d6000fd5b505050506040513d601f19601f8201168201806040525081019061230b9190613aac565b61231591906145eb565b61231f91906145ba565b91505061232c565b600090505b919050565b612339610660565b73ffffffffffffffffffffffffffffffffffffffff1661235761296f565b73ffffffffffffffffffffffffffffffffffffffff16146123ad576040517f08c379a00000000000000000000000000000000000000000000000000000000081526004016123a49061421d565b60405180910390fd5b600073ffffffffffffffffffffffffffffffffffffffff168173ffffffffffffffffffffffffffffffffffffffff16141561241d576040517f08c379a00000000000000000000000000000000000000000000000000000000081526004016124149061419d565b60405180910390fd5b8073ffffffffffffffffffffffffffffffffffffffff1663edac52036040518163ffffffff1660e01b815260040160206040518083038186803b15801561246357600080fd5b505afa158015612477573d6000803e3d6000fd5b505050506040513d601f19601f8201168201806040525081019061249b9190613802565b73ffffffffffffffffffffffffffffffffffffffff167f000000000000000000000000000000000000000000000000000000000000000073ffffffffffffffffffffffffffffffffffffffff1614612528576040517f08c379a000000000000000000000000000000000000000000000000000000000815260040161251f9061431d565b60405180910390fd5b60006125346007612fa8565b905060005b81811015612620576000612557826007612fbd90919063ffffffff16565b905061260c848273ffffffffffffffffffffffffffffffffffffffff166370a08231306040518263ffffffff1660e01b81526004016125969190613fb4565b60206040518083038186803b1580156125ae57600080fd5b505afa1580156125c2573d6000803e3d6000fd5b505050506040513d601f19601f820116820180604052508101906125e69190613aac565b8373ffffffffffffffffffffffffffffffffffffffff166129a79092919063ffffffff16565b5080806126189061477f565b915050612539565b505050565b7f000000000000000000000000000000000000000000000000000000000000000081565b6002600054141561268f576040517f08c379a0000000000000000000000000000000000000000000000000000000008152600401612686906143dd565b60405180910390fd5b600260008190555061269f610660565b73ffffffffffffffffffffffffffffffffffffffff166126bd61296f565b73ffffffffffffffffffffffffffffffffffffffff1614806127335750600160009054906101000a900473ffffffffffffffffffffffffffffffffffffffff1673ffffffffffffffffffffffffffffffffffffffff1661271b61296f565b73ffffffffffffffffffffffffffffffffffffffff16145b612772576040517f08c379a00000000000000000000000000000000000000000000000000000000081526004016127699061441d565b60405180910390fd5b612784828261277f61296f565b612c4f565b60016000819055505050565b6040518060400160405280600581526020017f312e332e3000000000000000000000000000000000000000000000000000000081525081565b60006127f1836000018373ffffffffffffffffffffffffffffffffffffffff1660001b612fd7565b905092915050565b6000811480612892575060008373ffffffffffffffffffffffffffffffffffffffff1663dd62ed3e30856040518363ffffffff1660e01b8152600401612840929190613fcf565b60206040518083038186803b15801561285857600080fd5b505afa15801561286c573d6000803e3d6000fd5b505050506040513d601f19601f820116820180604052508101906128909190613aac565b145b6128d1576040517f08c379a00000000000000000000000000000000000000000000000000000000081526004016128c8906143fd565b60405180910390fd5b6129528363095ea7b360e01b84846040516024016128f092919061405f565b604051602081830303815290604052907bffffffffffffffffffffffffffffffffffffffffffffffffffffffff19166020820180517bffffffffffffffffffffffffffffffffffffffffffffffffffffffff8381831617835250505050613047565b505050565b6060612966848460008561310e565b90509392505050565b600033905090565b600061299f836000018373ffffffffffffffffffffffffffffffffffffffff1660001b613222565b905092915050565b612a288363a9059cbb60e01b84846040516024016129c692919061405f565b604051602081830303815290604052907bffffffffffffffffffffffffffffffffffffffffffffffffffffffff19166020820180517bffffffffffffffffffffffffffffffffffffffffffffffffffffffff8381831617835250505050613047565b505050565b6000612a55836000018373ffffffffffffffffffffffffffffffffffffffff1660001b613245565b905092915050565b612a718360056127c990919063ffffffff16565b612ab0576040517f08c379a0000000000000000000000000000000000000000000000000000000008152600401612aa79061427d565b60405180910390fd5b612ac48260076127c990919063ffffffff16565b612b03576040517f08c379a0000000000000000000000000000000000000000000000000000000008152600401612afa9061427d565b60405180910390fd5b80600460008573ffffffffffffffffffffffffffffffffffffffff1673ffffffffffffffffffffffffffffffffffffffff16815260200190815260200160002060006101000a81548173ffffffffffffffffffffffffffffffffffffffff021916908373ffffffffffffffffffffffffffffffffffffffff16021790555081600360008573ffffffffffffffffffffffffffffffffffffffff1673ffffffffffffffffffffffffffffffffffffffff16815260200190815260200160002060006101000a81548173ffffffffffffffffffffffffffffffffffffffff021916908373ffffffffffffffffffffffffffffffffffffffff160217905550612c4a827fffffffffffffffffffffffffffffffffffffffffffffffffffffffffffffffff8573ffffffffffffffffffffffffffffffffffffffff166127f99092919063ffffffff16565b505050565b612c6383600561297790919063ffffffff16565b612ca2576040517f08c379a0000000000000000000000000000000000000000000000000000000008152600401612c999061425d565b60405180910390fd5b6000600360008573ffffffffffffffffffffffffffffffffffffffff1673ffffffffffffffffffffffffffffffffffffffff16815260200190815260200160002060009054906101000a900473ffffffffffffffffffffffffffffffffffffffff1673ffffffffffffffffffffffffffffffffffffffff1663852a12e3846040518263ffffffff1660e01b8152600401612d3c919061445d565b602060405180830381600087803b158015612d5657600080fd5b505af1158015612d6a573d6000803e3d6000fd5b505050506040513d601f19601f82011682018060405250810190612d8e9190613aac565b14612dce576040517f08c379a0000000000000000000000000000000000000000000000000000000008152600401612dc5906142dd565b60405180910390fd5b612df981838573ffffffffffffffffffffffffffffffffffffffff166129a79092919063ffffffff16565b505050565b60005b8273ffffffffffffffffffffffffffffffffffffffff1663c2fba6676040518163ffffffff1660e01b815260040160206040518083038186803b158015612e4757600080fd5b505afa158015612e5b573d6000803e3d6000fd5b505050506040513d601f19601f82011682018060405250810190612e7f9190613aac565b811015612f8257612f6f600260009054906101000a900473ffffffffffffffffffffffffffffffffffffffff1673ffffffffffffffffffffffffffffffffffffffff16636e74a6f7836040518263ffffffff1660e01b8152600401612ee4919061445d565b60206040518083038186803b158015612efc57600080fd5b505afa158015612f10573d6000803e3d6000fd5b505050506040513d601f19601f82011682018060405250810190612f349190613a83565b8373c00e94cb662c3520282e6f5717214004a7f2688873ffffffffffffffffffffffffffffffffffffffff166127f99092919063ffffffff16565b8080612f7a9061477f565b915050612e01565b505050565b60606000612f97836000016133cb565b905060608190508092505050919050565b6000612fb682600001613427565b9050919050565b6000612fcc8360000183613438565b60001c905092915050565b6000612fe38383613222565b61303c578260000182908060018154018082558091505060019003906000526020600020016000909190919091505582600001805490508360010160008481526020019081526020016000208190555060019050613041565b600090505b92915050565b60006130a9826040518060400160405280602081526020017f5361666545524332303a206c6f772d6c6576656c2063616c6c206661696c65648152508573ffffffffffffffffffffffffffffffffffffffff166129579092919063ffffffff16565b905060008151111561310957808060200190518101906130c99190613a5a565b613108576040517f08c379a00000000000000000000000000000000000000000000000000000000081526004016130ff9061439d565b60405180910390fd5b5b505050565b606082471015613153576040517f08c379a000000000000000000000000000000000000000000000000000000000815260040161314a906141dd565b60405180910390fd5b61315c85613489565b61319b576040517f08c379a00000000000000000000000000000000000000000000000000000000081526004016131929061435d565b60405180910390fd5b6000808673ffffffffffffffffffffffffffffffffffffffff1685876040516131c49190613f9d565b60006040518083038185875af1925050503d8060008114613201576040519150601f19603f3d011682016040523d82523d6000602084013e613206565b606091505b509150915061321682828661349c565b92505050949350505050565b600080836001016000848152602001908152602001600020541415905092915050565b600080836001016000848152602001908152602001600020549050600081146133bf5760006001826132779190614645565b905060006001866000018054905061328f9190614645565b905081811461334a5760008660000182815481106132d6577f4e487b7100000000000000000000000000000000000000000000000000000000600052603260045260246000fd5b9060005260206000200154905080876000018481548110613320577f4e487b7100000000000000000000000000000000000000000000000000000000600052603260045260246000fd5b90600052602060002001819055508387600101600083815260200190815260200160002081905550505b85600001805480613384577f4e487b7100000000000000000000000000000000000000000000000000000000600052603160045260246000fd5b6001900381819060005260206000200160009055905585600101600086815260200190815260200160002060009055600193505050506133c5565b60009150505b92915050565b60608160000180548060200260200160405190810160405280929190818152602001828054801561341b57602002820191906000526020600020905b815481526020019060010190808311613407575b50505050509050919050565b600081600001805490509050919050565b6000826000018281548110613476577f4e487b7100000000000000000000000000000000000000000000000000000000600052603260045260246000fd5b9060005260206000200154905092915050565b600080823b905060008111915050919050565b606083156134ac578290506134fc565b6000835111156134bf5782518084602001fd5b816040517f08c379a00000000000000000000000000000000000000000000000000000000081526004016134f391906140fb565b60405180910390fd5b9392505050565b6000613516613511846144f7565b6144d2565b9050808382526020820190508285602086028201111561353557600080fd5b60005b85811015613565578161354b88826136b3565b845260208401935060208301925050600181019050613538565b5050509392505050565b600061358261357d846144f7565b6144d2565b905080838252602082019050828560208602820111156135a157600080fd5b60005b858110156135d157816135b788826136c8565b8452602084019350602083019250506001810190506135a4565b5050509392505050565b60006135ee6135e984614523565b6144d2565b9050808382526020820190508285602086028201111561360d57600080fd5b60005b8581101561363d578161362388826137af565b845260208401935060208301925050600181019050613610565b5050509392505050565b600061365a61365584614523565b6144d2565b9050808382526020820190508285602086028201111561367957600080fd5b60005b858110156136a9578161368f88826137c4565b84526020840193506020830192505060018101905061367c565b5050509392505050565b6000813590506136c281614d02565b92915050565b6000815190506136d781614d02565b92915050565b600082601f8301126136ee57600080fd5b81356136fe848260208601613503565b91505092915050565b600082601f83011261371857600080fd5b815161372884826020860161356f565b91505092915050565b600082601f83011261374257600080fd5b81356137528482602086016135db565b91505092915050565b600082601f83011261376c57600080fd5b815161377c848260208601613647565b91505092915050565b60008151905061379481614d19565b92915050565b6000815190506137a981614d30565b92915050565b6000813590506137be81614d47565b92915050565b6000815190506137d381614d47565b92915050565b6000602082840312156137eb57600080fd5b60006137f9848285016136b3565b91505092915050565b60006020828403121561381457600080fd5b6000613822848285016136c8565b91505092915050565b60008060006060848603121561384057600080fd5b600061384e868287016136b3565b935050602061385f868287016136b3565b9250506040613870868287016136b3565b9150509250925092565b6000806040838503121561388d57600080fd5b600061389b858286016136b3565b92505060206138ac858286016137af565b9150509250929050565b6000806000606084860312156138cb57600080fd5b60006138d9868287016136b3565b93505060206138ea868287016137af565b92505060406138fb868287016136b3565b9150509250925092565b60006020828403121561391757600080fd5b600082013567ffffffffffffffff81111561393157600080fd5b61393d848285016136dd565b91505092915050565b6000806040838503121561395957600080fd5b600083013567ffffffffffffffff81111561397357600080fd5b61397f858286016136dd565b925050602083013567ffffffffffffffff81111561399c57600080fd5b6139a885828601613731565b9150509250929050565b6000806000606084860312156139c757600080fd5b600084015167ffffffffffffffff8111156139e157600080fd5b6139ed86828701613707565b93505060206139fe868287016137c4565b9250506040613a0f868287016137c4565b9150509250925092565b600060208284031215613a2b57600080fd5b600082015167ffffffffffffffff811115613a4557600080fd5b613a518482850161375b565b91505092915050565b600060208284031215613a6c57600080fd5b6000613a7a84828501613785565b91505092915050565b600060208284031215613a9557600080fd5b6000613aa38482850161379a565b91505092915050565b600060208284031215613abe57600080fd5b6000613acc848285016137c4565b91505092915050565b6000613ae18383613aed565b60208301905092915050565b613af681614679565b82525050565b613b0581614679565b82525050565b6000613b168261455f565b613b20818561458d565b9350613b2b8361454f565b8060005b83811015613b5c578151613b438882613ad5565b9750613b4e83614580565b925050600181019050613b2f565b5085935050505092915050565b613b728161468b565b82525050565b6000613b838261456a565b613b8d818561459e565b9350613b9d81856020860161471b565b80840191505092915050565b613bb2816146d3565b82525050565b613bc1816146f7565b82525050565b6000613bd282614575565b613bdc81856145a9565b9350613bec81856020860161471b565b613bf581614855565b840191505092915050565b6000613c0d601e836145a9565b9150613c1882614866565b602082019050919050565b6000613c306016836145a9565b9150613c3b8261488f565b602082019050919050565b6000613c536011836145a9565b9150613c5e826148b8565b602082019050919050565b6000613c766015836145a9565b9150613c81826148e1565b602082019050919050565b6000613c99601c836145a9565b9150613ca48261490a565b602082019050919050565b6000613cbc6014836145a9565b9150613cc782614933565b602082019050919050565b6000613cdf6026836145a9565b9150613cea8261495c565b604082019050919050565b6000613d026018836145a9565b9150613d0d826149ab565b602082019050919050565b6000613d25601a836145a9565b9150613d30826149d4565b602082019050919050565b6000613d486015836145a9565b9150613d53826149fd565b602082019050919050565b6000613d6b6016836145a9565b9150613d7682614a26565b602082019050919050565b6000613d8e6012836145a9565b9150613d9982614a4f565b602082019050919050565b6000613db1600d836145a9565b9150613dbc82614a78565b602082019050919050565b6000613dd46017836145a9565b9150613ddf82614aa1565b602082019050919050565b6000613df76018836145a9565b9150613e0282614aca565b602082019050919050565b6000613e1a6016836145a9565b9150613e2582614af3565b602082019050919050565b6000613e3d600d836145a9565b9150613e4882614b1c565b602082019050919050565b6000613e60600d836145a9565b9150613e6b82614b45565b602082019050919050565b6000613e83601d836145a9565b9150613e8e82614b6e565b602082019050919050565b6000613ea6601c836145a9565b9150613eb182614b97565b602082019050919050565b6000613ec9602a836145a9565b9150613ed482614bc0565b604082019050919050565b6000613eec6012836145a9565b9150613ef782614c0f565b602082019050919050565b6000613f0f601f836145a9565b9150613f1a82614c38565b602082019050919050565b6000613f326036836145a9565b9150613f3d82614c61565b604082019050919050565b6000613f556018836145a9565b9150613f6082614cb0565b602082019050919050565b6000613f786016836145a9565b9150613f8382614cd9565b602082019050919050565b613f97816146c9565b82525050565b6000613fa98284613b78565b915081905092915050565b6000602082019050613fc96000830184613afc565b92915050565b6000604082019050613fe46000830185613afc565b613ff16020830184613afc565b9392505050565b600060608201905061400d6000830186613afc565b61401a6020830185613afc565b6140276040830184613f8e565b949350505050565b60006040820190506140446000830185613afc565b81810360208301526140568184613b0b565b90509392505050565b60006040820190506140746000830185613afc565b6140816020830184613f8e565b9392505050565b600060208201905081810360008301526140a28184613b0b565b905092915050565b60006020820190506140bf6000830184613b69565b92915050565b60006020820190506140da6000830184613ba9565b92915050565b60006020820190506140f56000830184613bb8565b92915050565b600060208201905081810360008301526141158184613bc7565b905092915050565b6000602082019050818103600083015261413681613c00565b9050919050565b6000602082019050818103600083015261415681613c23565b9050919050565b6000602082019050818103600083015261417681613c46565b9050919050565b6000602082019050818103600083015261419681613c69565b9050919050565b600060208201905081810360008301526141b681613c8c565b9050919050565b600060208201905081810360008301526141d681613caf565b9050919050565b600060208201905081810360008301526141f681613cd2565b9050919050565b6000602082019050818103600083015261421681613cf5565b9050919050565b6000602082019050818103600083015261423681613d18565b9050919050565b6000602082019050818103600083015261425681613d3b565b9050919050565b6000602082019050818103600083015261427681613d5e565b9050919050565b6000602082019050818103600083015261429681613d81565b9050919050565b600060208201905081810360008301526142b681613da4565b9050919050565b600060208201905081810360008301526142d681613dc7565b9050919050565b600060208201905081810360008301526142f681613dea565b9050919050565b6000602082019050818103600083015261431681613e0d565b9050919050565b6000602082019050818103600083015261433681613e30565b9050919050565b6000602082019050818103600083015261435681613e53565b9050919050565b6000602082019050818103600083015261437681613e76565b9050919050565b6000602082019050818103600083015261439681613e99565b9050919050565b600060208201905081810360008301526143b681613ebc565b9050919050565b600060208201905081810360008301526143d681613edf565b9050919050565b600060208201905081810360008301526143f681613f02565b9050919050565b6000602082019050818103600083015261441681613f25565b9050919050565b6000602082019050818103600083015261443681613f48565b9050919050565b6000602082019050818103600083015261445681613f6b565b9050919050565b60006020820190506144726000830184613f8e565b92915050565b600060a08201905061448d6000830188613f8e565b61449a6020830187613f8e565b81810360408301526144ac8186613b0b565b90506144bb6060830185613afc565b6144c86080830184613f8e565b9695505050505050565b60006144dc6144ed565b90506144e8828261474e565b919050565b6000604051905090565b600067ffffffffffffffff82111561451257614511614826565b5b602082029050602081019050919050565b600067ffffffffffffffff82111561453e5761453d614826565b5b602082029050602081019050919050565b6000819050602082019050919050565b600081519050919050565b600081519050919050565b600081519050919050565b6000602082019050919050565b600082825260208201905092915050565b600081905092915050565b600082825260208201905092915050565b60006145c5826146c9565b91506145d0836146c9565b9250826145e0576145df6147f7565b5b828204905092915050565b60006145f6826146c9565b9150614601836146c9565b9250817fffffffffffffffffffffffffffffffffffffffffffffffffffffffffffffffff048311821515161561463a576146396147c8565b5b828202905092915050565b6000614650826146c9565b915061465b836146c9565b92508282101561466e5761466d6147c8565b5b828203905092915050565b6000614684826146a9565b9050919050565b60008115159050919050565b60006146a282614679565b9050919050565b600073ffffffffffffffffffffffffffffffffffffffff82169050919050565b6000819050919050565b60006146de826146e5565b9050919050565b60006146f0826146a9565b9050919050565b600061470282614709565b9050919050565b6000614714826146a9565b9050919050565b60005b8381101561473957808201518184015260208101905061471e565b83811115614748576000848401525b50505050565b61475782614855565b810181811067ffffffffffffffff8211171561477657614775614826565b5b80604052505050565b600061478a826146c9565b91507fffffffffffffffffffffffffffffffffffffffffffffffffffffffffffffffff8214156147bd576147bc6147c8565b5b600182019050919050565b7f4e487b7100000000000000000000000000000000000000000000000000000000600052601160045260246000fd5b7f4e487b7100000000000000000000000000000000000000000000000000000000600052601260045260246000fd5b7f4e487b7100000000000000000000000000000000000000000000000000000000600052604160045260246000fd5b6000601f19601f8301169050919050565b7f63546f6b656e2d69732d6e6f742d616c6c6f7765642d746f2d73776565700000600082015250565b7f63546f6b656e2d616464726573732d69732d7a65726f00000000000000000000600082015250565b7f6164642d6b65657065722d6661696c6564000000000000000000000000000000600082015250565b7f696e7075742d6c656e6774682d6d69736d617463680000000000000000000000600082015250565b7f6e65772d74726561737572792d616464726573732d69732d7a65726f00000000600082015250565b7f72656d6f76652d6b65657065722d6661696c6564000000000000000000000000600082015250565b7f416464726573733a20696e73756666696369656e742062616c616e636520666f60008201527f722063616c6c0000000000000000000000000000000000000000000000000000602082015250565b7f72656465656d65722d616464726573732d69732d7a65726f0000000000000000600082015250565b7f63616c6c65722d69732d6e6f742d7468652d676f7665726e6f72000000000000600082015250565b7f746f6b656e2d616464726573732d69732d7a65726f0000000000000000000000600082015250565b7f746f6b656e2d69732d6e6f742d737570706f7274656400000000000000000000600082015250565b7f6164642d696e2d6c6973742d6661696c65640000000000000000000000000000600082015250565b7f73616d652d72656465656d657200000000000000000000000000000000000000600082015250565b7f72656d6f76652d66726f6d2d6c6973742d6661696c6564000000000000000000600082015250565b7f72656465656d2d756e6465726c79696e672d6661696c65640000000000000000600082015250565b7f6f7261636c652d616464726573732d69732d7a65726f00000000000000000000600082015250565b7f767573642d6d69736d6174636800000000000000000000000000000000000000600082015250565b7f72656465656d2d6661696c656400000000000000000000000000000000000000600082015250565b7f416464726573733a2063616c6c20746f206e6f6e2d636f6e7472616374000000600082015250565b7f737761702d6d616e616765722d616464726573732d69732d7a65726f00000000600082015250565b7f5361666545524332303a204552433230206f7065726174696f6e20646964206e60008201527f6f74207375636365656400000000000000000000000000000000000000000000602082015250565b7f63546f6b656e2d6d696e742d6661696c65640000000000000000000000000000600082015250565b7f5265656e7472616e637947756172643a207265656e7472616e742063616c6c00600082015250565b7f5361666545524332303a20617070726f76652066726f6d206e6f6e2d7a65726f60008201527f20746f206e6f6e2d7a65726f20616c6c6f77616e636500000000000000000000602082015250565b7f63616c6c65722d69732d6e6f742d617574686f72697a65640000000000000000600082015250565b7f6b65657065722d616464726573732d69732d7a65726f00000000000000000000600082015250565b614d0b81614679565b8114614d1657600080fd5b50565b614d228161468b565b8114614d2d57600080fd5b50565b614d3981614697565b8114614d4457600080fd5b50565b614d50816146c9565b8114614d5b57600080fd5b5056fea2646970667358221220faee0de023a6609ddb06e8eb88495b5593181355a48e2c992dcc66d18e19dae964736f6c63430008030033",
  "devdoc": {
    "kind": "dev",
    "methods": {
      "addKeeper(address)": {
        "params": {
          "_keeperAddress": "keeper address to add."
        }
      },
      "addWhitelistedToken(address,address,address)": {
        "details": "Add token address in whitelistedTokens list and add cToken in mapping",
        "params": {
          "_cToken": "CToken address correspond to _token",
          "_oracle": "Chainlink oracle address for token/USD feed",
          "_token": "address which we want to add in token list."
        }
      },
      "claimCompAndConvertTo(address,uint256)": {
        "params": {
          "_minOut": "Minimum _toToken expected after conversion",
          "_toToken": "COMP will be swapped to _toToken"
        }
      },
      "governor()": {
        "details": "Governor is defined in VUSD token contract only"
      },
      "migrate(address)": {
        "params": {
          "_newTreasury": "Address of new treasury of VUSD system"
        }
      },
      "removeKeeper(address)": {
        "params": {
          "_keeperAddress": "keeper address to remove."
        }
      },
      "removeWhitelistedToken(address)": {
        "details": "Removing token even if treasury has some balance of that token is intended behavior.",
        "params": {
          "_token": "address which we want to remove from token list."
        }
      },
      "sweep(address)": {
        "details": "OnlyGovernor can call this and CTokens are not allowed to sweep",
        "params": {
          "_fromToken": "Token address to sweep"
        }
      },
      "updateRedeemer(address)": {
        "params": {
          "_newRedeemer": "new redeemer address"
        }
      },
      "updateSwapManager(address)": {
        "params": {
          "_newSwapManager": "new swap manager address"
        }
      },
      "withdraw(address,uint256)": {
        "details": "Only Redeemer and Governor are allowed to call",
        "params": {
          "_amount": "token amount to withdraw",
          "_token": "Token to withdraw, it should be 1 of the supported tokens."
        }
      },
      "withdraw(address,uint256,address)": {
        "details": "Only Redeemer and Governor are allowed to call",
        "params": {
          "_amount": "token amount to withdraw",
          "_token": "Token to withdraw, it should be 1 of the supported tokens.",
          "_tokenReceiver": "Address of token receiver"
        }
      },
      "withdrawAll(address[])": {
        "details": "Only Governor is allowed to call.",
        "params": {
          "_tokens": "Array of token addresses, tokens should be supported tokens."
        }
      },
      "withdrawMulti(address[],uint256[])": {
        "details": "Only Governor is allowed to call._tokens and _amounts array are 1:1 and should have same length",
        "params": {
          "_amounts": "Array of token amount to withdraw",
          "_tokens": "Array of token addresses, tokens should be supported tokens."
        }
      },
      "withdrawable(address)": {
        "params": {
          "_token": "Token to withdraw"
        }
      }
    },
    "title": "VUSD Treasury, It stores cTokens and redeem those from Compound as needed.",
    "version": 1
  },
  "userdoc": {
    "kind": "user",
    "methods": {
      "addKeeper(address)": {
        "notice": "Add given address in keepers list."
      },
      "addWhitelistedToken(address,address,address)": {
        "notice": "Add token into treasury management system"
      },
      "cTokenList()": {
        "notice": "Return list of cTokens"
      },
      "claimCompAndConvertTo(address,uint256)": {
        "notice": "Claim comp from all markets and convert to given token. Also deposit those tokens to Compound"
      },
      "isWhitelistedToken(address)": {
        "notice": "Returns whether given address is whitelisted or not"
      },
      "keepers()": {
        "notice": "Return list of keepers"
      },
      "migrate(address)": {
        "notice": "Migrate assets to new treasury"
      },
      "removeKeeper(address)": {
        "notice": "Remove given address from keepers list."
      },
      "removeWhitelistedToken(address)": {
        "notice": "Remove token from treasury management system"
      },
      "sweep(address)": {
        "notice": "Sweep any ERC20 token to governor address"
      },
      "updateRedeemer(address)": {
        "notice": "Update redeemer address"
      },
      "updateSwapManager(address)": {
        "notice": "Update swap manager address"
      },
      "whitelistedTokens()": {
        "notice": "Return list of whitelisted tokens"
      },
      "withdraw(address,uint256)": {
        "notice": "Withdraw given amount of token."
      },
      "withdraw(address,uint256,address)": {
        "notice": "Withdraw given amount of token."
      },
      "withdrawAll(address[])": {
        "notice": "Withdraw all of multiple tokens."
      },
      "withdrawMulti(address[],uint256[])": {
        "notice": "Withdraw multiple tokens."
      },
      "withdrawable(address)": {
        "notice": "Current withdrawable amount for given token. If token is not supported by treasury, no cTokens in mapping, it will return 0."
      }
    },
    "version": 1
  },
  "storageLayout": {
    "storage": [
      {
        "astId": 10,
        "contract": "contracts/Treasury.sol:Treasury",
        "label": "_status",
        "offset": 0,
        "slot": "0",
        "type": "t_uint256"
      },
      {
        "astId": 4178,
        "contract": "contracts/Treasury.sol:Treasury",
        "label": "redeemer",
        "offset": 0,
        "slot": "1",
        "type": "t_address"
      },
      {
        "astId": 4184,
        "contract": "contracts/Treasury.sol:Treasury",
        "label": "swapManager",
        "offset": 0,
        "slot": "2",
        "type": "t_contract(ISwapManager)5805"
      },
      {
        "astId": 4188,
        "contract": "contracts/Treasury.sol:Treasury",
        "label": "cTokens",
        "offset": 0,
        "slot": "3",
        "type": "t_mapping(t_address,t_address)"
      },
      {
        "astId": 4192,
        "contract": "contracts/Treasury.sol:Treasury",
        "label": "oracles",
        "offset": 0,
        "slot": "4",
        "type": "t_mapping(t_address,t_address)"
      },
      {
        "astId": 4204,
        "contract": "contracts/Treasury.sol:Treasury",
        "label": "_whitelistedTokens",
        "offset": 0,
        "slot": "5",
        "type": "t_struct(AddressSet)2631_storage"
      },
      {
        "astId": 4207,
        "contract": "contracts/Treasury.sol:Treasury",
        "label": "_cTokenList",
        "offset": 0,
        "slot": "7",
        "type": "t_struct(AddressSet)2631_storage"
      },
      {
        "astId": 4210,
        "contract": "contracts/Treasury.sol:Treasury",
        "label": "_keepers",
        "offset": 0,
        "slot": "9",
        "type": "t_struct(AddressSet)2631_storage"
      }
    ],
    "types": {
      "t_address": {
        "encoding": "inplace",
        "label": "address",
        "numberOfBytes": "20"
      },
      "t_array(t_bytes32)dyn_storage": {
        "base": "t_bytes32",
        "encoding": "dynamic_array",
        "label": "bytes32[]",
        "numberOfBytes": "32"
      },
      "t_bytes32": {
        "encoding": "inplace",
        "label": "bytes32",
        "numberOfBytes": "32"
      },
      "t_contract(ISwapManager)5805": {
        "encoding": "inplace",
        "label": "contract ISwapManager",
        "numberOfBytes": "20"
      },
      "t_mapping(t_address,t_address)": {
        "encoding": "mapping",
        "key": "t_address",
        "label": "mapping(address => address)",
        "numberOfBytes": "32",
        "value": "t_address"
      },
      "t_mapping(t_bytes32,t_uint256)": {
        "encoding": "mapping",
        "key": "t_bytes32",
        "label": "mapping(bytes32 => uint256)",
        "numberOfBytes": "32",
        "value": "t_uint256"
      },
      "t_struct(AddressSet)2631_storage": {
        "encoding": "inplace",
        "label": "struct EnumerableSet.AddressSet",
        "members": [
          {
            "astId": 2630,
            "contract": "contracts/Treasury.sol:Treasury",
            "label": "_inner",
            "offset": 0,
            "slot": "0",
            "type": "t_struct(Set)2330_storage"
          }
        ],
        "numberOfBytes": "64"
      },
      "t_struct(Set)2330_storage": {
        "encoding": "inplace",
        "label": "struct EnumerableSet.Set",
        "members": [
          {
            "astId": 2325,
            "contract": "contracts/Treasury.sol:Treasury",
            "label": "_values",
            "offset": 0,
            "slot": "0",
            "type": "t_array(t_bytes32)dyn_storage"
          },
          {
            "astId": 2329,
            "contract": "contracts/Treasury.sol:Treasury",
            "label": "_indexes",
            "offset": 0,
            "slot": "1",
            "type": "t_mapping(t_bytes32,t_uint256)"
          }
        ],
        "numberOfBytes": "64"
      },
      "t_uint256": {
        "encoding": "inplace",
        "label": "uint256",
        "numberOfBytes": "32"
      }
    }
  }
}