{
  "address": "0x8B609C2502202Cbd828B9dD2E13A9Df23214b9d9",
  "abi": [
    {
      "inputs": [
        {
          "internalType": "address",
          "name": "_vusd",
          "type": "address"
        }
      ],
      "stateMutability": "nonpayable",
      "type": "constructor"
    },
    {
      "anonymous": false,
      "inputs": [
        {
          "indexed": true,
          "internalType": "address",
          "name": "previousRedeemer",
          "type": "address"
        },
        {
          "indexed": true,
          "internalType": "address",
          "name": "newRedeemer",
          "type": "address"
        }
      ],
      "name": "UpdatedRedeemer",
      "type": "event"
    },
    {
      "anonymous": false,
      "inputs": [
        {
          "indexed": true,
          "internalType": "address",
          "name": "previousSwapManager",
          "type": "address"
        },
        {
          "indexed": true,
          "internalType": "address",
          "name": "newSwapManager",
          "type": "address"
        }
      ],
      "name": "UpdatedSwapManager",
      "type": "event"
    },
    {
      "inputs": [],
      "name": "NAME",
      "outputs": [
        {
          "internalType": "string",
          "name": "",
          "type": "string"
        }
      ],
      "stateMutability": "view",
      "type": "function"
    },
    {
      "inputs": [],
      "name": "VERSION",
      "outputs": [
        {
          "internalType": "string",
          "name": "",
          "type": "string"
        }
      ],
      "stateMutability": "view",
      "type": "function"
    },
    {
      "inputs": [
        {
          "internalType": "address",
          "name": "_keeperAddress",
          "type": "address"
        }
      ],
      "name": "addKeeper",
      "outputs": [],
      "stateMutability": "nonpayable",
      "type": "function"
    },
    {
      "inputs": [
        {
          "internalType": "address",
          "name": "_token",
          "type": "address"
        },
        {
          "internalType": "address",
          "name": "_cToken",
          "type": "address"
        }
      ],
      "name": "addWhitelistedToken",
      "outputs": [],
      "stateMutability": "nonpayable",
      "type": "function"
    },
    {
      "inputs": [],
      "name": "cTokenList",
      "outputs": [
        {
          "internalType": "contract IAddressList",
          "name": "",
          "type": "address"
        }
      ],
      "stateMutability": "view",
      "type": "function"
    },
    {
      "inputs": [
        {
          "internalType": "address",
          "name": "",
          "type": "address"
        }
      ],
      "name": "cTokens",
      "outputs": [
        {
          "internalType": "address",
          "name": "",
          "type": "address"
        }
      ],
      "stateMutability": "view",
      "type": "function"
    },
    {
      "inputs": [
        {
          "internalType": "address",
          "name": "_toToken",
          "type": "address"
        },
        {
          "internalType": "uint256",
          "name": "_minOut",
          "type": "uint256"
        }
      ],
      "name": "claimCompAndConvertTo",
      "outputs": [],
      "stateMutability": "nonpayable",
      "type": "function"
    },
    {
      "inputs": [],
      "name": "governor",
      "outputs": [
        {
          "internalType": "address",
          "name": "",
          "type": "address"
        }
      ],
      "stateMutability": "view",
      "type": "function"
    },
    {
      "inputs": [],
      "name": "keepers",
      "outputs": [
        {
          "internalType": "contract IAddressList",
          "name": "",
          "type": "address"
        }
      ],
      "stateMutability": "view",
      "type": "function"
    },
    {
      "inputs": [
        {
          "internalType": "address",
          "name": "_newTreasury",
          "type": "address"
        }
      ],
      "name": "migrate",
      "outputs": [],
      "stateMutability": "nonpayable",
      "type": "function"
    },
    {
      "inputs": [],
      "name": "redeemer",
      "outputs": [
        {
          "internalType": "address",
          "name": "",
          "type": "address"
        }
      ],
      "stateMutability": "view",
      "type": "function"
    },
    {
      "inputs": [
        {
          "internalType": "address",
          "name": "_keeperAddress",
          "type": "address"
        }
      ],
      "name": "removeKeeper",
      "outputs": [],
      "stateMutability": "nonpayable",
      "type": "function"
    },
    {
      "inputs": [
        {
          "internalType": "address",
          "name": "_token",
          "type": "address"
        }
      ],
      "name": "removeWhitelistedToken",
      "outputs": [],
      "stateMutability": "nonpayable",
      "type": "function"
    },
    {
      "inputs": [],
      "name": "swapManager",
      "outputs": [
        {
          "internalType": "contract ISwapManager",
          "name": "",
          "type": "address"
        }
      ],
      "stateMutability": "view",
      "type": "function"
    },
    {
      "inputs": [
        {
          "internalType": "address",
          "name": "_fromToken",
          "type": "address"
        }
      ],
      "name": "sweep",
      "outputs": [],
      "stateMutability": "nonpayable",
      "type": "function"
    },
    {
      "inputs": [
        {
          "internalType": "address",
          "name": "_newRedeemer",
          "type": "address"
        }
      ],
      "name": "updateRedeemer",
      "outputs": [],
      "stateMutability": "nonpayable",
      "type": "function"
    },
    {
      "inputs": [
        {
          "internalType": "address",
          "name": "_newSwapManager",
          "type": "address"
        }
      ],
      "name": "updateSwapManager",
      "outputs": [],
      "stateMutability": "nonpayable",
      "type": "function"
    },
    {
      "inputs": [],
      "name": "vusd",
      "outputs": [
        {
          "internalType": "contract IVUSD",
          "name": "",
          "type": "address"
        }
      ],
      "stateMutability": "view",
      "type": "function"
    },
    {
      "inputs": [],
      "name": "whitelistedTokens",
      "outputs": [
        {
          "internalType": "contract IAddressList",
          "name": "",
          "type": "address"
        }
      ],
      "stateMutability": "view",
      "type": "function"
    },
    {
      "inputs": [
        {
          "internalType": "address",
          "name": "_token",
          "type": "address"
        },
        {
          "internalType": "uint256",
          "name": "_amount",
          "type": "uint256"
        },
        {
          "internalType": "address",
          "name": "_tokenReceiver",
          "type": "address"
        }
      ],
      "name": "withdraw",
      "outputs": [],
      "stateMutability": "nonpayable",
      "type": "function"
    },
    {
      "inputs": [
        {
          "internalType": "address",
          "name": "_token",
          "type": "address"
        },
        {
          "internalType": "uint256",
          "name": "_amount",
          "type": "uint256"
        }
      ],
      "name": "withdraw",
      "outputs": [],
      "stateMutability": "nonpayable",
      "type": "function"
    },
    {
      "inputs": [
        {
          "internalType": "address[]",
          "name": "_tokens",
          "type": "address[]"
        }
      ],
      "name": "withdrawAll",
      "outputs": [],
      "stateMutability": "nonpayable",
      "type": "function"
    },
    {
      "inputs": [
        {
          "internalType": "address[]",
          "name": "_tokens",
          "type": "address[]"
        },
        {
          "internalType": "uint256[]",
          "name": "_amounts",
          "type": "uint256[]"
        }
      ],
      "name": "withdrawMulti",
      "outputs": [],
      "stateMutability": "nonpayable",
      "type": "function"
    },
    {
      "inputs": [
        {
          "internalType": "address",
          "name": "_token",
          "type": "address"
        }
      ],
      "name": "withdrawable",
      "outputs": [
        {
          "internalType": "uint256",
          "name": "",
          "type": "uint256"
        }
      ],
      "stateMutability": "view",
      "type": "function"
    }
  ],
  "transactionHash": "0xcfe0a082fe0dddfdc726b10b6d582ebeb8cb31cd09f8012751799449688d7298",
  "args": [
    "0x677ddbd918637E5F2c79e164D402454dE7dA8619"
  ],
  "solcInputHash": "67e43f5c13609e7c93c7e3c2c1c52dc8",
  "bytecode": "0x61010060405273c48ea9a2daa4d816e4c9333d6689c70070010174600260006101000a81548173ffffffffffffffffffffffffffffffffffffffff021916908373ffffffffffffffffffffffffffffffffffffffff1602179055503480156200006757600080fd5b50604051620068013803806200680183398181016040528101906200008d919062000dda565b6001600081905550600073ffffffffffffffffffffffffffffffffffffffff168173ffffffffffffffffffffffffffffffffffffffff16141562000108576040517f08c379a0000000000000000000000000000000000000000000000000000000008152600401620000ff90620010c2565b60405180910390fd5b8073ffffffffffffffffffffffffffffffffffffffff1660e08173ffffffffffffffffffffffffffffffffffffffff1660601b81525050600073ded8217de022706a191ee7ee0dc9df1185fb5da3905060008173ffffffffffffffffffffffffffffffffffffffff16630fab4d256040518163ffffffff1660e01b8152600401602060405180830381600087803b158015620001a357600080fd5b505af1158015620001b8573d6000803e3d6000fd5b505050506040513d601f19601f82011682018060405250810190620001de919062000dda565b905060008273ffffffffffffffffffffffffffffffffffffffff16630fab4d256040518163ffffffff1660e01b8152600401602060405180830381600087803b1580156200022b57600080fd5b505af115801562000240573d6000803e3d6000fd5b505050506040513d601f19601f8201168201806040525081019062000266919062000dda565b905060008373ffffffffffffffffffffffffffffffffffffffff16630fab4d256040518163ffffffff1660e01b8152600401602060405180830381600087803b158015620002b357600080fd5b505af1158015620002c8573d6000803e3d6000fd5b505050506040513d601f19601f82011682018060405250810190620002ee919062000dda565b90508073ffffffffffffffffffffffffffffffffffffffff16630a3b0a4f6200031c6200054960201b60201c565b6040518263ffffffff1660e01b81526004016200033a919062001027565b602060405180830381600087803b1580156200035557600080fd5b505af11580156200036a573d6000803e3d6000fd5b505050506040513d601f19601f8201168201806040525081019062000390919062000e06565b50620003cd83736b175474e89094c44da98b954eedeac495271d0f84735d3a536e4d6dbd6114cc1ead35777bab948e36436200055160201b60201c565b620004098373a0b86991c6218b36c1d19d4a2e9eb0ce3606eb48847339aa39c021dfbae8fac545936693ac917d5e75636200055160201b60201c565b620004458373dac17f958d2ee523a2206206994597c13d831ec78473f650c3d88d12db855b8bf7d11be6c55a4e07dcc96200055160201b60201c565b8273ffffffffffffffffffffffffffffffffffffffff1660808173ffffffffffffffffffffffffffffffffffffffff1660601b815250508173ffffffffffffffffffffffffffffffffffffffff1660a08173ffffffffffffffffffffffffffffffffffffffff1660601b815250508073ffffffffffffffffffffffffffffffffffffffff1660c08173ffffffffffffffffffffffffffffffffffffffff1660601b815250506200053e600260009054906101000a900473ffffffffffffffffffffffffffffffffffffffff167fffffffffffffffffffffffffffffffffffffffffffffffffffffffffffffffff620007cd60201b60201c565b5050505050620014cf565b600033905090565b8373ffffffffffffffffffffffffffffffffffffffff16630a3b0a4f846040518263ffffffff1660e01b81526004016200058c919062001027565b602060405180830381600087803b158015620005a757600080fd5b505af1158015620005bc573d6000803e3d6000fd5b505050506040513d601f19601f82011682018060405250810190620005e2919062000e06565b62000624576040517f08c379a00000000000000000000000000000000000000000000000000000000081526004016200061b9062001106565b60405180910390fd5b8173ffffffffffffffffffffffffffffffffffffffff16630a3b0a4f826040518263ffffffff1660e01b81526004016200065f919062001027565b602060405180830381600087803b1580156200067a57600080fd5b505af11580156200068f573d6000803e3d6000fd5b505050506040513d601f19601f82011682018060405250810190620006b5919062000e06565b620006f7576040517f08c379a0000000000000000000000000000000000000000000000000000000008152600401620006ee9062001106565b60405180910390fd5b80600360008573ffffffffffffffffffffffffffffffffffffffff1673ffffffffffffffffffffffffffffffffffffffff16815260200190815260200160002060006101000a81548173ffffffffffffffffffffffffffffffffffffffff021916908373ffffffffffffffffffffffffffffffffffffffff160217905550620007c7817fffffffffffffffffffffffffffffffffffffffffffffffffffffffffffffffff8573ffffffffffffffffffffffffffffffffffffffff166200096b60201b62002f13179092919060201c565b50505050565b60005b8273ffffffffffffffffffffffffffffffffffffffff1663c2fba6676040518163ffffffff1660e01b815260040160206040518083038186803b1580156200081757600080fd5b505afa1580156200082c573d6000803e3d6000fd5b505050506040513d601f19601f8201168201806040525081019062000852919062000e5e565b811015620009665762000950600260009054906101000a900473ffffffffffffffffffffffffffffffffffffffff1673ffffffffffffffffffffffffffffffffffffffff16636e74a6f7836040518263ffffffff1660e01b8152600401620008bb91906200118e565b60206040518083038186803b158015620008d457600080fd5b505afa158015620008e9573d6000803e3d6000fd5b505050506040513d601f19601f820116820180604052508101906200090f919062000e32565b8373c00e94cb662c3520282e6f5717214004a7f2688873ffffffffffffffffffffffffffffffffffffffff166200096b60201b62002f13179092919060201c565b80806200095d9062001271565b915050620007d0565b505050565b600081148062000a0b575060008373ffffffffffffffffffffffffffffffffffffffff1663dd62ed3e30856040518363ffffffff1660e01b8152600401620009b592919062001044565b60206040518083038186803b158015620009ce57600080fd5b505afa158015620009e3573d6000803e3d6000fd5b505050506040513d601f19601f8201168201806040525081019062000a09919062000e5e565b145b62000a4d576040517f08c379a000000000000000000000000000000000000000000000000000000000815260040162000a44906200116c565b60405180910390fd5b62000ad88363095ea7b360e01b848460405160240162000a6f92919062001071565b604051602081830303815290604052907bffffffffffffffffffffffffffffffffffffffffffffffffffffffff19166020820180517bffffffffffffffffffffffffffffffffffffffffffffffffffffffff838183161783525050505062000add60201b60201c565b505050565b600062000b46826040518060400160405280602081526020017f5361666545524332303a206c6f772d6c6576656c2063616c6c206661696c65648152508573ffffffffffffffffffffffffffffffffffffffff1662000bb160201b62003071179092919060201c565b905060008151111562000bac578080602001905181019062000b69919062000e06565b62000bab576040517f08c379a000000000000000000000000000000000000000000000000000000000815260040162000ba2906200114a565b60405180910390fd5b5b505050565b606062000bc8848460008562000bd160201b60201c565b90509392505050565b60608247101562000c19576040517f08c379a000000000000000000000000000000000000000000000000000000000815260040162000c1090620010e4565b60405180910390fd5b62000c2a8562000cff60201b60201c565b62000c6c576040517f08c379a000000000000000000000000000000000000000000000000000000000815260040162000c639062001128565b60405180910390fd5b6000808673ffffffffffffffffffffffffffffffffffffffff16858760405162000c9791906200100e565b60006040518083038185875af1925050503d806000811462000cd6576040519150601f19603f3d011682016040523d82523d6000602084013e62000cdb565b606091505b509150915062000cf382828662000d1260201b60201c565b92505050949350505050565b600080823b905060008111915050919050565b6060831562000d245782905062000d77565b60008351111562000d385782518084602001fd5b816040517f08c379a000000000000000000000000000000000000000000000000000000000815260040162000d6e91906200109e565b60405180910390fd5b9392505050565b60008151905062000d8f8162001467565b92915050565b60008151905062000da68162001481565b92915050565b60008151905062000dbd816200149b565b92915050565b60008151905062000dd481620014b5565b92915050565b60006020828403121562000ded57600080fd5b600062000dfd8482850162000d7e565b91505092915050565b60006020828403121562000e1957600080fd5b600062000e298482850162000d95565b91505092915050565b60006020828403121562000e4557600080fd5b600062000e558482850162000dac565b91505092915050565b60006020828403121562000e7157600080fd5b600062000e818482850162000dc3565b91505092915050565b62000e9581620011dd565b82525050565b600062000ea882620011ab565b62000eb48185620011c1565b935062000ec68185602086016200123b565b80840191505092915050565b600062000edf82620011b6565b62000eeb8185620011cc565b935062000efd8185602086016200123b565b62000f0881620012ee565b840191505092915050565b600062000f22601483620011cc565b915062000f2f82620012ff565b602082019050919050565b600062000f49602683620011cc565b915062000f568262001328565b604082019050919050565b600062000f70601283620011cc565b915062000f7d8262001377565b602082019050919050565b600062000f97601d83620011cc565b915062000fa482620013a0565b602082019050919050565b600062000fbe602a83620011cc565b915062000fcb82620013c9565b604082019050919050565b600062000fe5603683620011cc565b915062000ff28262001418565b604082019050919050565b620010088162001231565b82525050565b60006200101c828462000e9b565b915081905092915050565b60006020820190506200103e600083018462000e8a565b92915050565b60006040820190506200105b600083018562000e8a565b6200106a602083018462000e8a565b9392505050565b600060408201905062001088600083018562000e8a565b62001097602083018462000ffd565b9392505050565b60006020820190508181036000830152620010ba818462000ed2565b905092915050565b60006020820190508181036000830152620010dd8162000f13565b9050919050565b60006020820190508181036000830152620010ff8162000f3a565b9050919050565b60006020820190508181036000830152620011218162000f61565b9050919050565b60006020820190508181036000830152620011438162000f88565b9050919050565b60006020820190508181036000830152620011658162000faf565b9050919050565b60006020820190508181036000830152620011878162000fd6565b9050919050565b6000602082019050620011a5600083018462000ffd565b92915050565b600081519050919050565b600081519050919050565b600081905092915050565b600082825260208201905092915050565b6000620011ea8262001211565b9050919050565b60008115159050919050565b60006200120a82620011dd565b9050919050565b600073ffffffffffffffffffffffffffffffffffffffff82169050919050565b6000819050919050565b60005b838110156200125b5780820151818401526020810190506200123e565b838111156200126b576000848401525b50505050565b60006200127e8262001231565b91507fffffffffffffffffffffffffffffffffffffffffffffffffffffffffffffffff821415620012b457620012b3620012bf565b5b600182019050919050565b7f4e487b7100000000000000000000000000000000000000000000000000000000600052601160045260246000fd5b6000601f19601f8301169050919050565b7f767573642d616464726573732d69732d7a65726f000000000000000000000000600082015250565b7f416464726573733a20696e73756666696369656e742062616c616e636520666f60008201527f722063616c6c0000000000000000000000000000000000000000000000000000602082015250565b7f6164642d696e2d6c6973742d6661696c65640000000000000000000000000000600082015250565b7f416464726573733a2063616c6c20746f206e6f6e2d636f6e7472616374000000600082015250565b7f5361666545524332303a204552433230206f7065726174696f6e20646964206e60008201527f6f74207375636365656400000000000000000000000000000000000000000000602082015250565b7f5361666545524332303a20617070726f76652066726f6d206e6f6e2d7a65726f60008201527f20746f206e6f6e2d7a65726f20616c6c6f77616e636500000000000000000000602082015250565b6200147281620011dd565b81146200147e57600080fd5b50565b6200148c81620011f1565b81146200149857600080fd5b50565b620014a681620011fd565b8114620014b257600080fd5b50565b620014c08162001231565b8114620014cc57600080fd5b50565b60805160601c60a05160601c60c05160601c60e05160601c6152756200158c6000396000818161080f01528181612ad40152612d7101526000818161092e01528181610f2f0152818161142e01526126c90152600081816104b5015281816107e201528181610b8101528181611608015281816117290152818161240f01528181612b4d0152612bfa0152600081816107c001528181610a970152818161151e01528181611d5901528181611e53015261337c01526152756000f3fe608060405234801561001057600080fd5b50600436106101585760003560e01c806369328dec116100c3578063a3f4df7e1161007c578063a3f4df7e14610375578063ce513b6f14610393578063ce5494bb146103c3578063edac5203146103df578063f3fef3a3146103fd578063ffa1ad741461041957610158565b806369328dec146102b35780636a95385f146102cf578063709d039d146102ed5780637d138e131461030b5780638c0b09d014610327578063951dc22c1461035757610158565b80634032b72b116101155780634032b72b1461020957806342841531146102255780634c36fad71461024157806356f0693e1461025d5780635e1762a0146102795780636568a2791461029757610158565b806301681a621461015d57806301ac8559146101795780630c340a241461019557806314ae9f2e146101b35780631c88705d146101cf5780632ba29d38146101eb575b600080fd5b61017760048036038101906101729190613c72565b610437565b005b610193600480360381019061018e9190613cc4565b61065f565b005b61019d61080b565b6040516101aa9190614471565b60405180910390f35b6101cd60048036038101906101c89190613c72565b6108b0565b005b6101e960048036038101906101e49190613c72565b610a19565b005b6101f3610e1b565b6040516102009190614471565b60405180910390f35b610223600480360381019061021e9190613c72565b610e41565b005b61023f600480360381019061023a9190613e08565b61101a565b005b61025b60048036038101906102569190613c72565b6111e6565b005b61027760048036038101906102729190613d00565b6113e9565b005b610281611d57565b60405161028e919061456e565b60405180910390f35b6102b160048036038101906102ac9190613dc7565b611d7b565b005b6102cd60048036038101906102c89190613d78565b6122cc565b005b6102d761240d565b6040516102e4919061456e565b60405180910390f35b6102f5612431565b6040516103029190614589565b60405180910390f35b61032560048036038101906103209190613c72565b612457565b005b610341600480360381019061033c9190613c72565b612694565b60405161034e9190614471565b60405180910390f35b61035f6126c7565b60405161036c919061456e565b60405180910390f35b61037d6126eb565b60405161038a91906145bf565b60405180910390f35b6103ad60048036038101906103a89190613c72565b612724565b6040516103ba9190614901565b60405180910390f35b6103dd60048036038101906103d89190613c72565b612952565b005b6103e7612d6f565b6040516103f491906145a4565b60405180910390f35b61041760048036038101906104129190613d00565b612d93565b005b610421612eda565b60405161042e91906145bf565b60405180910390f35b61043f61080b565b73ffffffffffffffffffffffffffffffffffffffff1661045d613089565b73ffffffffffffffffffffffffffffffffffffffff16146104b3576040517f08c379a00000000000000000000000000000000000000000000000000000000081526004016104aa906146e1565b60405180910390fd5b7f000000000000000000000000000000000000000000000000000000000000000073ffffffffffffffffffffffffffffffffffffffff16635dbe47e8826040518263ffffffff1660e01b815260040161050c9190614471565b60206040518083038186803b15801561052457600080fd5b505afa158015610538573d6000803e3d6000fd5b505050506040513d601f19601f8201168201806040525081019061055c9190613f1c565b1561059c576040517f08c379a0000000000000000000000000000000000000000000000000000000008152600401610593906145e1565b60405180910390fd5b60008173ffffffffffffffffffffffffffffffffffffffff166370a08231306040518263ffffffff1660e01b81526004016105d79190614471565b60206040518083038186803b1580156105ef57600080fd5b505afa158015610603573d6000803e3d6000fd5b505050506040513d601f19601f820116820180604052508101906106279190613f6e565b905061065b610634613089565b828473ffffffffffffffffffffffffffffffffffffffff166130919092919063ffffffff16565b5050565b61066761080b565b73ffffffffffffffffffffffffffffffffffffffff16610685613089565b73ffffffffffffffffffffffffffffffffffffffff16146106db576040517f08c379a00000000000000000000000000000000000000000000000000000000081526004016106d2906146e1565b60405180910390fd5b600073ffffffffffffffffffffffffffffffffffffffff168273ffffffffffffffffffffffffffffffffffffffff16141561074b576040517f08c379a000000000000000000000000000000000000000000000000000000000815260040161074290614701565b60405180910390fd5b600073ffffffffffffffffffffffffffffffffffffffff168173ffffffffffffffffffffffffffffffffffffffff1614156107bb576040517f08c379a00000000000000000000000000000000000000000000000000000000081526004016107b290614601565b60405180910390fd5b6108077f0000000000000000000000000000000000000000000000000000000000000000837f000000000000000000000000000000000000000000000000000000000000000084613117565b5050565b60007f000000000000000000000000000000000000000000000000000000000000000073ffffffffffffffffffffffffffffffffffffffff16630c340a246040518163ffffffff1660e01b815260040160206040518083038186803b15801561087357600080fd5b505afa158015610887573d6000803e3d6000fd5b505050506040513d601f19601f820116820180604052508101906108ab9190613c9b565b905090565b6108b861080b565b73ffffffffffffffffffffffffffffffffffffffff166108d6613089565b73ffffffffffffffffffffffffffffffffffffffff161461092c576040517f08c379a0000000000000000000000000000000000000000000000000000000008152600401610923906146e1565b60405180910390fd5b7f000000000000000000000000000000000000000000000000000000000000000073ffffffffffffffffffffffffffffffffffffffff166329092d0e826040518263ffffffff1660e01b81526004016109859190614471565b602060405180830381600087803b15801561099f57600080fd5b505af11580156109b3573d6000803e3d6000fd5b505050506040513d601f19601f820116820180604052508101906109d79190613f1c565b610a16576040517f08c379a0000000000000000000000000000000000000000000000000000000008152600401610a0d90614681565b60405180910390fd5b50565b610a2161080b565b73ffffffffffffffffffffffffffffffffffffffff16610a3f613089565b73ffffffffffffffffffffffffffffffffffffffff1614610a95576040517f08c379a0000000000000000000000000000000000000000000000000000000008152600401610a8c906146e1565b60405180910390fd5b7f000000000000000000000000000000000000000000000000000000000000000073ffffffffffffffffffffffffffffffffffffffff166329092d0e826040518263ffffffff1660e01b8152600401610aee9190614471565b602060405180830381600087803b158015610b0857600080fd5b505af1158015610b1c573d6000803e3d6000fd5b505050506040513d601f19601f82011682018060405250810190610b409190613f1c565b610b7f576040517f08c379a0000000000000000000000000000000000000000000000000000000008152600401610b7690614781565b60405180910390fd5b7f000000000000000000000000000000000000000000000000000000000000000073ffffffffffffffffffffffffffffffffffffffff166329092d0e600360008473ffffffffffffffffffffffffffffffffffffffff1673ffffffffffffffffffffffffffffffffffffffff16815260200190815260200160002060009054906101000a900473ffffffffffffffffffffffffffffffffffffffff166040518263ffffffff1660e01b8152600401610c379190614471565b602060405180830381600087803b158015610c5157600080fd5b505af1158015610c65573d6000803e3d6000fd5b505050506040513d601f19601f82011682018060405250810190610c899190613f1c565b610cc8576040517f08c379a0000000000000000000000000000000000000000000000000000000008152600401610cbf90614781565b60405180910390fd5b8073ffffffffffffffffffffffffffffffffffffffff1663095ea7b3600360008473ffffffffffffffffffffffffffffffffffffffff1673ffffffffffffffffffffffffffffffffffffffff16815260200190815260200160002060009054906101000a900473ffffffffffffffffffffffffffffffffffffffff1660006040518363ffffffff1660e01b8152600401610d6392919061451c565b602060405180830381600087803b158015610d7d57600080fd5b505af1158015610d91573d6000803e3d6000fd5b505050506040513d601f19601f82011682018060405250810190610db59190613f1c565b50600360008273ffffffffffffffffffffffffffffffffffffffff1673ffffffffffffffffffffffffffffffffffffffff16815260200190815260200160002060006101000a81549073ffffffffffffffffffffffffffffffffffffffff021916905550565b600160009054906101000a900473ffffffffffffffffffffffffffffffffffffffff1681565b610e4961080b565b73ffffffffffffffffffffffffffffffffffffffff16610e67613089565b73ffffffffffffffffffffffffffffffffffffffff1614610ebd576040517f08c379a0000000000000000000000000000000000000000000000000000000008152600401610eb4906146e1565b60405180910390fd5b600073ffffffffffffffffffffffffffffffffffffffff168173ffffffffffffffffffffffffffffffffffffffff161415610f2d576040517f08c379a0000000000000000000000000000000000000000000000000000000008152600401610f24906148e1565b60405180910390fd5b7f000000000000000000000000000000000000000000000000000000000000000073ffffffffffffffffffffffffffffffffffffffff16630a3b0a4f826040518263ffffffff1660e01b8152600401610f869190614471565b602060405180830381600087803b158015610fa057600080fd5b505af1158015610fb4573d6000803e3d6000fd5b505050506040513d601f19601f82011682018060405250810190610fd89190613f1c565b611017576040517f08c379a000000000000000000000000000000000000000000000000000000000815260040161100e90614621565b60405180910390fd5b50565b60026000541415611060576040517f08c379a000000000000000000000000000000000000000000000000000000000815260040161105790614881565b60405180910390fd5b600260008190555061107061080b565b73ffffffffffffffffffffffffffffffffffffffff1661108e613089565b73ffffffffffffffffffffffffffffffffffffffff16146110e4576040517f08c379a00000000000000000000000000000000000000000000000000000000081526004016110db906146e1565b60405180910390fd5b8051825114611128576040517f08c379a000000000000000000000000000000000000000000000000000000000815260040161111f90614641565b60405180910390fd5b60005b82518110156111d9576111c6838281518110611170577f4e487b7100000000000000000000000000000000000000000000000000000000600052603260045260246000fd5b60200260200101518383815181106111b1577f4e487b7100000000000000000000000000000000000000000000000000000000600052603260045260246000fd5b60200260200101516111c1613089565b61337a565b80806111d190614c5f565b91505061112b565b5060016000819055505050565b6111ee61080b565b73ffffffffffffffffffffffffffffffffffffffff1661120c613089565b73ffffffffffffffffffffffffffffffffffffffff1614611262576040517f08c379a0000000000000000000000000000000000000000000000000000000008152600401611259906146e1565b60405180910390fd5b600073ffffffffffffffffffffffffffffffffffffffff168173ffffffffffffffffffffffffffffffffffffffff1614156112d2576040517f08c379a00000000000000000000000000000000000000000000000000000000081526004016112c990614821565b60405180910390fd5b8073ffffffffffffffffffffffffffffffffffffffff16600260009054906101000a900473ffffffffffffffffffffffffffffffffffffffff1673ffffffffffffffffffffffffffffffffffffffff167f2d19927e7cac08ceb98b38898a4fdff6da6a27295b9a2d62fe250408ebe044e160405160405180910390a361137b600260009054906101000a900473ffffffffffffffffffffffffffffffffffffffff1660006135be565b6113a5817fffffffffffffffffffffffffffffffffffffffffffffffffffffffffffffffff6135be565b80600260006101000a81548173ffffffffffffffffffffffffffffffffffffffff021916908373ffffffffffffffffffffffffffffffffffffffff16021790555050565b6113f161080b565b73ffffffffffffffffffffffffffffffffffffffff1661140f613089565b73ffffffffffffffffffffffffffffffffffffffff1614806114dd57507f000000000000000000000000000000000000000000000000000000000000000073ffffffffffffffffffffffffffffffffffffffff16635dbe47e8611470613089565b6040518263ffffffff1660e01b815260040161148c9190614471565b60206040518083038186803b1580156114a457600080fd5b505afa1580156114b8573d6000803e3d6000fd5b505050506040513d601f19601f820116820180604052508101906114dc9190613f1c565b5b61151c576040517f08c379a0000000000000000000000000000000000000000000000000000000008152600401611513906148c1565b60405180910390fd5b7f000000000000000000000000000000000000000000000000000000000000000073ffffffffffffffffffffffffffffffffffffffff16635dbe47e8836040518263ffffffff1660e01b81526004016115759190614471565b60206040518083038186803b15801561158d57600080fd5b505afa1580156115a1573d6000803e3d6000fd5b505050506040513d601f19601f820116820180604052508101906115c59190613f1c565b611604576040517f08c379a00000000000000000000000000000000000000000000000000000000081526004016115fb90614721565b60405180910390fd5b60007f000000000000000000000000000000000000000000000000000000000000000073ffffffffffffffffffffffffffffffffffffffff16631f7b6d326040518163ffffffff1660e01b815260040160206040518083038186803b15801561166c57600080fd5b505afa158015611680573d6000803e3d6000fd5b505050506040513d601f19601f820116820180604052508101906116a49190613f6e565b905060008167ffffffffffffffff8111156116e8577f4e487b7100000000000000000000000000000000000000000000000000000000600052604160045260246000fd5b6040519080825280602002602001820160405280156117165781602001602082028036833780820191505090505b50905060005b828160ff161015611857577f000000000000000000000000000000000000000000000000000000000000000073ffffffffffffffffffffffffffffffffffffffff1663e0886f90826040518263ffffffff1660e01b81526004016117809190614976565b604080518083038186803b15801561179757600080fd5b505afa1580156117ab573d6000803e3d6000fd5b505050506040513d601f19601f820116820180604052508101906117cf9190613d3c565b50828260ff168151811061180c577f4e487b7100000000000000000000000000000000000000000000000000000000600052603260045260246000fd5b602002602001018173ffffffffffffffffffffffffffffffffffffffff1673ffffffffffffffffffffffffffffffffffffffff1681525050808061184f90614ca8565b91505061171c565b50733d9819210a31b4961b30ef54be2aed79b9c9cd3b73ffffffffffffffffffffffffffffffffffffffff16631c3db2e030836040518363ffffffff1660e01b81526004016118a79291906144ec565b600060405180830381600087803b1580156118c157600080fd5b505af11580156118d5573d6000803e3d6000fd5b50505050600073c00e94cb662c3520282e6f5717214004a7f2688873ffffffffffffffffffffffffffffffffffffffff166370a08231306040518263ffffffff1660e01b81526004016119289190614471565b60206040518083038186803b15801561194057600080fd5b505afa158015611954573d6000803e3d6000fd5b505050506040513d601f19601f820116820180604052508101906119789190613f6e565b90506000806000600260009054906101000a900473ffffffffffffffffffffffffffffffffffffffff1673ffffffffffffffffffffffffffffffffffffffff1663e8f983c873c00e94cb662c3520282e6f5717214004a7f268888a876040518463ffffffff1660e01b81526004016119f2939291906144b5565b60006040518083038186803b158015611a0a57600080fd5b505afa158015611a1e573d6000803e3d6000fd5b505050506040513d6000823e3d601f19601f82011682018060405250810190611a479190613e74565b92509250925060008214611b9957600260009054906101000a900473ffffffffffffffffffffffffffffffffffffffff1673ffffffffffffffffffffffffffffffffffffffff16636e74a6f7826040518263ffffffff1660e01b8152600401611ab09190614901565b60206040518083038186803b158015611ac857600080fd5b505afa158015611adc573d6000803e3d6000fd5b505050506040513d601f19601f82011682018060405250810190611b009190613f45565b73ffffffffffffffffffffffffffffffffffffffff166338ed173985898630426040518663ffffffff1660e01b8152600401611b4095949392919061491c565b600060405180830381600087803b158015611b5a57600080fd5b505af1158015611b6e573d6000803e3d6000fd5b505050506040513d6000823e3d601f19601f82011682018060405250810190611b979190613edb565b505b6000600360008a73ffffffffffffffffffffffffffffffffffffffff1673ffffffffffffffffffffffffffffffffffffffff16815260200190815260200160002060009054906101000a900473ffffffffffffffffffffffffffffffffffffffff1673ffffffffffffffffffffffffffffffffffffffff1663a0712d688a73ffffffffffffffffffffffffffffffffffffffff166370a08231306040518263ffffffff1660e01b8152600401611c4f9190614471565b60206040518083038186803b158015611c6757600080fd5b505afa158015611c7b573d6000803e3d6000fd5b505050506040513d601f19601f82011682018060405250810190611c9f9190613f6e565b6040518263ffffffff1660e01b8152600401611cbb9190614901565b602060405180830381600087803b158015611cd557600080fd5b505af1158015611ce9573d6000803e3d6000fd5b505050506040513d601f19601f82011682018060405250810190611d0d9190613f6e565b14611d4d576040517f08c379a0000000000000000000000000000000000000000000000000000000008152600401611d4490614861565b60405180910390fd5b5050505050505050565b7f000000000000000000000000000000000000000000000000000000000000000081565b60026000541415611dc1576040517f08c379a0000000000000000000000000000000000000000000000000000000008152600401611db890614881565b60405180910390fd5b6002600081905550611dd161080b565b73ffffffffffffffffffffffffffffffffffffffff16611def613089565b73ffffffffffffffffffffffffffffffffffffffff1614611e45576040517f08c379a0000000000000000000000000000000000000000000000000000000008152600401611e3c906146e1565b60405180910390fd5b60005b81518110156122c0577f000000000000000000000000000000000000000000000000000000000000000073ffffffffffffffffffffffffffffffffffffffff16635dbe47e8838381518110611ec6577f4e487b7100000000000000000000000000000000000000000000000000000000600052603260045260246000fd5b60200260200101516040518263ffffffff1660e01b8152600401611eea9190614471565b60206040518083038186803b158015611f0257600080fd5b505afa158015611f16573d6000803e3d6000fd5b505050506040513d601f19601f82011682018060405250810190611f3a9190613f1c565b611f79576040517f08c379a0000000000000000000000000000000000000000000000000000000008152600401611f7090614721565b60405180910390fd5b600060036000848481518110611fb8577f4e487b7100000000000000000000000000000000000000000000000000000000600052603260045260246000fd5b602002602001015173ffffffffffffffffffffffffffffffffffffffff1673ffffffffffffffffffffffffffffffffffffffff16815260200190815260200160002060009054906101000a900473ffffffffffffffffffffffffffffffffffffffff16905060008173ffffffffffffffffffffffffffffffffffffffff1663db006a758373ffffffffffffffffffffffffffffffffffffffff166370a08231306040518263ffffffff1660e01b81526004016120749190614471565b60206040518083038186803b15801561208c57600080fd5b505afa1580156120a0573d6000803e3d6000fd5b505050506040513d601f19601f820116820180604052508101906120c49190613f6e565b6040518263ffffffff1660e01b81526004016120e09190614901565b602060405180830381600087803b1580156120fa57600080fd5b505af115801561210e573d6000803e3d6000fd5b505050506040513d601f19601f820116820180604052508101906121329190613f6e565b14612172576040517f08c379a0000000000000000000000000000000000000000000000000000000008152600401612169906147e1565b60405180910390fd5b6122ac61217d613089565b8484815181106121b6577f4e487b7100000000000000000000000000000000000000000000000000000000600052603260045260246000fd5b602002602001015173ffffffffffffffffffffffffffffffffffffffff166370a08231306040518263ffffffff1660e01b81526004016121f69190614471565b60206040518083038186803b15801561220e57600080fd5b505afa158015612222573d6000803e3d6000fd5b505050506040513d601f19601f820116820180604052508101906122469190613f6e565b85858151811061227f577f4e487b7100000000000000000000000000000000000000000000000000000000600052603260045260246000fd5b602002602001015173ffffffffffffffffffffffffffffffffffffffff166130919092919063ffffffff16565b5080806122b890614c5f565b915050611e48565b50600160008190555050565b60026000541415612312576040517f08c379a000000000000000000000000000000000000000000000000000000000815260040161230990614881565b60405180910390fd5b600260008190555061232261080b565b73ffffffffffffffffffffffffffffffffffffffff16612340613089565b73ffffffffffffffffffffffffffffffffffffffff1614806123b65750600160009054906101000a900473ffffffffffffffffffffffffffffffffffffffff1673ffffffffffffffffffffffffffffffffffffffff1661239e613089565b73ffffffffffffffffffffffffffffffffffffffff16145b6123f5576040517f08c379a00000000000000000000000000000000000000000000000000000000081526004016123ec906148c1565b60405180910390fd5b61240083838361337a565b6001600081905550505050565b7f000000000000000000000000000000000000000000000000000000000000000081565b600260009054906101000a900473ffffffffffffffffffffffffffffffffffffffff1681565b61245f61080b565b73ffffffffffffffffffffffffffffffffffffffff1661247d613089565b73ffffffffffffffffffffffffffffffffffffffff16146124d3576040517f08c379a00000000000000000000000000000000000000000000000000000000081526004016124ca906146e1565b60405180910390fd5b600073ffffffffffffffffffffffffffffffffffffffff168173ffffffffffffffffffffffffffffffffffffffff161415612543576040517f08c379a000000000000000000000000000000000000000000000000000000000815260040161253a906146c1565b60405180910390fd5b8073ffffffffffffffffffffffffffffffffffffffff16600160009054906101000a900473ffffffffffffffffffffffffffffffffffffffff1673ffffffffffffffffffffffffffffffffffffffff1614156125d4576040517f08c379a00000000000000000000000000000000000000000000000000000000081526004016125cb90614761565b60405180910390fd5b8073ffffffffffffffffffffffffffffffffffffffff16600160009054906101000a900473ffffffffffffffffffffffffffffffffffffffff1673ffffffffffffffffffffffffffffffffffffffff167fbb0958cd5add04c553a378aa342c839507b619a0459617e004c5d13602cfa72360405160405180910390a380600160006101000a81548173ffffffffffffffffffffffffffffffffffffffff021916908373ffffffffffffffffffffffffffffffffffffffff16021790555050565b60036020528060005260406000206000915054906101000a900473ffffffffffffffffffffffffffffffffffffffff1681565b7f000000000000000000000000000000000000000000000000000000000000000081565b6040518060400160405280600d81526020017f565553442d54726561737572790000000000000000000000000000000000000081525081565b60008073ffffffffffffffffffffffffffffffffffffffff16600360008473ffffffffffffffffffffffffffffffffffffffff1673ffffffffffffffffffffffffffffffffffffffff16815260200190815260200160002060009054906101000a900473ffffffffffffffffffffffffffffffffffffffff1673ffffffffffffffffffffffffffffffffffffffff1614612948576000600360008473ffffffffffffffffffffffffffffffffffffffff1673ffffffffffffffffffffffffffffffffffffffff16815260200190815260200160002060009054906101000a900473ffffffffffffffffffffffffffffffffffffffff169050670de0b6b3a76400008173ffffffffffffffffffffffffffffffffffffffff1663182df0f56040518163ffffffff1660e01b815260040160206040518083038186803b15801561286b57600080fd5b505afa15801561287f573d6000803e3d6000fd5b505050506040513d601f19601f820116820180604052508101906128a39190613f6e565b8273ffffffffffffffffffffffffffffffffffffffff166370a08231306040518263ffffffff1660e01b81526004016128dc9190614471565b60206040518083038186803b1580156128f457600080fd5b505afa158015612908573d6000803e3d6000fd5b505050506040513d601f19601f8201168201806040525081019061292c9190613f6e565b6129369190614aaa565b6129409190614a79565b91505061294d565b600090505b919050565b61295a61080b565b73ffffffffffffffffffffffffffffffffffffffff16612978613089565b73ffffffffffffffffffffffffffffffffffffffff16146129ce576040517f08c379a00000000000000000000000000000000000000000000000000000000081526004016129c5906146e1565b60405180910390fd5b600073ffffffffffffffffffffffffffffffffffffffff168173ffffffffffffffffffffffffffffffffffffffff161415612a3e576040517f08c379a0000000000000000000000000000000000000000000000000000000008152600401612a3590614661565b60405180910390fd5b8073ffffffffffffffffffffffffffffffffffffffff1663edac52036040518163ffffffff1660e01b815260040160206040518083038186803b158015612a8457600080fd5b505afa158015612a98573d6000803e3d6000fd5b505050506040513d601f19601f82011682018060405250810190612abc9190613c9b565b73ffffffffffffffffffffffffffffffffffffffff167f000000000000000000000000000000000000000000000000000000000000000073ffffffffffffffffffffffffffffffffffffffff1614612b49576040517f08c379a0000000000000000000000000000000000000000000000000000000008152600401612b40906147c1565b60405180910390fd5b60007f000000000000000000000000000000000000000000000000000000000000000073ffffffffffffffffffffffffffffffffffffffff16631f7b6d326040518163ffffffff1660e01b815260040160206040518083038186803b158015612bb157600080fd5b505afa158015612bc5573d6000803e3d6000fd5b505050506040513d601f19601f82011682018060405250810190612be99190613f6e565b905060005b81811015612d6a5760007f000000000000000000000000000000000000000000000000000000000000000073ffffffffffffffffffffffffffffffffffffffff1663e0886f90836040518263ffffffff1660e01b8152600401612c519190614901565b604080518083038186803b158015612c6857600080fd5b505afa158015612c7c573d6000803e3d6000fd5b505050506040513d601f19601f82011682018060405250810190612ca09190613d3c565b509050612d56848273ffffffffffffffffffffffffffffffffffffffff166370a08231306040518263ffffffff1660e01b8152600401612ce09190614471565b60206040518083038186803b158015612cf857600080fd5b505afa158015612d0c573d6000803e3d6000fd5b505050506040513d601f19601f82011682018060405250810190612d309190613f6e565b8373ffffffffffffffffffffffffffffffffffffffff166130919092919063ffffffff16565b508080612d6290614c5f565b915050612bee565b505050565b7f000000000000000000000000000000000000000000000000000000000000000081565b60026000541415612dd9576040517f08c379a0000000000000000000000000000000000000000000000000000000008152600401612dd090614881565b60405180910390fd5b6002600081905550612de961080b565b73ffffffffffffffffffffffffffffffffffffffff16612e07613089565b73ffffffffffffffffffffffffffffffffffffffff161480612e7d5750600160009054906101000a900473ffffffffffffffffffffffffffffffffffffffff1673ffffffffffffffffffffffffffffffffffffffff16612e65613089565b73ffffffffffffffffffffffffffffffffffffffff16145b612ebc576040517f08c379a0000000000000000000000000000000000000000000000000000000008152600401612eb3906148c1565b60405180910390fd5b612ece8282612ec9613089565b61337a565b60016000819055505050565b6040518060400160405280600581526020017f312e312e3000000000000000000000000000000000000000000000000000000081525081565b6000811480612fac575060008373ffffffffffffffffffffffffffffffffffffffff1663dd62ed3e30856040518363ffffffff1660e01b8152600401612f5a92919061448c565b60206040518083038186803b158015612f7257600080fd5b505afa158015612f86573d6000803e3d6000fd5b505050506040513d601f19601f82011682018060405250810190612faa9190613f6e565b145b612feb576040517f08c379a0000000000000000000000000000000000000000000000000000000008152600401612fe2906148a1565b60405180910390fd5b61306c8363095ea7b360e01b848460405160240161300a929190614545565b604051602081830303815290604052907bffffffffffffffffffffffffffffffffffffffffffffffffffffffff19166020820180517bffffffffffffffffffffffffffffffffffffffffffffffffffffffff8381831617835250505050613747565b505050565b6060613080848460008561380e565b90509392505050565b600033905090565b6131128363a9059cbb60e01b84846040516024016130b0929190614545565b604051602081830303815290604052907bffffffffffffffffffffffffffffffffffffffffffffffffffffffff19166020820180517bffffffffffffffffffffffffffffffffffffffffffffffffffffffff8381831617835250505050613747565b505050565b8373ffffffffffffffffffffffffffffffffffffffff16630a3b0a4f846040518263ffffffff1660e01b81526004016131509190614471565b602060405180830381600087803b15801561316a57600080fd5b505af115801561317e573d6000803e3d6000fd5b505050506040513d601f19601f820116820180604052508101906131a29190613f1c565b6131e1576040517f08c379a00000000000000000000000000000000000000000000000000000000081526004016131d890614741565b60405180910390fd5b8173ffffffffffffffffffffffffffffffffffffffff16630a3b0a4f826040518263ffffffff1660e01b815260040161321a9190614471565b602060405180830381600087803b15801561323457600080fd5b505af1158015613248573d6000803e3d6000fd5b505050506040513d601f19601f8201168201806040525081019061326c9190613f1c565b6132ab576040517f08c379a00000000000000000000000000000000000000000000000000000000081526004016132a290614741565b60405180910390fd5b80600360008573ffffffffffffffffffffffffffffffffffffffff1673ffffffffffffffffffffffffffffffffffffffff16815260200190815260200160002060006101000a81548173ffffffffffffffffffffffffffffffffffffffff021916908373ffffffffffffffffffffffffffffffffffffffff160217905550613374817fffffffffffffffffffffffffffffffffffffffffffffffffffffffffffffffff8573ffffffffffffffffffffffffffffffffffffffff16612f139092919063ffffffff16565b50505050565b7f000000000000000000000000000000000000000000000000000000000000000073ffffffffffffffffffffffffffffffffffffffff16635dbe47e8846040518263ffffffff1660e01b81526004016133d39190614471565b60206040518083038186803b1580156133eb57600080fd5b505afa1580156133ff573d6000803e3d6000fd5b505050506040513d601f19601f820116820180604052508101906134239190613f1c565b613462576040517f08c379a000000000000000000000000000000000000000000000000000000000815260040161345990614721565b60405180910390fd5b6000600360008573ffffffffffffffffffffffffffffffffffffffff1673ffffffffffffffffffffffffffffffffffffffff16815260200190815260200160002060009054906101000a900473ffffffffffffffffffffffffffffffffffffffff1673ffffffffffffffffffffffffffffffffffffffff1663852a12e3846040518263ffffffff1660e01b81526004016134fc9190614901565b602060405180830381600087803b15801561351657600080fd5b505af115801561352a573d6000803e3d6000fd5b505050506040513d601f19601f8201168201806040525081019061354e9190613f6e565b1461358e576040517f08c379a0000000000000000000000000000000000000000000000000000000008152600401613585906147a1565b60405180910390fd5b6135b981838573ffffffffffffffffffffffffffffffffffffffff166130919092919063ffffffff16565b505050565b60005b8273ffffffffffffffffffffffffffffffffffffffff1663c2fba6676040518163ffffffff1660e01b815260040160206040518083038186803b15801561360757600080fd5b505afa15801561361b573d6000803e3d6000fd5b505050506040513d601f19601f8201168201806040525081019061363f9190613f6e565b8110156137425761372f600260009054906101000a900473ffffffffffffffffffffffffffffffffffffffff1673ffffffffffffffffffffffffffffffffffffffff16636e74a6f7836040518263ffffffff1660e01b81526004016136a49190614901565b60206040518083038186803b1580156136bc57600080fd5b505afa1580156136d0573d6000803e3d6000fd5b505050506040513d601f19601f820116820180604052508101906136f49190613f45565b8373c00e94cb662c3520282e6f5717214004a7f2688873ffffffffffffffffffffffffffffffffffffffff16612f139092919063ffffffff16565b808061373a90614c5f565b9150506135c1565b505050565b60006137a9826040518060400160405280602081526020017f5361666545524332303a206c6f772d6c6576656c2063616c6c206661696c65648152508573ffffffffffffffffffffffffffffffffffffffff166130719092919063ffffffff16565b905060008151111561380957808060200190518101906137c99190613f1c565b613808576040517f08c379a00000000000000000000000000000000000000000000000000000000081526004016137ff90614841565b60405180910390fd5b5b505050565b606082471015613853576040517f08c379a000000000000000000000000000000000000000000000000000000000815260040161384a906146a1565b60405180910390fd5b61385c85613922565b61389b576040517f08c379a000000000000000000000000000000000000000000000000000000000815260040161389290614801565b60405180910390fd5b6000808673ffffffffffffffffffffffffffffffffffffffff1685876040516138c4919061445a565b60006040518083038185875af1925050503d8060008114613901576040519150601f19603f3d011682016040523d82523d6000602084013e613906565b606091505b5091509150613916828286613935565b92505050949350505050565b600080823b905060008111915050919050565b6060831561394557829050613995565b6000835111156139585782518084602001fd5b816040517f08c379a000000000000000000000000000000000000000000000000000000000815260040161398c91906145bf565b60405180910390fd5b9392505050565b60006139af6139aa846149b6565b614991565b905080838252602082019050828560208602820111156139ce57600080fd5b60005b858110156139fe57816139e48882613b4c565b8452602084019350602083019250506001810190506139d1565b5050509392505050565b6000613a1b613a16846149b6565b614991565b90508083825260208201905082856020860282011115613a3a57600080fd5b60005b85811015613a6a5781613a508882613b61565b845260208401935060208301925050600181019050613a3d565b5050509392505050565b6000613a87613a82846149e2565b614991565b90508083825260208201905082856020860282011115613aa657600080fd5b60005b85811015613ad65781613abc8882613c48565b845260208401935060208301925050600181019050613aa9565b5050509392505050565b6000613af3613aee846149e2565b614991565b90508083825260208201905082856020860282011115613b1257600080fd5b60005b85811015613b425781613b288882613c5d565b845260208401935060208301925050600181019050613b15565b5050509392505050565b600081359050613b5b816151e3565b92915050565b600081519050613b70816151e3565b92915050565b600082601f830112613b8757600080fd5b8135613b9784826020860161399c565b91505092915050565b600082601f830112613bb157600080fd5b8151613bc1848260208601613a08565b91505092915050565b600082601f830112613bdb57600080fd5b8135613beb848260208601613a74565b91505092915050565b600082601f830112613c0557600080fd5b8151613c15848260208601613ae0565b91505092915050565b600081519050613c2d816151fa565b92915050565b600081519050613c4281615211565b92915050565b600081359050613c5781615228565b92915050565b600081519050613c6c81615228565b92915050565b600060208284031215613c8457600080fd5b6000613c9284828501613b4c565b91505092915050565b600060208284031215613cad57600080fd5b6000613cbb84828501613b61565b91505092915050565b60008060408385031215613cd757600080fd5b6000613ce585828601613b4c565b9250506020613cf685828601613b4c565b9150509250929050565b60008060408385031215613d1357600080fd5b6000613d2185828601613b4c565b9250506020613d3285828601613c48565b9150509250929050565b60008060408385031215613d4f57600080fd5b6000613d5d85828601613b61565b9250506020613d6e85828601613c5d565b9150509250929050565b600080600060608486031215613d8d57600080fd5b6000613d9b86828701613b4c565b9350506020613dac86828701613c48565b9250506040613dbd86828701613b4c565b9150509250925092565b600060208284031215613dd957600080fd5b600082013567ffffffffffffffff811115613df357600080fd5b613dff84828501613b76565b91505092915050565b60008060408385031215613e1b57600080fd5b600083013567ffffffffffffffff811115613e3557600080fd5b613e4185828601613b76565b925050602083013567ffffffffffffffff811115613e5e57600080fd5b613e6a85828601613bca565b9150509250929050565b600080600060608486031215613e8957600080fd5b600084015167ffffffffffffffff811115613ea357600080fd5b613eaf86828701613ba0565b9350506020613ec086828701613c5d565b9250506040613ed186828701613c5d565b9150509250925092565b600060208284031215613eed57600080fd5b600082015167ffffffffffffffff811115613f0757600080fd5b613f1384828501613bf4565b91505092915050565b600060208284031215613f2e57600080fd5b6000613f3c84828501613c1e565b91505092915050565b600060208284031215613f5757600080fd5b6000613f6584828501613c33565b91505092915050565b600060208284031215613f8057600080fd5b6000613f8e84828501613c5d565b91505092915050565b6000613fa38383613faf565b60208301905092915050565b613fb881614b04565b82525050565b613fc781614b04565b82525050565b6000613fd882614a1e565b613fe28185614a4c565b9350613fed83614a0e565b8060005b8381101561401e5781516140058882613f97565b975061401083614a3f565b925050600181019050613ff1565b5085935050505092915050565b600061403682614a29565b6140408185614a5d565b9350614050818560208601614bfb565b80840191505092915050565b61406581614b6b565b82525050565b61407481614b8f565b82525050565b61408381614bb3565b82525050565b61409281614bd7565b82525050565b60006140a382614a34565b6140ad8185614a68565b93506140bd818560208601614bfb565b6140c681614d5f565b840191505092915050565b60006140de601e83614a68565b91506140e982614d70565b602082019050919050565b6000614101601683614a68565b915061410c82614d99565b602082019050919050565b6000614124601183614a68565b915061412f82614dc2565b602082019050919050565b6000614147601583614a68565b915061415282614deb565b602082019050919050565b600061416a601c83614a68565b915061417582614e14565b602082019050919050565b600061418d601483614a68565b915061419882614e3d565b602082019050919050565b60006141b0602683614a68565b91506141bb82614e66565b604082019050919050565b60006141d3601883614a68565b91506141de82614eb5565b602082019050919050565b60006141f6601a83614a68565b915061420182614ede565b602082019050919050565b6000614219601583614a68565b915061422482614f07565b602082019050919050565b600061423c601683614a68565b915061424782614f30565b602082019050919050565b600061425f601283614a68565b915061426a82614f59565b602082019050919050565b6000614282600d83614a68565b915061428d82614f82565b602082019050919050565b60006142a5601783614a68565b91506142b082614fab565b602082019050919050565b60006142c8601883614a68565b91506142d382614fd4565b602082019050919050565b60006142eb600d83614a68565b91506142f682614ffd565b602082019050919050565b600061430e600d83614a68565b915061431982615026565b602082019050919050565b6000614331601d83614a68565b915061433c8261504f565b602082019050919050565b6000614354601c83614a68565b915061435f82615078565b602082019050919050565b6000614377602a83614a68565b9150614382826150a1565b604082019050919050565b600061439a601283614a68565b91506143a5826150f0565b602082019050919050565b60006143bd601f83614a68565b91506143c882615119565b602082019050919050565b60006143e0603683614a68565b91506143eb82615142565b604082019050919050565b6000614403601883614a68565b915061440e82615191565b602082019050919050565b6000614426601683614a68565b9150614431826151ba565b602082019050919050565b61444581614b54565b82525050565b61445481614be9565b82525050565b6000614466828461402b565b915081905092915050565b60006020820190506144866000830184613fbe565b92915050565b60006040820190506144a16000830185613fbe565b6144ae6020830184613fbe565b9392505050565b60006060820190506144ca6000830186613fbe565b6144d76020830185613fbe565b6144e4604083018461443c565b949350505050565b60006040820190506145016000830185613fbe565b81810360208301526145138184613fcd565b90509392505050565b60006040820190506145316000830185613fbe565b61453e6020830184614089565b9392505050565b600060408201905061455a6000830185613fbe565b614567602083018461443c565b9392505050565b6000602082019050614583600083018461405c565b92915050565b600060208201905061459e600083018461406b565b92915050565b60006020820190506145b9600083018461407a565b92915050565b600060208201905081810360008301526145d98184614098565b905092915050565b600060208201905081810360008301526145fa816140d1565b9050919050565b6000602082019050818103600083015261461a816140f4565b9050919050565b6000602082019050818103600083015261463a81614117565b9050919050565b6000602082019050818103600083015261465a8161413a565b9050919050565b6000602082019050818103600083015261467a8161415d565b9050919050565b6000602082019050818103600083015261469a81614180565b9050919050565b600060208201905081810360008301526146ba816141a3565b9050919050565b600060208201905081810360008301526146da816141c6565b9050919050565b600060208201905081810360008301526146fa816141e9565b9050919050565b6000602082019050818103600083015261471a8161420c565b9050919050565b6000602082019050818103600083015261473a8161422f565b9050919050565b6000602082019050818103600083015261475a81614252565b9050919050565b6000602082019050818103600083015261477a81614275565b9050919050565b6000602082019050818103600083015261479a81614298565b9050919050565b600060208201905081810360008301526147ba816142bb565b9050919050565b600060208201905081810360008301526147da816142de565b9050919050565b600060208201905081810360008301526147fa81614301565b9050919050565b6000602082019050818103600083015261481a81614324565b9050919050565b6000602082019050818103600083015261483a81614347565b9050919050565b6000602082019050818103600083015261485a8161436a565b9050919050565b6000602082019050818103600083015261487a8161438d565b9050919050565b6000602082019050818103600083015261489a816143b0565b9050919050565b600060208201905081810360008301526148ba816143d3565b9050919050565b600060208201905081810360008301526148da816143f6565b9050919050565b600060208201905081810360008301526148fa81614419565b9050919050565b6000602082019050614916600083018461443c565b92915050565b600060a082019050614931600083018861443c565b61493e602083018761443c565b81810360408301526149508186613fcd565b905061495f6060830185613fbe565b61496c608083018461443c565b9695505050505050565b600060208201905061498b600083018461444b565b92915050565b600061499b6149ac565b90506149a78282614c2e565b919050565b6000604051905090565b600067ffffffffffffffff8211156149d1576149d0614d30565b5b602082029050602081019050919050565b600067ffffffffffffffff8211156149fd576149fc614d30565b5b602082029050602081019050919050565b6000819050602082019050919050565b600081519050919050565b600081519050919050565b600081519050919050565b6000602082019050919050565b600082825260208201905092915050565b600081905092915050565b600082825260208201905092915050565b6000614a8482614b54565b9150614a8f83614b54565b925082614a9f57614a9e614d01565b5b828204905092915050565b6000614ab582614b54565b9150614ac083614b54565b9250817fffffffffffffffffffffffffffffffffffffffffffffffffffffffffffffffff0483118215151615614af957614af8614cd2565b5b828202905092915050565b6000614b0f82614b34565b9050919050565b60008115159050919050565b6000614b2d82614b04565b9050919050565b600073ffffffffffffffffffffffffffffffffffffffff82169050919050565b6000819050919050565b600060ff82169050919050565b6000614b7682614b7d565b9050919050565b6000614b8882614b34565b9050919050565b6000614b9a82614ba1565b9050919050565b6000614bac82614b34565b9050919050565b6000614bbe82614bc5565b9050919050565b6000614bd082614b34565b9050919050565b6000614be282614b54565b9050919050565b6000614bf482614b5e565b9050919050565b60005b83811015614c19578082015181840152602081019050614bfe565b83811115614c28576000848401525b50505050565b614c3782614d5f565b810181811067ffffffffffffffff82111715614c5657614c55614d30565b5b80604052505050565b6000614c6a82614b54565b91507fffffffffffffffffffffffffffffffffffffffffffffffffffffffffffffffff821415614c9d57614c9c614cd2565b5b600182019050919050565b6000614cb382614b5e565b915060ff821415614cc757614cc6614cd2565b5b600182019050919050565b7f4e487b7100000000000000000000000000000000000000000000000000000000600052601160045260246000fd5b7f4e487b7100000000000000000000000000000000000000000000000000000000600052601260045260246000fd5b7f4e487b7100000000000000000000000000000000000000000000000000000000600052604160045260246000fd5b6000601f19601f8301169050919050565b7f63546f6b656e2d69732d6e6f742d616c6c6f7765642d746f2d73776565700000600082015250565b7f63546f6b656e2d616464726573732d69732d7a65726f00000000000000000000600082015250565b7f6164642d6b65657065722d6661696c6564000000000000000000000000000000600082015250565b7f696e7075742d6c656e6774682d6d69736d617463680000000000000000000000600082015250565b7f6e65772d74726561737572792d616464726573732d69732d7a65726f00000000600082015250565b7f72656d6f76652d6b65657065722d6661696c6564000000000000000000000000600082015250565b7f416464726573733a20696e73756666696369656e742062616c616e636520666f60008201527f722063616c6c0000000000000000000000000000000000000000000000000000602082015250565b7f72656465656d65722d616464726573732d69732d7a65726f0000000000000000600082015250565b7f63616c6c65722d69732d6e6f742d7468652d676f7665726e6f72000000000000600082015250565b7f746f6b656e2d616464726573732d69732d7a65726f0000000000000000000000600082015250565b7f746f6b656e2d69732d6e6f742d737570706f7274656400000000000000000000600082015250565b7f6164642d696e2d6c6973742d6661696c65640000000000000000000000000000600082015250565b7f73616d652d72656465656d657200000000000000000000000000000000000000600082015250565b7f72656d6f76652d66726f6d2d6c6973742d6661696c6564000000000000000000600082015250565b7f72656465656d2d756e6465726c79696e672d6661696c65640000000000000000600082015250565b7f767573642d6d69736d6174636800000000000000000000000000000000000000600082015250565b7f72656465656d2d6661696c656400000000000000000000000000000000000000600082015250565b7f416464726573733a2063616c6c20746f206e6f6e2d636f6e7472616374000000600082015250565b7f737761702d6d616e616765722d616464726573732d69732d7a65726f00000000600082015250565b7f5361666545524332303a204552433230206f7065726174696f6e20646964206e60008201527f6f74207375636365656400000000000000000000000000000000000000000000602082015250565b7f63546f6b656e2d6d696e742d6661696c65640000000000000000000000000000600082015250565b7f5265656e7472616e637947756172643a207265656e7472616e742063616c6c00600082015250565b7f5361666545524332303a20617070726f76652066726f6d206e6f6e2d7a65726f60008201527f20746f206e6f6e2d7a65726f20616c6c6f77616e636500000000000000000000602082015250565b7f63616c6c65722d69732d6e6f742d617574686f72697a65640000000000000000600082015250565b7f6b65657065722d616464726573732d69732d7a65726f00000000000000000000600082015250565b6151ec81614b04565b81146151f757600080fd5b50565b61520381614b16565b811461520e57600080fd5b50565b61521a81614b22565b811461522557600080fd5b50565b61523181614b54565b811461523c57600080fd5b5056fea2646970667358221220315e94dd1658cd42b3a37b1a0fea087d5d99d74114c92a53b8d949d6f02be0ff64736f6c63430008030033",
  "devdoc": {
    "kind": "dev",
    "methods": {
      "addKeeper(address)": {
        "params": {
          "_keeperAddress": "keeper address to add."
        }
      },
      "addWhitelistedToken(address,address)": {
        "details": "Add token address in whitelistedTokens list and add cToken in mapping",
        "params": {
          "_cToken": "CToken address correspond to _token",
          "_token": "address which we want to add in token list."
        }
      },
      "claimCompAndConvertTo(address,uint256)": {
        "params": {
          "_minOut": "Minimum _toToken expected after conversion",
          "_toToken": "COMP will be swapped to _toToken"
        }
      },
      "governor()": {
        "details": "Governor is defined in VUSD token contract only"
      },
      "migrate(address)": {
        "params": {
          "_newTreasury": "Address of new treasury of VUSD system"
        }
      },
      "removeKeeper(address)": {
        "params": {
          "_keeperAddress": "keeper address to remove."
        }
      },
      "removeWhitelistedToken(address)": {
        "details": "Removing token even if treasury has some balance of that token is intended behavior.",
        "params": {
          "_token": "address which we want to remove from token list."
        }
      },
      "sweep(address)": {
        "details": "OnlyGovernor can call this and CTokens are not allowed to sweep",
        "params": {
          "_fromToken": "Token address to sweep"
        }
      },
      "updateRedeemer(address)": {
        "params": {
          "_newRedeemer": "new redeemer address"
        }
      },
      "updateSwapManager(address)": {
        "params": {
          "_newSwapManager": "new swap manager address"
        }
      },
      "withdraw(address,uint256)": {
        "details": "Only Redeemer and Governor are allowed to call",
        "params": {
          "_amount": "token amount to withdraw",
          "_token": "Token to withdraw, it should be 1 of the supported tokens."
        }
      },
      "withdraw(address,uint256,address)": {
        "details": "Only Redeemer and Governor are allowed to call",
        "params": {
          "_amount": "token amount to withdraw",
          "_token": "Token to withdraw, it should be 1 of the supported tokens.",
          "_tokenReceiver": "Address of token receiver"
        }
      },
      "withdrawAll(address[])": {
        "details": "Only Governor is allowed to call.",
        "params": {
          "_tokens": "Array of token addresses, tokens should be supported tokens."
        }
      },
      "withdrawMulti(address[],uint256[])": {
        "details": "Only Governor is allowed to call._tokens and _amounts array are 1:1 and should have same length",
        "params": {
          "_amounts": "Array of token amount to withdraw",
          "_tokens": "Array of token addresses, tokens should be supported tokens."
        }
      },
      "withdrawable(address)": {
        "params": {
          "_token": "Token to withdraw"
        }
      }
    },
    "title": "VUSD Treasury, It stores cTokens and redeem those from Compound as needed.",
    "version": 1
  },
  "userdoc": {
    "kind": "user",
    "methods": {
      "addKeeper(address)": {
        "notice": "Add given address in keepers list."
      },
      "addWhitelistedToken(address,address)": {
        "notice": "Add token into treasury management system"
      },
      "claimCompAndConvertTo(address,uint256)": {
        "notice": "Claim comp from all markets and convert to given token. Also deposit those tokens to Compound"
      },
      "migrate(address)": {
        "notice": "Migrate assets to new treasury"
      },
      "removeKeeper(address)": {
        "notice": "Remove given address from keepers list."
      },
      "removeWhitelistedToken(address)": {
        "notice": "Remove token from treasury management system"
      },
      "sweep(address)": {
        "notice": "Sweep any ERC20 token to governor address"
      },
      "updateRedeemer(address)": {
        "notice": "Update redeemer address"
      },
      "updateSwapManager(address)": {
        "notice": "Update swap manager address"
      },
      "withdraw(address,uint256)": {
        "notice": "Withdraw given amount of token."
      },
      "withdraw(address,uint256,address)": {
        "notice": "Withdraw given amount of token."
      },
      "withdrawAll(address[])": {
        "notice": "Withdraw all of multiple tokens."
      },
      "withdrawMulti(address[],uint256[])": {
        "notice": "Withdraw multiple tokens."
      },
      "withdrawable(address)": {
        "notice": "Current withdrawable amount for given token. If token is not supported by treasury, no cTokens in mapping, it will return 0."
      }
    },
    "version": 1
  },
  "storageLayout": {
    "storage": [
      {
        "astId": 10,
        "contract": "contracts/Treasury.sol:Treasury",
        "label": "_status",
        "offset": 0,
        "slot": "0",
        "type": "t_uint256"
      },
      {
        "astId": 734,
        "contract": "contracts/Treasury.sol:Treasury",
        "label": "redeemer",
        "offset": 0,
        "slot": "1",
        "type": "t_address"
      },
      {
        "astId": 740,
        "contract": "contracts/Treasury.sol:Treasury",
        "label": "swapManager",
        "offset": 0,
        "slot": "2",
        "type": "t_contract(ISwapManager)2207"
      },
      {
        "astId": 744,
        "contract": "contracts/Treasury.sol:Treasury",
        "label": "cTokens",
        "offset": 0,
        "slot": "3",
        "type": "t_mapping(t_address,t_address)"
      }
    ],
    "types": {
      "t_address": {
        "encoding": "inplace",
        "label": "address",
        "numberOfBytes": "20"
      },
      "t_contract(ISwapManager)2207": {
        "encoding": "inplace",
        "label": "contract ISwapManager",
        "numberOfBytes": "20"
      },
      "t_mapping(t_address,t_address)": {
        "encoding": "mapping",
        "key": "t_address",
        "label": "mapping(address => address)",
        "numberOfBytes": "32",
        "value": "t_address"
      },
      "t_uint256": {
        "encoding": "inplace",
        "label": "uint256",
        "numberOfBytes": "32"
      }
    }
  }
}